{
  "_format": "hh-sol-artifact-1",
  "contractName": "DonationToken",
  "sourceName": "contracts/DonationToken.sol",
  "abi": [
    {
      "inputs": [
        {
          "internalType": "address",
          "name": "_donationPlatform",
          "type": "address"
        }
      ],
      "stateMutability": "nonpayable",
      "type": "constructor"
    },
    {
      "inputs": [
        {
          "internalType": "address",
          "name": "spender",
          "type": "address"
        },
        {
          "internalType": "uint256",
          "name": "allowance",
          "type": "uint256"
        },
        {
          "internalType": "uint256",
          "name": "needed",
          "type": "uint256"
        }
      ],
      "name": "ERC20InsufficientAllowance",
      "type": "error"
    },
    {
      "inputs": [
        {
          "internalType": "address",
          "name": "sender",
          "type": "address"
        },
        {
          "internalType": "uint256",
          "name": "balance",
          "type": "uint256"
        },
        {
          "internalType": "uint256",
          "name": "needed",
          "type": "uint256"
        }
      ],
      "name": "ERC20InsufficientBalance",
      "type": "error"
    },
    {
      "inputs": [
        {
          "internalType": "address",
          "name": "approver",
          "type": "address"
        }
      ],
      "name": "ERC20InvalidApprover",
      "type": "error"
    },
    {
      "inputs": [
        {
          "internalType": "address",
          "name": "receiver",
          "type": "address"
        }
      ],
      "name": "ERC20InvalidReceiver",
      "type": "error"
    },
    {
      "inputs": [
        {
          "internalType": "address",
          "name": "sender",
          "type": "address"
        }
      ],
      "name": "ERC20InvalidSender",
      "type": "error"
    },
    {
      "inputs": [
        {
          "internalType": "address",
          "name": "spender",
          "type": "address"
        }
      ],
      "name": "ERC20InvalidSpender",
      "type": "error"
    },
    {
      "inputs": [
        {
          "internalType": "address",
          "name": "owner",
          "type": "address"
        }
      ],
      "name": "OwnableInvalidOwner",
      "type": "error"
    },
    {
      "inputs": [
        {
          "internalType": "address",
          "name": "account",
          "type": "address"
        }
      ],
      "name": "OwnableUnauthorizedAccount",
      "type": "error"
    },
    {
      "anonymous": false,
      "inputs": [
        {
          "indexed": true,
          "internalType": "address",
          "name": "owner",
          "type": "address"
        },
        {
          "indexed": true,
          "internalType": "address",
          "name": "spender",
          "type": "address"
        },
        {
          "indexed": false,
          "internalType": "uint256",
          "name": "value",
          "type": "uint256"
        }
      ],
      "name": "Approval",
      "type": "event"
    },
    {
      "anonymous": false,
      "inputs": [
        {
          "indexed": true,
          "internalType": "address",
          "name": "previousOwner",
          "type": "address"
        },
        {
          "indexed": true,
          "internalType": "address",
          "name": "newOwner",
          "type": "address"
        }
      ],
      "name": "OwnershipTransferred",
      "type": "event"
    },
    {
      "anonymous": false,
      "inputs": [
        {
          "indexed": true,
          "internalType": "address",
          "name": "from",
          "type": "address"
        },
        {
          "indexed": true,
          "internalType": "address",
          "name": "to",
          "type": "address"
        },
        {
          "indexed": false,
          "internalType": "uint256",
          "name": "value",
          "type": "uint256"
        }
      ],
      "name": "Transfer",
      "type": "event"
    },
    {
      "inputs": [
        {
          "internalType": "address",
          "name": "owner",
          "type": "address"
        },
        {
          "internalType": "address",
          "name": "spender",
          "type": "address"
        }
      ],
      "name": "allowance",
      "outputs": [
        {
          "internalType": "uint256",
          "name": "",
          "type": "uint256"
        }
      ],
      "stateMutability": "view",
      "type": "function"
    },
    {
      "inputs": [
        {
          "internalType": "address",
          "name": "spender",
          "type": "address"
        },
        {
          "internalType": "uint256",
          "name": "value",
          "type": "uint256"
        }
      ],
      "name": "approve",
      "outputs": [
        {
          "internalType": "bool",
          "name": "",
          "type": "bool"
        }
      ],
      "stateMutability": "nonpayable",
      "type": "function"
    },
    {
      "inputs": [
        {
          "internalType": "address",
          "name": "account",
          "type": "address"
        }
      ],
      "name": "balanceOf",
      "outputs": [
        {
          "internalType": "uint256",
          "name": "",
          "type": "uint256"
        }
      ],
      "stateMutability": "view",
      "type": "function"
    },
    {
      "inputs": [],
      "name": "decimals",
      "outputs": [
        {
          "internalType": "uint8",
          "name": "",
          "type": "uint8"
        }
      ],
      "stateMutability": "view",
      "type": "function"
    },
    {
      "inputs": [],
      "name": "donationPlatform",
      "outputs": [
        {
          "internalType": "address",
          "name": "",
          "type": "address"
        }
      ],
      "stateMutability": "view",
      "type": "function"
    },
    {
      "inputs": [
        {
          "internalType": "address",
          "name": "to",
          "type": "address"
        },
        {
          "internalType": "uint256",
          "name": "amount",
          "type": "uint256"
        }
      ],
      "name": "mint",
      "outputs": [],
      "stateMutability": "nonpayable",
      "type": "function"
    },
    {
      "inputs": [],
      "name": "name",
      "outputs": [
        {
          "internalType": "string",
          "name": "",
          "type": "string"
        }
      ],
      "stateMutability": "view",
      "type": "function"
    },
    {
      "inputs": [],
      "name": "owner",
      "outputs": [
        {
          "internalType": "address",
          "name": "",
          "type": "address"
        }
      ],
      "stateMutability": "view",
      "type": "function"
    },
    {
      "inputs": [],
      "name": "renounceOwnership",
      "outputs": [],
      "stateMutability": "nonpayable",
      "type": "function"
    },
    {
      "inputs": [
        {
          "internalType": "address",
          "name": "_newPlatform",
          "type": "address"
        }
      ],
      "name": "setDonationPlatform",
      "outputs": [],
      "stateMutability": "nonpayable",
      "type": "function"
    },
    {
      "inputs": [],
      "name": "symbol",
      "outputs": [
        {
          "internalType": "string",
          "name": "",
          "type": "string"
        }
      ],
      "stateMutability": "view",
      "type": "function"
    },
    {
      "inputs": [],
      "name": "totalSupply",
      "outputs": [
        {
          "internalType": "uint256",
          "name": "",
          "type": "uint256"
        }
      ],
      "stateMutability": "view",
      "type": "function"
    },
    {
      "inputs": [
        {
          "internalType": "address",
          "name": "to",
          "type": "address"
        },
        {
          "internalType": "uint256",
          "name": "value",
          "type": "uint256"
        }
      ],
      "name": "transfer",
      "outputs": [
        {
          "internalType": "bool",
          "name": "",
          "type": "bool"
        }
      ],
      "stateMutability": "nonpayable",
      "type": "function"
    },
    {
      "inputs": [
        {
          "internalType": "address",
          "name": "from",
          "type": "address"
        },
        {
          "internalType": "address",
          "name": "to",
          "type": "address"
        },
        {
          "internalType": "uint256",
          "name": "value",
          "type": "uint256"
        }
      ],
      "name": "transferFrom",
      "outputs": [
        {
          "internalType": "bool",
          "name": "",
          "type": "bool"
        }
      ],
      "stateMutability": "nonpayable",
      "type": "function"
    },
    {
      "inputs": [
        {
          "internalType": "address",
          "name": "newOwner",
          "type": "address"
        }
      ],
      "name": "transferOwnership",
      "outputs": [],
      "stateMutability": "nonpayable",
      "type": "function"
    }
  ],
  "bytecode": "0x60806040523480156200001157600080fd5b5060405162000cf138038062000cf1833981016040819052620000349162000151565b336040518060400160405280600e81526020016d2237b730ba34b7b7102a37b5b2b760911b81525060405180604001604052806006815260200165444f4e41544560d01b81525081600390816200008c919062000228565b5060046200009b828262000228565b5050506001600160a01b038116620000cd57604051631e4fbdf760e01b81526000600482015260240160405180910390fd5b620000d881620000ff565b50600680546001600160a01b0319166001600160a01b0392909216919091179055620002f4565b600580546001600160a01b038381166001600160a01b0319831681179093556040519116919082907f8be0079c531659141344cd1fd0a4f28419497f9722a3daafe3b4186f6b6457e090600090a35050565b6000602082840312156200016457600080fd5b81516001600160a01b03811681146200017c57600080fd5b9392505050565b634e487b7160e01b600052604160045260246000fd5b600181811c90821680620001ae57607f821691505b602082108103620001cf57634e487b7160e01b600052602260045260246000fd5b50919050565b601f8211156200022357600081815260208120601f850160051c81016020861015620001fe5750805b601f850160051c820191505b818110156200021f578281556001016200020a565b5050505b505050565b81516001600160401b0381111562000244576200024462000183565b6200025c8162000255845462000199565b84620001d5565b602080601f8311600181146200029457600084156200027b5750858301515b600019600386901b1c1916600185901b1785556200021f565b600085815260208120601f198616915b82811015620002c557888601518255948401946001909101908401620002a4565b5085821015620002e45787850151600019600388901b60f8161c191681555b5050505050600190811b01905550565b6109ed80620003046000396000f3fe608060405234801561001057600080fd5b50600436106100f55760003560e01c8063715018a611610097578063bf5264f311610066578063bf5264f3146101f5578063cf996ae514610208578063dd62ed3e1461021b578063f2fde38b1461025457600080fd5b8063715018a6146101ad5780638da5cb5b146101b557806395d89b41146101da578063a9059cbb146101e257600080fd5b806323b872dd116100d357806323b872dd1461014d578063313ce5671461016057806340c10f191461016f57806370a082311461018457600080fd5b806306fdde03146100fa578063095ea7b31461011857806318160ddd1461013b575b600080fd5b610102610267565b60405161010f9190610837565b60405180910390f35b61012b6101263660046108a1565b6102f9565b604051901515815260200161010f565b6002545b60405190815260200161010f565b61012b61015b3660046108cb565b610313565b6040516012815260200161010f565b61018261017d3660046108a1565b610337565b005b61013f610192366004610907565b6001600160a01b031660009081526020819052604090205490565b6101826103a4565b6005546001600160a01b03165b6040516001600160a01b03909116815260200161010f565b6101026103b8565b61012b6101f03660046108a1565b6103c7565b6006546101c2906001600160a01b031681565b610182610216366004610907565b6103d5565b61013f610229366004610929565b6001600160a01b03918216600090815260016020908152604080832093909416825291909152205490565b610182610262366004610907565b610455565b6060600380546102769061095c565b80601f01602080910402602001604051908101604052809291908181526020018280546102a29061095c565b80156102ef5780601f106102c4576101008083540402835291602001916102ef565b820191906000526020600020905b8154815290600101906020018083116102d257829003601f168201915b5050505050905090565b600033610307818585610493565b60019150505b92915050565b6000336103218582856104a5565b61032c858585610524565b506001949350505050565b6006546001600160a01b031633146103965760405162461bcd60e51b815260206004820152601a60248201527fec9e98ebaabbeb909c20eca3bcec868cec9e85eb8b88eb8ba42e00000000000060448201526064015b60405180910390fd5b6103a08282610583565b5050565b6103ac6105b9565b6103b660006105e6565b565b6060600480546102769061095c565b600033610307818585610524565b6103dd6105b9565b6001600160a01b0381166104335760405162461bcd60e51b815260206004820152601860248201527f496e76616c696420706c6174666f726d20616464726573730000000000000000604482015260640161038d565b600680546001600160a01b0319166001600160a01b0392909216919091179055565b61045d6105b9565b6001600160a01b03811661048757604051631e4fbdf760e01b81526000600482015260240161038d565b610490816105e6565b50565b6104a08383836001610638565b505050565b6001600160a01b0383811660009081526001602090815260408083209386168352929052205460001981101561051e578181101561050f57604051637dc7a0d960e11b81526001600160a01b0384166004820152602481018290526044810183905260640161038d565b61051e84848484036000610638565b50505050565b6001600160a01b03831661054e57604051634b637e8f60e11b81526000600482015260240161038d565b6001600160a01b0382166105785760405163ec442f0560e01b81526000600482015260240161038d565b6104a083838361070d565b6001600160a01b0382166105ad5760405163ec442f0560e01b81526000600482015260240161038d565b6103a06000838361070d565b6005546001600160a01b031633146103b65760405163118cdaa760e01b815233600482015260240161038d565b600580546001600160a01b038381166001600160a01b0319831681179093556040519116919082907f8be0079c531659141344cd1fd0a4f28419497f9722a3daafe3b4186f6b6457e090600090a35050565b6001600160a01b0384166106625760405163e602df0560e01b81526000600482015260240161038d565b6001600160a01b03831661068c57604051634a1406b160e11b81526000600482015260240161038d565b6001600160a01b038085166000908152600160209081526040808320938716835292905220829055801561051e57826001600160a01b0316846001600160a01b03167f8c5be1e5ebec7d5bd14f71427d1e84f3dd0314c0f7b2291e5b200ac8c7c3b925846040516106ff91815260200190565b60405180910390a350505050565b6001600160a01b03831661073857806002600082825461072d9190610996565b909155506107aa9050565b6001600160a01b0383166000908152602081905260409020548181101561078b5760405163391434e360e21b81526001600160a01b0385166004820152602481018290526044810183905260640161038d565b6001600160a01b03841660009081526020819052604090209082900390555b6001600160a01b0382166107c6576002805482900390556107e5565b6001600160a01b03821660009081526020819052604090208054820190555b816001600160a01b0316836001600160a01b03167fddf252ad1be2c89b69c2b068fc378daa952ba7f163c4a11628f55a4df523b3ef8360405161082a91815260200190565b60405180910390a3505050565b600060208083528351808285015260005b8181101561086457858101830151858201604001528201610848565b506000604082860101526040601f19601f8301168501019250505092915050565b80356001600160a01b038116811461089c57600080fd5b919050565b600080604083850312156108b457600080fd5b6108bd83610885565b946020939093013593505050565b6000806000606084860312156108e057600080fd5b6108e984610885565b92506108f760208501610885565b9150604084013590509250925092565b60006020828403121561091957600080fd5b61092282610885565b9392505050565b6000806040838503121561093c57600080fd5b61094583610885565b915061095360208401610885565b90509250929050565b600181811c9082168061097057607f821691505b60208210810361099057634e487b7160e01b600052602260045260246000fd5b50919050565b8082018082111561030d57634e487b7160e01b600052601160045260246000fdfea2646970667358221220a68a7f666f3888a4dc0fa17f11126e1d2d1556161f23cd2e45096b634370e33464736f6c63430008140033",
  "linkReferences": {},
  "deployedLinkReferences": {}
}