{
  "_format": "hh-sol-artifact-1",
  "contractName": "DonationCertificate",
  "sourceName": "contracts/DonationCertificate.sol",
  "abi": [
    {
      "inputs": [
        {
          "internalType": "address",
          "name": "_donationPlatform",
          "type": "address"
        }
      ],
      "stateMutability": "nonpayable",
      "type": "constructor"
    },
    {
      "inputs": [
        {
          "internalType": "address",
          "name": "sender",
          "type": "address"
        },
        {
          "internalType": "uint256",
          "name": "tokenId",
          "type": "uint256"
        },
        {
          "internalType": "address",
          "name": "owner",
          "type": "address"
        }
      ],
      "name": "ERC721IncorrectOwner",
      "type": "error"
    },
    {
      "inputs": [
        {
          "internalType": "address",
          "name": "operator",
          "type": "address"
        },
        {
          "internalType": "uint256",
          "name": "tokenId",
          "type": "uint256"
        }
      ],
      "name": "ERC721InsufficientApproval",
      "type": "error"
    },
    {
      "inputs": [
        {
          "internalType": "address",
          "name": "approver",
          "type": "address"
        }
      ],
      "name": "ERC721InvalidApprover",
      "type": "error"
    },
    {
      "inputs": [
        {
          "internalType": "address",
          "name": "operator",
          "type": "address"
        }
      ],
      "name": "ERC721InvalidOperator",
      "type": "error"
    },
    {
      "inputs": [
        {
          "internalType": "address",
          "name": "owner",
          "type": "address"
        }
      ],
      "name": "ERC721InvalidOwner",
      "type": "error"
    },
    {
      "inputs": [
        {
          "internalType": "address",
          "name": "receiver",
          "type": "address"
        }
      ],
      "name": "ERC721InvalidReceiver",
      "type": "error"
    },
    {
      "inputs": [
        {
          "internalType": "address",
          "name": "sender",
          "type": "address"
        }
      ],
      "name": "ERC721InvalidSender",
      "type": "error"
    },
    {
      "inputs": [
        {
          "internalType": "uint256",
          "name": "tokenId",
          "type": "uint256"
        }
      ],
      "name": "ERC721NonexistentToken",
      "type": "error"
    },
    {
      "inputs": [
        {
          "internalType": "address",
          "name": "owner",
          "type": "address"
        }
      ],
      "name": "OwnableInvalidOwner",
      "type": "error"
    },
    {
      "inputs": [
        {
          "internalType": "address",
          "name": "account",
          "type": "address"
        }
      ],
      "name": "OwnableUnauthorizedAccount",
      "type": "error"
    },
    {
      "anonymous": false,
      "inputs": [
        {
          "indexed": true,
          "internalType": "address",
          "name": "owner",
          "type": "address"
        },
        {
          "indexed": true,
          "internalType": "address",
          "name": "approved",
          "type": "address"
        },
        {
          "indexed": true,
          "internalType": "uint256",
          "name": "tokenId",
          "type": "uint256"
        }
      ],
      "name": "Approval",
      "type": "event"
    },
    {
      "anonymous": false,
      "inputs": [
        {
          "indexed": true,
          "internalType": "address",
          "name": "owner",
          "type": "address"
        },
        {
          "indexed": true,
          "internalType": "address",
          "name": "operator",
          "type": "address"
        },
        {
          "indexed": false,
          "internalType": "bool",
          "name": "approved",
          "type": "bool"
        }
      ],
      "name": "ApprovalForAll",
      "type": "event"
    },
    {
      "anonymous": false,
      "inputs": [
        {
          "indexed": false,
          "internalType": "uint256",
          "name": "_fromTokenId",
          "type": "uint256"
        },
        {
          "indexed": false,
          "internalType": "uint256",
          "name": "_toTokenId",
          "type": "uint256"
        }
      ],
      "name": "BatchMetadataUpdate",
      "type": "event"
    },
    {
      "anonymous": false,
      "inputs": [
        {
          "indexed": false,
          "internalType": "uint256",
          "name": "_tokenId",
          "type": "uint256"
        }
      ],
      "name": "MetadataUpdate",
      "type": "event"
    },
    {
      "anonymous": false,
      "inputs": [
        {
          "indexed": true,
          "internalType": "address",
          "name": "previousOwner",
          "type": "address"
        },
        {
          "indexed": true,
          "internalType": "address",
          "name": "newOwner",
          "type": "address"
        }
      ],
      "name": "OwnershipTransferred",
      "type": "event"
    },
    {
      "anonymous": false,
      "inputs": [
        {
          "indexed": true,
          "internalType": "address",
          "name": "from",
          "type": "address"
        },
        {
          "indexed": true,
          "internalType": "address",
          "name": "to",
          "type": "address"
        },
        {
          "indexed": true,
          "internalType": "uint256",
          "name": "tokenId",
          "type": "uint256"
        }
      ],
      "name": "Transfer",
      "type": "event"
    },
    {
      "inputs": [
        {
          "internalType": "address",
          "name": "to",
          "type": "address"
        },
        {
          "internalType": "uint256",
          "name": "tokenId",
          "type": "uint256"
        }
      ],
      "name": "approve",
      "outputs": [],
      "stateMutability": "nonpayable",
      "type": "function"
    },
    {
      "inputs": [
        {
          "internalType": "address",
          "name": "owner",
          "type": "address"
        }
      ],
      "name": "balanceOf",
      "outputs": [
        {
          "internalType": "uint256",
          "name": "",
          "type": "uint256"
        }
      ],
      "stateMutability": "view",
      "type": "function"
    },
    {
      "inputs": [],
      "name": "donationPlatform",
      "outputs": [
        {
          "internalType": "address",
          "name": "",
          "type": "address"
        }
      ],
      "stateMutability": "view",
      "type": "function"
    },
    {
      "inputs": [
        {
          "internalType": "uint256",
          "name": "tokenId",
          "type": "uint256"
        }
      ],
      "name": "getApproved",
      "outputs": [
        {
          "internalType": "address",
          "name": "",
          "type": "address"
        }
      ],
      "stateMutability": "view",
      "type": "function"
    },
    {
      "inputs": [
        {
          "internalType": "address",
          "name": "owner",
          "type": "address"
        },
        {
          "internalType": "address",
          "name": "operator",
          "type": "address"
        }
      ],
      "name": "isApprovedForAll",
      "outputs": [
        {
          "internalType": "bool",
          "name": "",
          "type": "bool"
        }
      ],
      "stateMutability": "view",
      "type": "function"
    },
    {
      "inputs": [
        {
          "internalType": "address",
          "name": "donor",
          "type": "address"
        },
        {
          "internalType": "string",
          "name": "tokenURI",
          "type": "string"
        }
      ],
      "name": "mintCertificate",
      "outputs": [
        {
          "internalType": "uint256",
          "name": "",
          "type": "uint256"
        }
      ],
      "stateMutability": "nonpayable",
      "type": "function"
    },
    {
      "inputs": [],
      "name": "name",
      "outputs": [
        {
          "internalType": "string",
          "name": "",
          "type": "string"
        }
      ],
      "stateMutability": "view",
      "type": "function"
    },
    {
      "inputs": [],
      "name": "owner",
      "outputs": [
        {
          "internalType": "address",
          "name": "",
          "type": "address"
        }
      ],
      "stateMutability": "view",
      "type": "function"
    },
    {
      "inputs": [
        {
          "internalType": "uint256",
          "name": "tokenId",
          "type": "uint256"
        }
      ],
      "name": "ownerOf",
      "outputs": [
        {
          "internalType": "address",
          "name": "",
          "type": "address"
        }
      ],
      "stateMutability": "view",
      "type": "function"
    },
    {
      "inputs": [],
      "name": "renounceOwnership",
      "outputs": [],
      "stateMutability": "nonpayable",
      "type": "function"
    },
    {
      "inputs": [
        {
          "internalType": "address",
          "name": "from",
          "type": "address"
        },
        {
          "internalType": "address",
          "name": "to",
          "type": "address"
        },
        {
          "internalType": "uint256",
          "name": "tokenId",
          "type": "uint256"
        }
      ],
      "name": "safeTransferFrom",
      "outputs": [],
      "stateMutability": "nonpayable",
      "type": "function"
    },
    {
      "inputs": [
        {
          "internalType": "address",
          "name": "from",
          "type": "address"
        },
        {
          "internalType": "address",
          "name": "to",
          "type": "address"
        },
        {
          "internalType": "uint256",
          "name": "tokenId",
          "type": "uint256"
        },
        {
          "internalType": "bytes",
          "name": "data",
          "type": "bytes"
        }
      ],
      "name": "safeTransferFrom",
      "outputs": [],
      "stateMutability": "nonpayable",
      "type": "function"
    },
    {
      "inputs": [
        {
          "internalType": "address",
          "name": "operator",
          "type": "address"
        },
        {
          "internalType": "bool",
          "name": "approved",
          "type": "bool"
        }
      ],
      "name": "setApprovalForAll",
      "outputs": [],
      "stateMutability": "nonpayable",
      "type": "function"
    },
    {
      "inputs": [
        {
          "internalType": "address",
          "name": "_newPlatform",
          "type": "address"
        }
      ],
      "name": "setDonationPlatform",
      "outputs": [],
      "stateMutability": "nonpayable",
      "type": "function"
    },
    {
      "inputs": [
        {
          "internalType": "bytes4",
          "name": "interfaceId",
          "type": "bytes4"
        }
      ],
      "name": "supportsInterface",
      "outputs": [
        {
          "internalType": "bool",
          "name": "",
          "type": "bool"
        }
      ],
      "stateMutability": "view",
      "type": "function"
    },
    {
      "inputs": [],
      "name": "symbol",
      "outputs": [
        {
          "internalType": "string",
          "name": "",
          "type": "string"
        }
      ],
      "stateMutability": "view",
      "type": "function"
    },
    {
      "inputs": [
        {
          "internalType": "uint256",
          "name": "tokenId",
          "type": "uint256"
        }
      ],
      "name": "tokenURI",
      "outputs": [
        {
          "internalType": "string",
          "name": "",
          "type": "string"
        }
      ],
      "stateMutability": "view",
      "type": "function"
    },
    {
      "inputs": [
        {
          "internalType": "address",
          "name": "from",
          "type": "address"
        },
        {
          "internalType": "address",
          "name": "to",
          "type": "address"
        },
        {
          "internalType": "uint256",
          "name": "tokenId",
          "type": "uint256"
        }
      ],
      "name": "transferFrom",
      "outputs": [],
      "stateMutability": "nonpayable",
      "type": "function"
    },
    {
      "inputs": [
        {
          "internalType": "address",
          "name": "newOwner",
          "type": "address"
        }
      ],
      "name": "transferOwnership",
      "outputs": [],
      "stateMutability": "nonpayable",
      "type": "function"
    }
  ],
  "bytecode": "0x60806040523480156200001157600080fd5b50604051620018173803806200181783398101604081905262000034916200015f565b336040518060400160405280601481526020017f446f6e6174696f6e204365727469666963617465000000000000000000000000815250604051806040016040528060058152602001641110d1549560da1b81525081600090816200009a919062000236565b506001620000a9828262000236565b5050506001600160a01b038116620000db57604051631e4fbdf760e01b81526000600482015260240160405180910390fd5b620000e6816200010d565b50600980546001600160a01b0319166001600160a01b039290921691909117905562000302565b600780546001600160a01b038381166001600160a01b0319831681179093556040519116919082907f8be0079c531659141344cd1fd0a4f28419497f9722a3daafe3b4186f6b6457e090600090a35050565b6000602082840312156200017257600080fd5b81516001600160a01b03811681146200018a57600080fd5b9392505050565b634e487b7160e01b600052604160045260246000fd5b600181811c90821680620001bc57607f821691505b602082108103620001dd57634e487b7160e01b600052602260045260246000fd5b50919050565b601f8211156200023157600081815260208120601f850160051c810160208610156200020c5750805b601f850160051c820191505b818110156200022d5782815560010162000218565b5050505b505050565b81516001600160401b0381111562000252576200025262000191565b6200026a81620002638454620001a7565b84620001e3565b602080601f831160018114620002a25760008415620002895750858301515b600019600386901b1c1916600185901b1785556200022d565b600085815260208120601f198616915b82811015620002d357888601518255948401946001909101908401620002b2565b5085821015620002f25787850151600019600388901b60f8161c191681555b5050505050600190811b01905550565b61150580620003126000396000f3fe608060405234801561001057600080fd5b50600436106101215760003560e01c8063715018a6116100ad578063bf5264f311610071578063bf5264f314610257578063c87b56dd1461026a578063cf996ae51461027d578063e985e9c514610290578063f2fde38b146102a357600080fd5b8063715018a6146102105780638da5cb5b1461021857806395d89b4114610229578063a22cb46514610231578063b88d4fde1461024457600080fd5b8063095ea7b3116100f4578063095ea7b3146101af57806323b872dd146101c457806342842e0e146101d75780636352211e146101ea57806370a08231146101fd57600080fd5b806301ffc9a71461012657806306fdde031461014e5780630712249f14610163578063081812fc14610184575b600080fd5b610139610134366004610fd0565b6102b6565b60405190151581526020015b60405180910390f35b6101566102e1565b604051610145919061103d565b6101766101713660046110f8565b610373565b604051908152602001610145565b61019761019236600461115a565b610408565b6040516001600160a01b039091168152602001610145565b6101c26101bd366004611173565b610431565b005b6101c26101d236600461119d565b610440565b6101c26101e536600461119d565b6104cb565b6101976101f836600461115a565b6104eb565b61017661020b3660046111d9565b6104f6565b6101c261053e565b6007546001600160a01b0316610197565b610156610552565b6101c261023f3660046111f4565b610561565b6101c2610252366004611230565b61056c565b600954610197906001600160a01b031681565b61015661027836600461115a565b610584565b6101c261028b3660046111d9565b610695565b61013961029e3660046112ac565b610715565b6101c26102b13660046111d9565b610743565b60006001600160e01b03198216632483248360e11b14806102db57506102db82610781565b92915050565b6060600080546102f0906112df565b80601f016020809104026020016040519081016040528092919081815260200182805461031c906112df565b80156103695780601f1061033e57610100808354040283529160200191610369565b820191906000526020600020905b81548152906001019060200180831161034c57829003601f168201915b5050505050905090565b6009546000906001600160a01b031633146103d55760405162461bcd60e51b815260206004820152601f60248201527f4f6e6c7920646f6e6174696f6e20706c6174666f726d2063616e206d696e740060448201526064015b60405180910390fd5b600880549060006103e583611319565b90915550506008546103f784826107d1565b6104018184610836565b9392505050565b600061041382610886565b506000828152600460205260409020546001600160a01b03166102db565b61043c8282336108bf565b5050565b6001600160a01b03821661046a57604051633250574960e11b8152600060048201526024016103cc565b60006104778383336108cc565b9050836001600160a01b0316816001600160a01b0316146104c5576040516364283d7b60e01b81526001600160a01b03808616600483015260248201849052821660448201526064016103cc565b50505050565b6104e68383836040518060200160405280600081525061056c565b505050565b60006102db82610886565b60006001600160a01b038216610522576040516322718ad960e21b8152600060048201526024016103cc565b506001600160a01b031660009081526003602052604090205490565b6105466109c5565b61055060006109f2565b565b6060600180546102f0906112df565b61043c338383610a44565b610577848484610440565b6104c53385858585610ae3565b606061058f82610886565b50600082815260066020526040812080546105a9906112df565b80601f01602080910402602001604051908101604052809291908181526020018280546105d5906112df565b80156106225780601f106105f757610100808354040283529160200191610622565b820191906000526020600020905b81548152906001019060200180831161060557829003601f168201915b50505050509050600061064060408051602081019091526000815290565b90508051600003610652575092915050565b81511561068457808260405160200161066c929190611340565b60405160208183030381529060405292505050919050565b61068d84610c0e565b949350505050565b61069d6109c5565b6001600160a01b0381166106f35760405162461bcd60e51b815260206004820152601860248201527f496e76616c696420706c6174666f726d2061646472657373000000000000000060448201526064016103cc565b600980546001600160a01b0319166001600160a01b0392909216919091179055565b6001600160a01b03918216600090815260056020908152604080832093909416825291909152205460ff1690565b61074b6109c5565b6001600160a01b03811661077557604051631e4fbdf760e01b8152600060048201526024016103cc565b61077e816109f2565b50565b60006001600160e01b031982166380ac58cd60e01b14806107b257506001600160e01b03198216635b5e139f60e01b145b806102db57506301ffc9a760e01b6001600160e01b03198316146102db565b6001600160a01b0382166107fb57604051633250574960e11b8152600060048201526024016103cc565b6000610809838360006108cc565b90506001600160a01b038116156104e6576040516339e3563760e11b8152600060048201526024016103cc565b600082815260066020526040902061084e82826113b5565b506040518281527ff8e1a15aba9398e019f0b49df1a4fde98ee17ae345cb5f6b5e2c27f5033e8ce79060200160405180910390a15050565b6000818152600260205260408120546001600160a01b0316806102db57604051637e27328960e01b8152600481018490526024016103cc565b6104e68383836001610c82565b6000828152600260205260408120546001600160a01b03908116908316156108f9576108f9818486610d88565b6001600160a01b0381161561093757610916600085600080610c82565b6001600160a01b038116600090815260036020526040902080546000190190555b6001600160a01b03851615610966576001600160a01b0385166000908152600360205260409020805460010190555b60008481526002602052604080822080546001600160a01b0319166001600160a01b0389811691821790925591518793918516917fddf252ad1be2c89b69c2b068fc378daa952ba7f163c4a11628f55a4df523b3ef91a4949350505050565b6007546001600160a01b031633146105505760405163118cdaa760e01b81523360048201526024016103cc565b600780546001600160a01b038381166001600160a01b0319831681179093556040519116919082907f8be0079c531659141344cd1fd0a4f28419497f9722a3daafe3b4186f6b6457e090600090a35050565b6001600160a01b038216610a7657604051630b61174360e31b81526001600160a01b03831660048201526024016103cc565b6001600160a01b03838116600081815260056020908152604080832094871680845294825291829020805460ff191686151590811790915591519182527f17307eab39ab6107e8899845ad3d59bd9653f200f220920489ca2b5937696c31910160405180910390a3505050565b6001600160a01b0383163b15610c0757604051630a85bd0160e11b81526001600160a01b0384169063150b7a0290610b25908890889087908790600401611475565b6020604051808303816000875af1925050508015610b60575060408051601f3d908101601f19168201909252610b5d918101906114b2565b60015b610bc9573d808015610b8e576040519150601f19603f3d011682016040523d82523d6000602084013e610b93565b606091505b508051600003610bc157604051633250574960e11b81526001600160a01b03851660048201526024016103cc565b805181602001fd5b6001600160e01b03198116630a85bd0160e11b14610c0557604051633250574960e11b81526001600160a01b03851660048201526024016103cc565b505b5050505050565b6060610c1982610886565b506000610c3160408051602081019091526000815290565b90506000815111610c515760405180602001604052806000815250610401565b80610c5b84610dec565b604051602001610c6c929190611340565b6040516020818303038152906040529392505050565b8080610c9657506001600160a01b03821615155b15610d58576000610ca684610886565b90506001600160a01b03831615801590610cd25750826001600160a01b0316816001600160a01b031614155b8015610ce55750610ce38184610715565b155b15610d0e5760405163a9fbf51f60e01b81526001600160a01b03841660048201526024016103cc565b8115610d565783856001600160a01b0316826001600160a01b03167f8c5be1e5ebec7d5bd14f71427d1e84f3dd0314c0f7b2291e5b200ac8c7c3b92560405160405180910390a45b505b5050600090815260046020526040902080546001600160a01b0319166001600160a01b0392909216919091179055565b610d93838383610e7f565b6104e6576001600160a01b038316610dc157604051637e27328960e01b8152600481018290526024016103cc565b60405163177e802f60e01b81526001600160a01b0383166004820152602481018290526044016103cc565b60606000610df983610ee2565b600101905060008167ffffffffffffffff811115610e1957610e1961106c565b6040519080825280601f01601f191660200182016040528015610e43576020820181803683370190505b5090508181016020015b600019016f181899199a1a9b1b9c1cb0b131b232b360811b600a86061a8153600a8504945084610e4d57509392505050565b60006001600160a01b0383161580159061068d5750826001600160a01b0316846001600160a01b03161480610eb95750610eb98484610715565b8061068d5750506000908152600460205260409020546001600160a01b03908116911614919050565b60008072184f03e93ff9f4daa797ed6e38ed64bf6a1f0160401b8310610f215772184f03e93ff9f4daa797ed6e38ed64bf6a1f0160401b830492506040015b6d04ee2d6d415b85acef81000000008310610f4d576d04ee2d6d415b85acef8100000000830492506020015b662386f26fc100008310610f6b57662386f26fc10000830492506010015b6305f5e1008310610f83576305f5e100830492506008015b6127108310610f9757612710830492506004015b60648310610fa9576064830492506002015b600a83106102db5760010192915050565b6001600160e01b03198116811461077e57600080fd5b600060208284031215610fe257600080fd5b813561040181610fba565b60005b83811015611008578181015183820152602001610ff0565b50506000910152565b60008151808452611029816020860160208601610fed565b601f01601f19169290920160200192915050565b6020815260006104016020830184611011565b80356001600160a01b038116811461106757600080fd5b919050565b634e487b7160e01b600052604160045260246000fd5b600067ffffffffffffffff8084111561109d5761109d61106c565b604051601f8501601f19908116603f011681019082821181831017156110c5576110c561106c565b816040528093508581528686860111156110de57600080fd5b858560208301376000602087830101525050509392505050565b6000806040838503121561110b57600080fd5b61111483611050565b9150602083013567ffffffffffffffff81111561113057600080fd5b8301601f8101851361114157600080fd5b61115085823560208401611082565b9150509250929050565b60006020828403121561116c57600080fd5b5035919050565b6000806040838503121561118657600080fd5b61118f83611050565b946020939093013593505050565b6000806000606084860312156111b257600080fd5b6111bb84611050565b92506111c960208501611050565b9150604084013590509250925092565b6000602082840312156111eb57600080fd5b61040182611050565b6000806040838503121561120757600080fd5b61121083611050565b91506020830135801515811461122557600080fd5b809150509250929050565b6000806000806080858703121561124657600080fd5b61124f85611050565b935061125d60208601611050565b925060408501359150606085013567ffffffffffffffff81111561128057600080fd5b8501601f8101871361129157600080fd5b6112a087823560208401611082565b91505092959194509250565b600080604083850312156112bf57600080fd5b6112c883611050565b91506112d660208401611050565b90509250929050565b600181811c908216806112f357607f821691505b60208210810361131357634e487b7160e01b600052602260045260246000fd5b50919050565b60006001820161133957634e487b7160e01b600052601160045260246000fd5b5060010190565b60008351611352818460208801610fed565b835190830190611366818360208801610fed565b01949350505050565b601f8211156104e657600081815260208120601f850160051c810160208610156113965750805b601f850160051c820191505b81811015610c05578281556001016113a2565b815167ffffffffffffffff8111156113cf576113cf61106c565b6113e3816113dd84546112df565b8461136f565b602080601f83116001811461141857600084156114005750858301515b600019600386901b1c1916600185901b178555610c05565b600085815260208120601f198616915b8281101561144757888601518255948401946001909101908401611428565b50858210156114655787850151600019600388901b60f8161c191681555b5050505050600190811b01905550565b6001600160a01b03858116825284166020820152604081018390526080606082018190526000906114a890830184611011565b9695505050505050565b6000602082840312156114c457600080fd5b815161040181610fba56fea2646970667358221220dbf006eb9581c63711cb656a1f4f5e7584838740775c3411565f1ad0211a88f364736f6c63430008140033",
  "linkReferences": {},
  "deployedLinkReferences": {}
}