{
  "_format": "hh-sol-artifact-1",
  "contractName": "DonationPlatform",
  "sourceName": "contracts/DonationPlatform.sol",
  "abi": [
    {
      "inputs": [],
      "stateMutability": "nonpayable",
      "type": "constructor"
    },
    {
      "inputs": [
        {
          "internalType": "address",
          "name": "owner",
          "type": "address"
        }
      ],
      "name": "OwnableInvalidOwner",
      "type": "error"
    },
    {
      "inputs": [
        {
          "internalType": "address",
          "name": "account",
          "type": "address"
        }
      ],
      "name": "OwnableUnauthorizedAccount",
      "type": "error"
    },
    {
      "anonymous": false,
      "inputs": [
        {
          "indexed": true,
          "internalType": "uint256",
          "name": "projectId",
          "type": "uint256"
        },
        {
          "indexed": true,
          "internalType": "address",
          "name": "donor",
          "type": "address"
        },
        {
          "indexed": false,
          "internalType": "uint256",
          "name": "amount",
          "type": "uint256"
        },
        {
          "indexed": false,
          "internalType": "bool",
          "name": "isAnonymous",
          "type": "bool"
        }
      ],
      "name": "DonationReceived",
      "type": "event"
    },
    {
      "anonymous": false,
      "inputs": [
        {
          "indexed": true,
          "internalType": "address",
          "name": "donor",
          "type": "address"
        },
        {
          "indexed": false,
          "internalType": "string",
          "name": "name",
          "type": "string"
        }
      ],
      "name": "DonorNameSet",
      "type": "event"
    },
    {
      "anonymous": false,
      "inputs": [
        {
          "indexed": true,
          "internalType": "uint256",
          "name": "projectId",
          "type": "uint256"
        },
        {
          "indexed": false,
          "internalType": "address",
          "name": "recipient",
          "type": "address"
        },
        {
          "indexed": false,
          "internalType": "uint256",
          "name": "amount",
          "type": "uint256"
        }
      ],
      "name": "FundsWithdrawn",
      "type": "event"
    },
    {
      "anonymous": false,
      "inputs": [
        {
          "indexed": true,
          "internalType": "address",
          "name": "previousOwner",
          "type": "address"
        },
        {
          "indexed": true,
          "internalType": "address",
          "name": "newOwner",
          "type": "address"
        }
      ],
      "name": "OwnershipTransferred",
      "type": "event"
    },
    {
      "anonymous": false,
      "inputs": [
        {
          "indexed": true,
          "internalType": "uint256",
          "name": "projectId",
          "type": "uint256"
        }
      ],
      "name": "ProjectCancelled",
      "type": "event"
    },
    {
      "anonymous": false,
      "inputs": [
        {
          "indexed": true,
          "internalType": "uint256",
          "name": "projectId",
          "type": "uint256"
        },
        {
          "indexed": false,
          "internalType": "string",
          "name": "name",
          "type": "string"
        },
        {
          "indexed": false,
          "internalType": "address",
          "name": "recipient",
          "type": "address"
        },
        {
          "indexed": false,
          "internalType": "uint256",
          "name": "targetAmount",
          "type": "uint256"
        },
        {
          "indexed": false,
          "internalType": "uint256",
          "name": "deadline",
          "type": "uint256"
        }
      ],
      "name": "ProjectCreated",
      "type": "event"
    },
    {
      "anonymous": false,
      "inputs": [
        {
          "indexed": true,
          "internalType": "uint256",
          "name": "projectId",
          "type": "uint256"
        },
        {
          "indexed": false,
          "internalType": "uint256",
          "name": "newDeadline",
          "type": "uint256"
        }
      ],
      "name": "ProjectDeadlineExtended",
      "type": "event"
    },
    {
      "anonymous": false,
      "inputs": [
        {
          "indexed": true,
          "internalType": "uint256",
          "name": "projectId",
          "type": "uint256"
        },
        {
          "indexed": false,
          "internalType": "bool",
          "name": "isActive",
          "type": "bool"
        }
      ],
      "name": "ProjectStatusToggled",
      "type": "event"
    },
    {
      "anonymous": false,
      "inputs": [
        {
          "indexed": true,
          "internalType": "uint256",
          "name": "projectId",
          "type": "uint256"
        },
        {
          "indexed": false,
          "internalType": "uint256",
          "name": "newTarget",
          "type": "uint256"
        }
      ],
      "name": "ProjectTargetIncreased",
      "type": "event"
    },
    {
      "anonymous": false,
      "inputs": [
        {
          "indexed": true,
          "internalType": "uint256",
          "name": "requestId",
          "type": "uint256"
        },
        {
          "indexed": false,
          "internalType": "uint256",
          "name": "projectId",
          "type": "uint256"
        },
        {
          "indexed": false,
          "internalType": "uint256",
          "name": "amount",
          "type": "uint256"
        }
      ],
      "name": "WithdrawalRequested",
      "type": "event"
    },
    {
      "inputs": [],
      "name": "WITHDRAWAL_TIMELOCK",
      "outputs": [
        {
          "internalType": "uint256",
          "name": "",
          "type": "uint256"
        }
      ],
      "stateMutability": "view",
      "type": "function"
    },
    {
      "inputs": [
        {
          "internalType": "uint256",
          "name": "_projectId",
          "type": "uint256"
        }
      ],
      "name": "cancelProjectAndRefund",
      "outputs": [],
      "stateMutability": "nonpayable",
      "type": "function"
    },
    {
      "inputs": [
        {
          "internalType": "string",
          "name": "_name",
          "type": "string"
        },
        {
          "internalType": "string",
          "name": "_description",
          "type": "string"
        },
        {
          "internalType": "address payable",
          "name": "_recipient",
          "type": "address"
        },
        {
          "internalType": "uint256",
          "name": "_targetAmount",
          "type": "uint256"
        },
        {
          "internalType": "uint256",
          "name": "_deadline",
          "type": "uint256"
        }
      ],
      "name": "createProject",
      "outputs": [
        {
          "internalType": "uint256",
          "name": "",
          "type": "uint256"
        }
      ],
      "stateMutability": "nonpayable",
      "type": "function"
    },
    {
      "inputs": [
        {
          "internalType": "uint256",
          "name": "_projectId",
          "type": "uint256"
        },
        {
          "internalType": "bool",
          "name": "_isAnonymous",
          "type": "bool"
        }
      ],
      "name": "donate",
      "outputs": [],
      "stateMutability": "payable",
      "type": "function"
    },
    {
      "inputs": [],
      "name": "donationCertificate",
      "outputs": [
        {
          "internalType": "contract IDonationCertificate",
          "name": "",
          "type": "address"
        }
      ],
      "stateMutability": "view",
      "type": "function"
    },
    {
      "inputs": [],
      "name": "donationToken",
      "outputs": [
        {
          "internalType": "contract IDonationToken",
          "name": "",
          "type": "address"
        }
      ],
      "stateMutability": "view",
      "type": "function"
    },
    {
      "inputs": [
        {
          "internalType": "address",
          "name": "",
          "type": "address"
        }
      ],
      "name": "donors",
      "outputs": [
        {
          "internalType": "string",
          "name": "name",
          "type": "string"
        },
        {
          "internalType": "uint256",
          "name": "totalDonated",
          "type": "uint256"
        },
        {
          "internalType": "bool",
          "name": "hasSetName",
          "type": "bool"
        }
      ],
      "stateMutability": "view",
      "type": "function"
    },
    {
      "inputs": [],
      "name": "emergencyWithdraw",
      "outputs": [],
      "stateMutability": "nonpayable",
      "type": "function"
    },
    {
      "inputs": [
        {
          "internalType": "uint256",
          "name": "_requestId",
          "type": "uint256"
        }
      ],
      "name": "executeWithdrawal",
      "outputs": [],
      "stateMutability": "nonpayable",
      "type": "function"
    },
    {
      "inputs": [
        {
          "internalType": "uint256",
          "name": "_projectId",
          "type": "uint256"
        },
        {
          "internalType": "uint256",
          "name": "_newDeadline",
          "type": "uint256"
        }
      ],
      "name": "extendProjectDeadline",
      "outputs": [],
      "stateMutability": "nonpayable",
      "type": "function"
    },
    {
      "inputs": [
        {
          "internalType": "uint256",
          "name": "_offset",
          "type": "uint256"
        },
        {
          "internalType": "uint256",
          "name": "_limit",
          "type": "uint256"
        }
      ],
      "name": "getActiveProjects",
      "outputs": [
        {
          "internalType": "uint256[]",
          "name": "projectIds",
          "type": "uint256[]"
        },
        {
          "internalType": "string[]",
          "name": "names",
          "type": "string[]"
        },
        {
          "internalType": "uint256[]",
          "name": "targetAmounts",
          "type": "uint256[]"
        },
        {
          "internalType": "uint256[]",
          "name": "raisedAmounts",
          "type": "uint256[]"
        },
        {
          "internalType": "uint256[]",
          "name": "deadlines",
          "type": "uint256[]"
        }
      ],
      "stateMutability": "view",
      "type": "function"
    },
    {
      "inputs": [
        {
          "internalType": "address",
          "name": "_donor",
          "type": "address"
        }
      ],
      "name": "getDonorInfo",
      "outputs": [
        {
          "internalType": "string",
          "name": "name",
          "type": "string"
        },
        {
          "internalType": "uint256",
          "name": "totalDonated",
          "type": "uint256"
        },
        {
          "internalType": "uint256[]",
          "name": "donatedProjects",
          "type": "uint256[]"
        },
        {
          "internalType": "bool",
          "name": "hasSetName",
          "type": "bool"
        }
      ],
      "stateMutability": "view",
      "type": "function"
    },
    {
      "inputs": [
        {
          "internalType": "uint256",
          "name": "_projectId",
          "type": "uint256"
        }
      ],
      "name": "getProjectDetails",
      "outputs": [
        {
          "internalType": "string",
          "name": "name",
          "type": "string"
        },
        {
          "internalType": "string",
          "name": "description",
          "type": "string"
        },
        {
          "internalType": "address",
          "name": "recipient",
          "type": "address"
        },
        {
          "internalType": "uint256",
          "name": "targetAmount",
          "type": "uint256"
        },
        {
          "internalType": "uint256",
          "name": "raisedAmount",
          "type": "uint256"
        },
        {
          "internalType": "bool",
          "name": "isActive",
          "type": "bool"
        },
        {
          "internalType": "uint256",
          "name": "deadline",
          "type": "uint256"
        },
        {
          "internalType": "uint256",
          "name": "createTime",
          "type": "uint256"
        },
        {
          "internalType": "uint256",
          "name": "uniqueDonorCount",
          "type": "uint256"
        }
      ],
      "stateMutability": "view",
      "type": "function"
    },
    {
      "inputs": [
        {
          "internalType": "uint256",
          "name": "_projectId",
          "type": "uint256"
        },
        {
          "internalType": "uint256",
          "name": "_offset",
          "type": "uint256"
        },
        {
          "internalType": "uint256",
          "name": "_limit",
          "type": "uint256"
        }
      ],
      "name": "getProjectDonations",
      "outputs": [
        {
          "internalType": "address[]",
          "name": "donors",
          "type": "address[]"
        },
        {
          "internalType": "uint256[]",
          "name": "amounts",
          "type": "uint256[]"
        },
        {
          "internalType": "uint256[]",
          "name": "timestamps",
          "type": "uint256[]"
        },
        {
          "internalType": "bool[]",
          "name": "anonymousFlags",
          "type": "bool[]"
        }
      ],
      "stateMutability": "view",
      "type": "function"
    },
    {
      "inputs": [
        {
          "internalType": "uint256",
          "name": "_projectId",
          "type": "uint256"
        },
        {
          "internalType": "uint256",
          "name": "_newTarget",
          "type": "uint256"
        }
      ],
      "name": "increaseProjectTarget",
      "outputs": [],
      "stateMutability": "nonpayable",
      "type": "function"
    },
    {
      "inputs": [],
      "name": "owner",
      "outputs": [
        {
          "internalType": "address",
          "name": "",
          "type": "address"
        }
      ],
      "stateMutability": "view",
      "type": "function"
    },
    {
      "inputs": [],
      "name": "platformFeePercent",
      "outputs": [
        {
          "internalType": "uint256",
          "name": "",
          "type": "uint256"
        }
      ],
      "stateMutability": "view",
      "type": "function"
    },
    {
      "inputs": [],
      "name": "platformFeeRecipient",
      "outputs": [
        {
          "internalType": "address",
          "name": "",
          "type": "address"
        }
      ],
      "stateMutability": "view",
      "type": "function"
    },
    {
      "inputs": [],
      "name": "projectCount",
      "outputs": [
        {
          "internalType": "uint256",
          "name": "",
          "type": "uint256"
        }
      ],
      "stateMutability": "view",
      "type": "function"
    },
    {
      "inputs": [
        {
          "internalType": "uint256",
          "name": "",
          "type": "uint256"
        },
        {
          "internalType": "uint256",
          "name": "",
          "type": "uint256"
        }
      ],
      "name": "projectDonations",
      "outputs": [
        {
          "internalType": "address",
          "name": "donor",
          "type": "address"
        },
        {
          "internalType": "uint256",
          "name": "projectId",
          "type": "uint256"
        },
        {
          "internalType": "uint256",
          "name": "amount",
          "type": "uint256"
        },
        {
          "internalType": "uint256",
          "name": "timestamp",
          "type": "uint256"
        },
        {
          "internalType": "bool",
          "name": "isAnonymous",
          "type": "bool"
        }
      ],
      "stateMutability": "view",
      "type": "function"
    },
    {
      "inputs": [
        {
          "internalType": "uint256",
          "name": "",
          "type": "uint256"
        }
      ],
      "name": "projects",
      "outputs": [
        {
          "internalType": "address payable",
          "name": "recipient",
          "type": "address"
        },
        {
          "internalType": "string",
          "name": "name",
          "type": "string"
        },
        {
          "internalType": "string",
          "name": "description",
          "type": "string"
        },
        {
          "internalType": "uint256",
          "name": "targetAmount",
          "type": "uint256"
        },
        {
          "internalType": "uint256",
          "name": "raisedAmount",
          "type": "uint256"
        },
        {
          "internalType": "bool",
          "name": "isActive",
          "type": "bool"
        },
        {
          "internalType": "uint256",
          "name": "deadline",
          "type": "uint256"
        },
        {
          "internalType": "uint256",
          "name": "createTime",
          "type": "uint256"
        },
        {
          "internalType": "uint256",
          "name": "uniqueDonorCount",
          "type": "uint256"
        }
      ],
      "stateMutability": "view",
      "type": "function"
    },
    {
      "inputs": [],
      "name": "renounceOwnership",
      "outputs": [],
      "stateMutability": "nonpayable",
      "type": "function"
    },
    {
      "inputs": [
        {
          "internalType": "uint256",
          "name": "_projectId",
          "type": "uint256"
        },
        {
          "internalType": "uint256",
          "name": "_amount",
          "type": "uint256"
        }
      ],
      "name": "requestWithdrawal",
      "outputs": [],
      "stateMutability": "nonpayable",
      "type": "function"
    },
    {
      "inputs": [
        {
          "internalType": "address",
          "name": "_certAddress",
          "type": "address"
        }
      ],
      "name": "setDonationCertificate",
      "outputs": [],
      "stateMutability": "nonpayable",
      "type": "function"
    },
    {
      "inputs": [
        {
          "internalType": "address",
          "name": "_tokenAddress",
          "type": "address"
        }
      ],
      "name": "setDonationToken",
      "outputs": [],
      "stateMutability": "nonpayable",
      "type": "function"
    },
    {
      "inputs": [
        {
          "internalType": "string",
          "name": "_name",
          "type": "string"
        }
      ],
      "name": "setDonorName",
      "outputs": [],
      "stateMutability": "nonpayable",
      "type": "function"
    },
    {
      "inputs": [
        {
          "internalType": "uint256",
          "name": "_feePercent",
          "type": "uint256"
        }
      ],
      "name": "setPlatformFee",
      "outputs": [],
      "stateMutability": "nonpayable",
      "type": "function"
    },
    {
      "inputs": [
        {
          "internalType": "address",
          "name": "_recipient",
          "type": "address"
        }
      ],
      "name": "setPlatformFeeRecipient",
      "outputs": [],
      "stateMutability": "nonpayable",
      "type": "function"
    },
    {
      "inputs": [
        {
          "internalType": "uint256",
          "name": "_projectId",
          "type": "uint256"
        }
      ],
      "name": "toggleProjectStatus",
      "outputs": [],
      "stateMutability": "nonpayable",
      "type": "function"
    },
    {
      "inputs": [],
      "name": "totalDonations",
      "outputs": [
        {
          "internalType": "uint256",
          "name": "",
          "type": "uint256"
        }
      ],
      "stateMutability": "view",
      "type": "function"
    },
    {
      "inputs": [
        {
          "internalType": "address",
          "name": "newOwner",
          "type": "address"
        }
      ],
      "name": "transferOwnership",
      "outputs": [],
      "stateMutability": "nonpayable",
      "type": "function"
    },
    {
      "inputs": [],
      "name": "withdrawalRequestCount",
      "outputs": [
        {
          "internalType": "uint256",
          "name": "",
          "type": "uint256"
        }
      ],
      "stateMutability": "view",
      "type": "function"
    },
    {
      "inputs": [
        {
          "internalType": "uint256",
          "name": "",
          "type": "uint256"
        }
      ],
      "name": "withdrawalRequests",
      "outputs": [
        {
          "internalType": "uint256",
          "name": "projectId",
          "type": "uint256"
        },
        {
          "internalType": "uint256",
          "name": "amount",
          "type": "uint256"
        },
        {
          "internalType": "uint256",
          "name": "requestTime",
          "type": "uint256"
        },
        {
          "internalType": "bool",
          "name": "executed",
          "type": "bool"
        }
      ],
      "stateMutability": "view",
      "type": "function"
    },
    {
      "stateMutability": "payable",
      "type": "receive"
    }
  ],
  "bytecode": "0x6080604052600280553480156200001557600080fd5b5033806200003d57604051631e4fbdf760e01b81526000600482015260240160405180910390fd5b620000488162000070565b50600180546001600160a01b03191633179055600060048190556005819055600655620000c0565b600080546001600160a01b038381166001600160a01b0319831681178455604051919092169283917f8be0079c531659141344cd1fd0a4f28419497f9722a3daafe3b4186f6b6457e09190a35050565b612fe080620000d06000396000f3fe6080604052600436106101f25760003560e01c80638b8a417e1161010d578063c56f3cac116100a0578063db2e21bc1161006f578063db2e21bc14610667578063de2ed8931461067c578063eb13554f14610692578063f2fde38b146106b2578063f5cd8acf146106d257600080fd5b8063c56f3cac146105b1578063ca0cdea814610605578063ca6a04a514610634578063d49335cf1461064757600080fd5b8063ae2ebd7f116100dc578063ae2ebd7f14610511578063b7ed2f1614610531578063bfb695a214610561578063c46a60a51461058157600080fd5b80638b8a417e146104565780638c639a85146104765780638da5cb5b1461048c578063937b2581146104aa57600080fd5b806324f13a761161018557806345ce0a0c1161015457806345ce0a0c146103d55780634d439485146103f55780635f8439e31461040c578063715018a61461044157600080fd5b806324f13a761461035f57806325c18fd91461037f578063346079941461039f57806336fbad26146103bf57600080fd5b80631871e243116101c15780631871e243146102ca57806319e44e32146102ea5780632177fa3b1461030e578063239c5ed81461032e57600080fd5b80630df72159146102165780630e7e846f14610253578063107046bd1461027357806312e8e2c3146102a857600080fd5b366102115734600460008282546102099190612759565b925050819055005b600080fd5b34801561022257600080fd5b50600b54610236906001600160a01b031681565b6040516001600160a01b0390911681526020015b60405180910390f35b34801561025f57600080fd5b50600c54610236906001600160a01b031681565b34801561027f57600080fd5b5061029361028e366004612772565b6106f2565b60405161024a999897969594939291906127d1565b3480156102b457600080fd5b506102c86102c3366004612772565b61085a565b005b3480156102d657600080fd5b506102c86102e5366004612854565b6108d8565b3480156102f657600080fd5b5061030060065481565b60405190815260200161024a565b34801561031a57600080fd5b5061030061032936600461291a565b610967565b34801561033a57600080fd5b5061034e6103493660046129a1565b6109e5565b60405161024a9594939291906129fe565b34801561036b57600080fd5b506102c861037a366004612772565b610a0f565b34801561038b57600080fd5b506102c861039a366004612772565b610b06565b3480156103ab57600080fd5b506102c86103ba366004612aad565b610b77565b3480156103cb57600080fd5b5061030060055481565b3480156103e157600080fd5b506102c86103f0366004612854565b610bdf565b34801561040157600080fd5b506103006201518081565b34801561041857600080fd5b5061042c610427366004612772565b610c09565b60405161024a99989796959493929190612ae9565b34801561044d57600080fd5b506102c8610c6e565b34801561046257600080fd5b506102c8610471366004612772565b610c82565b34801561048257600080fd5b5061030060025481565b34801561049857600080fd5b506000546001600160a01b0316610236565b3480156104b657600080fd5b506104ef6104c5366004612772565b600a6020526000908152604090208054600182015460028301546003909301549192909160ff1684565b604080519485526020850193909352918301521515606082015260800161024a565b34801561051d57600080fd5b506102c861052c3660046129a1565b610cee565b34801561053d57600080fd5b5061055161054c366004612b53565b610e36565b60405161024a9493929190612b7f565b34801561056d57600080fd5b506102c861057c3660046129a1565b610e88565b34801561058d57600080fd5b506105a161059c366004612854565b610ed1565b60405161024a9493929190612c2f565b3480156105bd57600080fd5b506105d16105cc3660046129a1565b610ef3565b604080516001600160a01b03909616865260208601949094529284019190915260608301521515608082015260a00161024a565b34801561061157600080fd5b50610625610620366004612854565b610f4e565b60405161024a93929190612c6e565b6102c8610642366004612c98565b610ffc565b34801561065357600080fd5b506102c86106623660046129a1565b61126a565b34801561067357600080fd5b506102c86112b3565b34801561068857600080fd5b5061030060045481565b34801561069e57600080fd5b50600154610236906001600160a01b031681565b3480156106be57600080fd5b506102c86106cd366004612854565b6112d6565b3480156106de57600080fd5b506102c86106ed366004612854565b611314565b600760205260009081526040902080546001820180546001600160a01b03909216929161071e90612ccd565b80601f016020809104026020016040519081016040528092919081815260200182805461074a90612ccd565b80156107975780601f1061076c57610100808354040283529160200191610797565b820191906000526020600020905b81548152906001019060200180831161077a57829003601f168201915b5050505050908060020180546107ac90612ccd565b80601f01602080910402602001604051908101604052809291908181526020018280546107d890612ccd565b80156108255780601f106107fa57610100808354040283529160200191610825565b820191906000526020600020905b81548152906001019060200180831161080857829003601f168201915b505050600384015460048501546005860154600687015460078801546009909801549697939692955060ff9091169350919089565b61086261133e565b600a8111156108d35760405162461bcd60e51b815260206004820152603260248201527fec9ab4ec9881ec8898ec8898eba38ceb8a9420313025eba5bc20eb8498eab8b86044820152711076444c10764bc376455af5c5c475c5d21760711b60648201526084015b60405180910390fd5b600255565b6108e061133e565b6001600160a01b0381166109455760405162461bcd60e51b815260206004820152602660248201527feca3bcec868ceb8a9420307830ec9db420eb90a020ec889820ec9786ec8ab5eb60448201526545c475c5d21760d11b60648201526084016108ca565b600180546001600160a01b0319166001600160a01b0392909216919091179055565b600061097161133e565b6005805490600061098183612d07565b91905055506109986007600554888888888861136b565b6005547fcfbb9cc3bd62a88127a0a357ef5745ce183a4f314f3f36a4302bbe74b89e2f1d878686866040516109d09493929190612d20565b60405180910390a25060055495945050505050565b60608060608060606109fc60076005548989611521565b939b929a50909850965090945092505050565b600081118015610a2157506006548111155b610a625760405162461bcd60e51b8152602060048201526012602482015271125b9d985b1a59081c995c5d595cdd08125160721b60448201526064016108ca565b600080610a72600a6007856118ef565b60405191935091506001600160a01b0383169082156108fc029083906000818181858888f19350505050158015610aad573d6000803e3d6000fd5b506000838152600a60209081526040918290205482516001600160a01b0386168152918201849052917ff440aec6b52895984d061d622e6edeba6210f7c3e059be920663140c084560d7910160405180910390a2505050565b610b0e61133e565b600081118015610b2057506005548111155b610b3c5760405162461bcd60e51b81526004016108ca90612d58565b610b496007600983611a9b565b60405181907fe3805ed669490875ae87c5c8b1ad6ecca0e5e67305a833926d0d4317c4822fc090600090a250565b33600090815260086020526040902080610b918382612dd2565b5060038101805460ff1916600117905560405133907f6ebd23a091102463b23a2db17ab59d36bc585c8b1bf547c582888749088c024b90610bd3908590612e91565b60405180910390a25050565b610be761133e565b600b80546001600160a01b0319166001600160a01b0392909216919091179055565b6060806000806000806000806000808a118015610c2857506005548a11155b610c445760405162461bcd60e51b81526004016108ca90612d58565b610c4f60078b611bd9565b9850985098509850985098509850985098509193959799909294969850565b610c7661133e565b610c806000611d72565b565b610c8a61133e565b610c98600782600554611dc2565b6000818152600760205260409081902060050154905182917f7cd9ab773996c5e71ea50af00515e2f279d59a598959e73d68b7d4cad937cd2591610ce39160ff161515815260200190565b60405180910390a250565b600082118015610d0057506005548211155b610d5c5760405162461bcd60e51b815260206004820152602760248201527f70726f6a6563744944eba5bc20ebb094eba5b4eab28c20ec9e85eba0a5ed959860448201526676425c764d4a1760c91b60648201526084016108ca565b6000828152600760205260409020546001600160a01b0316331480610d8b57506000546001600160a01b031633145b610dd75760405162461bcd60e51b815260206004820152601e60248201527fec9db8ecb69c20eab68ced959cec9db420ec9786ec8ab5eb8b88eb8ba42e000060448201526064016108ca565b60068054906000610de783612d07565b9190505550610dfd6007600a6006548585611e59565b60065460408051848152602081018490527f09d828bc6585cea40a1c1b428245be880262a626ee4da48d49c97a302ae4017f9101610bd3565b606080606080600087118015610e4e57506005548711155b610e6a5760405162461bcd60e51b81526004016108ca90612d58565b610e776009888888611f43565b935093509350935093509350935093565b610e9061133e565b610e9f600783836005546121ad565b817fc5f80d5c6f5783134d07c9a7e81d6609025f09ac5c2ac5abdd3803d2a6bce29682604051610bd391815260200190565b6060600060606000610ee46008866122f0565b93509350935093509193509193565b60096020528160005260406000208181548110610f0f57600080fd5b6000918252602090912060059091020180546001820154600283015460038401546004909401546001600160a01b039093169550909350919060ff1685565b600860205260009081526040902080548190610f6990612ccd565b80601f0160208091040260200160405190810160405280929190818152602001828054610f9590612ccd565b8015610fe25780601f10610fb757610100808354040283529160200191610fe2565b820191906000526020600020905b815481529060010190602001808311610fc557829003601f168201915b50505050600183015460039093015491929160ff16905083565b60008211801561100e57506005548211155b61106a5760405162461bcd60e51b815260206004820152602760248201527feca1b4ec9eaced9598eca78020ec958aeb8a942070726f6a6563744964ec9e8560448201526675c5c475c5d21760c91b60648201526084016108ca565b60008281526007602052604090206005015460ff166110e15760405162461bcd60e51b815260206004820152602d60248201527fed9884ec9eac20ecbaa0ed8e98ec9db8ec9db420ebb984ed999cec84b1ec838160448201526c76c1ce764f42f5c5c475c5d21760991b60648201526084016108ca565b6000828152600760205260409020600601544211156111585760405162461bcd60e51b815260206004820152602d60248201527fecbaa0ed8e98ec9db8ec9db420ec9db4ebafb820eba78ceba38ceba38ceb909860448201526c764bc476455af5c5c475c5d21760991b60648201526084016108ca565b600034116111ba5760405162461bcd60e51b815260206004820152602960248201527feab8b0ebb680eab888ec9d802030657468ebb3b4eb8ba420ecbba4ec95bc20ed6044820152684ad4f5c5c475c5d21760b91b60648201526084016108ca565b60006064600254346111cc9190612ea4565b6111d69190612ebb565b905060006111e48234612edd565b905061120f60076008600987873387600160009054906101000a90046001600160a01b03168a61241a565b80600460008282546112219190612759565b9091555050604080518281528415156020820152339186917f492c78b519f1197017a41990501e8c48f80a775c8d084f1370bc3cdbe8a58bd0910160405180910390a350505050565b61127261133e565b6112816007838360055461262d565b817fe3935a56bdb77841c8f7679b73dc0dc35eeb647de58f6bd32e0709411c5d7b7982604051610bd391815260200190565b6112bb61133e565b610c806112d06000546001600160a01b031690565b47612708565b6112de61133e565b6001600160a01b03811661130857604051631e4fbdf760e01b8152600060048201526024016108ca565b61131181611d72565b50565b61131c61133e565b600c80546001600160a01b0319166001600160a01b0392909216919091179055565b6000546001600160a01b03163314610c805760405163118cdaa760e01b81523360048201526024016108ca565b600082116113d05760405162461bcd60e51b815260206004820152602c60248201527febaaa9ed919c20eab8b0ebb68020eab888ec95a1ec9d802030657468ec9db4ec60448201526b41c0f64f42f5c5c475c5d21760a11b60648201526084016108ca565b4281116114365760405162461bcd60e51b815260206004820152602e60248201527feab8b0ebb68020eba788eab090ec9dbcec9d8420eb8ba4ec8b9c20ed9995ec9d60448201526d5c76cada7651de76425c764d4a1760911b60648201526084016108ca565b6001600160a01b0383166114a15760405162461bcd60e51b815260206004820152602c60248201527fecbaa0ed8e98ec9db820eca3bcec868ceb8a9420307830ec9dbc20ec889820ec60448201526b4bc376455af5c5c475c5d21760a11b60648201526084016108ca565b600086815260208890526040902080546001600160a01b0319166001600160a01b038516178155600181016114d68782612dd2565b50600281016114e58682612dd2565b50600381019290925560006004830181905560058301805460ff1916600117905560068301919091554260078301556009909101555050505050565b606080808080600060015b89811161156d57600081815260208c9052604090206005015460ff161561155b578161155781612d07565b9250505b8061156581612d07565b91505061152c565b508681891061157e5750600061159c565b81611589898b612759565b111561159c576115998983612edd565b90505b806001600160401b038111156115b4576115b4612878565b6040519080825280602002602001820160405280156115dd578160200160208202803683370190505b509650806001600160401b038111156115f8576115f8612878565b60405190808252806020026020018201604052801561162b57816020015b60608152602001906001900390816116165790505b509550806001600160401b0381111561164657611646612878565b60405190808252806020026020018201604052801561166f578160200160208202803683370190505b509450806001600160401b0381111561168a5761168a612878565b6040519080825280602002602001820160405280156116b3578160200160208202803683370190505b509350806001600160401b038111156116ce576116ce612878565b6040519080825280602002602001820160405280156116f7578160200160208202803683370190505b50925080156118e25760008060015b8c811115801561171557508382105b156118de57600081815260208f9052604090206005015460ff16156118cc578b83106118be57808a838151811061174e5761174e612ef0565b6020026020010181815250508d6000828152602001908152602001600020600101805461177a90612ccd565b80601f01602080910402602001604051908101604052809291908181526020018280546117a690612ccd565b80156117f35780601f106117c8576101008083540402835291602001916117f3565b820191906000526020600020905b8154815290600101906020018083116117d657829003601f168201915b505050505089838151811061180a5761180a612ef0565b60200260200101819052508d60008281526020019081526020016000206003015488838151811061183d5761183d612ef0565b6020026020010181815250508d60008281526020019081526020016000206004015487838151811061187157611871612ef0565b6020026020010181815250508d6000828152602001908152602001600020600601548683815181106118a5576118a5612ef0565b6020908102919091010152816118ba81612d07565b9250505b826118c881612d07565b9350505b806118d681612d07565b915050611706565b5050505b5050945094509450945094565b600354600090819060ff16156119175760405162461bcd60e51b81526004016108ca90612f06565b6003805460ff1916600117815560008481526020879052604090209081015460ff16156119865760405162461bcd60e51b815260206004820152601860248201527f5265717565737420616c7265616479206578656375746564000000000000000060448201526064016108ca565b6201518081600201546119999190612759565b4210156119e85760405162461bcd60e51b815260206004820152601a60248201527f54696d656c6f636b20706572696f64206e6f742070617373656400000000000060448201526064016108ca565b80546000908152602086905260409020600481015460018301541115611a455760405162461bcd60e51b8152602060048201526012602482015271496e73756666696369656e742066756e647360701b60448201526064016108ca565b60038201805460ff19166001908117909155820154600482018054600090611a6e908490612edd565b909155505054600191909101546003805460ff191690556001600160a01b03909116969095509350505050565b60035460ff1615611abe5760405162461bcd60e51b81526004016108ca90612f06565b6003805460ff191660011790556000818152602084905260409020600581015460ff16611b255760405162461bcd60e51b815260206004820152601560248201527450726f6a656374206973206e6f742061637469766560581b60448201526064016108ca565b60058101805460ff191690556000828152602084905260408120905b8154811015611bc0576000828281548110611b5e57611b5e612ef0565b600091825260208220600590910201805460028201546040519294506001600160a01b039091169281156108fc029290818181858888f19350505050158015611bab573d6000803e3d6000fd5b50508080611bb890612d07565b915050611b41565b5050600060049091015550506003805460ff1916905550565b6000818152602083905260408120805460038201546004830154600584015460068501546007860154600987015460018801805460609a8b9a90998a998a998a998a998a998a9996989760028a01976001600160a01b039097169660ff90941693908990611c4690612ccd565b80601f0160208091040260200160405190810160405280929190818152602001828054611c7290612ccd565b8015611cbf5780601f10611c9457610100808354040283529160200191611cbf565b820191906000526020600020905b815481529060010190602001808311611ca257829003601f168201915b50505050509850878054611cd290612ccd565b80601f0160208091040260200160405190810160405280929190818152602001828054611cfe90612ccd565b8015611d4b5780601f10611d2057610100808354040283529160200191611d4b565b820191906000526020600020905b815481529060010190602001808311611d2e57829003601f168201915b50505050509750995099509950995099509950995099509950509295985092959850929598565b600080546001600160a01b038381166001600160a01b0319831681178455604051919092169283917f8be0079c531659141344cd1fd0a4f28419497f9722a3daafe3b4186f6b6457e09190a35050565b600082118015611dd25750808211155b611e345760405162461bcd60e51b815260206004820152602d60248201527fed9484eba19ceca09ded8ab8206964eba5bc20eb8ba4ec8b9c20ec9e85eba0a560448201526c76cada7651de76425c764d4a1760991b60648201526084016108ca565b50600090815260209190915260409020600501805460ff19811660ff90911615179055565b60035460ff1615611e7c5760405162461bcd60e51b81526004016108ca90612f06565b6003805460ff1916600117905560008281526020869052604090208115801590611eaa575080600401548211155b611ee75760405162461bcd60e51b815260206004820152600e60248201526d125b9d985b1a5908185b5bdd5b9d60921b60448201526064016108ca565b50604080516080810182529283526020808401928352428483019081526000606086018181529681529690915294209151825551600182015591516002830155516003918201805491151560ff19928316179055815416905550565b600083815260208590526040902080546060918291829182918690611f68828a612759565b1115611f8d5781548810611f7d576000611f8a565b8154611f8a908990612edd565b90505b806001600160401b03811115611fa557611fa5612878565b604051908082528060200260200182016040528015611fce578160200160208202803683370190505b509550806001600160401b03811115611fe957611fe9612878565b604051908082528060200260200182016040528015612012578160200160208202803683370190505b509450806001600160401b0381111561202d5761202d612878565b604051908082528060200260200182016040528015612056578160200160208202803683370190505b509350806001600160401b0381111561207157612071612878565b60405190808252806020026020018201604052801561209a578160200160208202803683370190505b50925060005b8181101561219f576000836120b5838c612759565b815481106120c5576120c5612ef0565b60009182526020909120600590910201805489519192506001600160a01b0316908990849081106120f8576120f8612ef0565b60200260200101906001600160a01b031690816001600160a01b031681525050806002015487838151811061212f5761212f612ef0565b602002602001018181525050806003015486838151811061215257612152612ef0565b60209081029190910101526004810154855160ff9091169086908490811061217c5761217c612ef0565b91151560209283029190910190910152508061219781612d07565b9150506120a0565b505050945094509450949050565b6000831180156121bd5750808311155b6121d95760405162461bcd60e51b81526004016108ca90612f63565b4282116122455760405162461bcd60e51b815260206004820152603460248201527fec97b0ec9ea5eb909c20eba788eab090ec9dbc20ec9e85eba0a5ec9db420ec9e6044820152734c75d55df5c84c764bc476455af5c5c475c5d21760611b60648201526084016108ca565b60008381526020859052604090206006015482116122da5760405162461bcd60e51b815260206004820152604660248201527fec97b0ec9ea5eb909c20eba788eab090ec9dbcec9d8020ec97b0ec9ea520eca060448201527f8420eba788eab090ec9dbcebb3b4eb8ba420eab8b8ec96b4ec95bc20ed95a9eb60648201526545c475c5d21760d11b608482015260a4016108ca565b5060009182526020929092526040902060060155565b6001600160a01b0381166000908152602083905260408120600181015460038201548254606094938593859391928392600284019160ff90911690849061233690612ccd565b80601f016020809104026020016040519081016040528092919081815260200182805461236290612ccd565b80156123af5780601f10612384576101008083540402835291602001916123af565b820191906000526020600020905b81548152906001019060200180831161239257829003601f168201915b505050505093508180548060200260200160405190810160405280929190818152602001828054801561240157602002820191906000526020600020905b8154815260200190600101908083116123ed575b5050505050915094509450945094505092959194509250565b60035460ff161561243d5760405162461bcd60e51b81526004016108ca90612f06565b6003805460ff191660011790558015612488576040516001600160a01b0383169082156108fc029083906000818181858888f19350505050158015612486573d6000803e3d6000fd5b505b600086815260208a905260408120600481018054919286926124ab908490612759565b90915550506001600160a01b038516600090815260208a905260408120600181018054919287926124dd908490612759565b90915550506001600160a01b038616600090815260088301602052604090205460ff166125595760028101805460018181018355600092835260208084209092018b90556001600160a01b03891683526008850190915260408220805460ff191690911790556009830180549161255383612d07565b91905055505b600088815260208a81526040808320815160a0810183526001600160a01b038b811682528185018e81529382018b815242606084019081528e151560808501908152855460018082018855968a52979098209351600590970290930180546001600160a01b0319169690921695909517815592519183019190915591516002820155905160038083019190915591516004918201805460ff19169115159190911790559083015490830154106126165760058201805460ff191690555b50506003805460ff19169055505050505050505050565b60008311801561263d5750808311155b6126595760405162461bcd60e51b81526004016108ca90612f63565b60008381526020859052604090206003015482116126f25760405162461bcd60e51b815260206004820152604a60248201527fec8388eba19c20ec84a4eca095ed95a020ebaaa9ed919c20eab888ec95a1ec9d60448201527f8020eab8b0eca1b420eab888ec95a1ebb3b4eb8ba420eb8692ec9584ec95bc2060648201526976cad4f5c5c475c5d21760b11b608482015260a4016108ca565b5060009182526020929092526040902060030155565b6040516001600160a01b0383169082156108fc029083906000818181858888f1935050505015801561273e573d6000803e3d6000fd5b505050565b634e487b7160e01b600052601160045260246000fd5b8082018082111561276c5761276c612743565b92915050565b60006020828403121561278457600080fd5b5035919050565b6000815180845260005b818110156127b157602081850181015186830182015201612795565b506000602082860101526020601f19601f83011685010191505092915050565b6001600160a01b038a168152610120602082018190526000906127f68382018c61278b565b9050828103604084015261280a818b61278b565b60608401999099525050608081019590955292151560a085015260c084019190915260e0830152610100909101529392505050565b6001600160a01b038116811461131157600080fd5b60006020828403121561286657600080fd5b81356128718161283f565b9392505050565b634e487b7160e01b600052604160045260246000fd5b600082601f83011261289f57600080fd5b81356001600160401b03808211156128b9576128b9612878565b604051601f8301601f19908116603f011681019082821181831017156128e1576128e1612878565b816040528381528660208588010111156128fa57600080fd5b836020870160208301376000602085830101528094505050505092915050565b600080600080600060a0868803121561293257600080fd5b85356001600160401b038082111561294957600080fd5b61295589838a0161288e565b9650602088013591508082111561296b57600080fd5b506129788882890161288e565b94505060408601356129898161283f565b94979396509394606081013594506080013592915050565b600080604083850312156129b457600080fd5b50508035926020909101359150565b600081518084526020808501945080840160005b838110156129f3578151875295820195908201906001016129d7565b509495945050505050565b60a081526000612a1160a08301886129c3565b6020838203818501528188518084528284019150828160051b850101838b0160005b83811015612a6157601f19878403018552612a4f83835161278b565b94860194925090850190600101612a33565b50508681036040880152612a75818b6129c3565b9450505050508281036060840152612a8d81866129c3565b90508281036080840152612aa181856129c3565b98975050505050505050565b600060208284031215612abf57600080fd5b81356001600160401b03811115612ad557600080fd5b612ae18482850161288e565b949350505050565b6000610120808352612afd8184018d61278b565b90508281036020840152612b11818c61278b565b6001600160a01b039a909a16604084015250506060810196909652608086019490945291151560a085015260c084015260e08301526101009091015292915050565b600080600060608486031215612b6857600080fd5b505081359360208301359350604090920135919050565b6080808252855190820181905260009060209060a0840190828901845b82811015612bc15781516001600160a01b031684529284019290840190600101612b9c565b50505083810382850152612bd581886129c3565b90508381036040850152612be981876129c3565b8481036060860152855180825283870192509083019060005b81811015612c20578351151583529284019291840191600101612c02565b50909998505050505050505050565b608081526000612c42608083018761278b565b8560208401528281036040840152612c5a81866129c3565b915050821515606083015295945050505050565b606081526000612c81606083018661278b565b602083019490945250901515604090910152919050565b60008060408385031215612cab57600080fd5b8235915060208301358015158114612cc257600080fd5b809150509250929050565b600181811c90821680612ce157607f821691505b602082108103612d0157634e487b7160e01b600052602260045260246000fd5b50919050565b600060018201612d1957612d19612743565b5060010190565b608081526000612d33608083018761278b565b6001600160a01b03959095166020830152506040810192909252606090910152919050565b602080825260129082015271125b9d985b1a59081c1c9bda9958dd08125160721b604082015260600190565b601f82111561273e57600081815260208120601f850160051c81016020861015612dab5750805b601f850160051c820191505b81811015612dca57828155600101612db7565b505050505050565b81516001600160401b03811115612deb57612deb612878565b612dff81612df98454612ccd565b84612d84565b602080601f831160018114612e345760008415612e1c5750858301515b600019600386901b1c1916600185901b178555612dca565b600085815260208120601f198616915b82811015612e6357888601518255948401946001909101908401612e44565b5085821015612e815787850151600019600388901b60f8161c191681555b5050505050600190811b01905550565b602081526000612871602083018461278b565b808202811582820484141761276c5761276c612743565b600082612ed857634e487b7160e01b600052601260045260246000fd5b500490565b8181038181111561276c5761276c612743565b634e487b7160e01b600052603260045260246000fd5b6020808252603a908201527f5265656e7472616e637947756172643a20ec9eaceca784ec9e8520ec8b9ceb8f60408201527f84eab08020eab090eca780eb9098ec9788ec8ab5eb8b88eb8ba4000000000000606082015260800190565b60208082526027908201527fec9ca0ed9aa8ed9598eca78020ec958aec9d802070726f6a6563744964ec9e8560408201526675c5c475c5d21760c91b60608201526080019056fea264697066735822122056ea2794c67289446745a47b46880989d2ca685a47be264b1d7339f8dbede57d64736f6c63430008140033",
  "linkReferences": {},
  "deployedLinkReferences": {}
}