{
  "_format": "hh-sol-artifact-1",
  "contractName": "DonationCore",
  "sourceName": "contracts/DonationCore.sol",
  "abi": [
    {
      "inputs": [],
      "name": "WITHDRAWAL_TIMELOCK",
      "outputs": [
        {
          "internalType": "uint256",
          "name": "",
          "type": "uint256"
        }
      ],
      "stateMutability": "view",
      "type": "function"
    }
  ],
  "bytecode": "0x6080604052348015600f57600080fd5b50607e8061001e6000396000f3fe6080604052348015600f57600080fd5b506004361060285760003560e01c80634d43948514602d575b600080fd5b60366201518081565b60405190815260200160405180910390f3fea26469706673582212209daf2237f00fe1b43c9d2ef6a7fca00ad52ed262145e7bceb4b07e2eee73572f64736f6c63430008140033",
  "linkReferences": {},
  "deployedLinkReferences": {}
}