{
  "_format": "hh-sol-artifact-1",
  "contractName": "DonationAdmin",
  "sourceName": "contracts/DonationAdmin.sol",
  "abi": [
    {
      "inputs": [],
      "stateMutability": "nonpayable",
      "type": "constructor"
    },
    {
      "inputs": [
        {
          "internalType": "address",
          "name": "owner",
          "type": "address"
        }
      ],
      "name": "OwnableInvalidOwner",
      "type": "error"
    },
    {
      "inputs": [
        {
          "internalType": "address",
          "name": "account",
          "type": "address"
        }
      ],
      "name": "OwnableUnauthorizedAccount",
      "type": "error"
    },
    {
      "anonymous": false,
      "inputs": [
        {
          "indexed": true,
          "internalType": "address",
          "name": "previousOwner",
          "type": "address"
        },
        {
          "indexed": true,
          "internalType": "address",
          "name": "newOwner",
          "type": "address"
        }
      ],
      "name": "OwnershipTransferred",
      "type": "event"
    },
    {
      "inputs": [],
      "name": "owner",
      "outputs": [
        {
          "internalType": "address",
          "name": "",
          "type": "address"
        }
      ],
      "stateMutability": "view",
      "type": "function"
    },
    {
      "inputs": [],
      "name": "platformFeePercent",
      "outputs": [
        {
          "internalType": "uint256",
          "name": "",
          "type": "uint256"
        }
      ],
      "stateMutability": "view",
      "type": "function"
    },
    {
      "inputs": [],
      "name": "platformFeeRecipient",
      "outputs": [
        {
          "internalType": "address",
          "name": "",
          "type": "address"
        }
      ],
      "stateMutability": "view",
      "type": "function"
    },
    {
      "inputs": [],
      "name": "renounceOwnership",
      "outputs": [],
      "stateMutability": "nonpayable",
      "type": "function"
    },
    {
      "inputs": [
        {
          "internalType": "uint256",
          "name": "_feePercent",
          "type": "uint256"
        }
      ],
      "name": "setPlatformFee",
      "outputs": [],
      "stateMutability": "nonpayable",
      "type": "function"
    },
    {
      "inputs": [
        {
          "internalType": "address",
          "name": "_recipient",
          "type": "address"
        }
      ],
      "name": "setPlatformFeeRecipient",
      "outputs": [],
      "stateMutability": "nonpayable",
      "type": "function"
    },
    {
      "inputs": [
        {
          "internalType": "address",
          "name": "newOwner",
          "type": "address"
        }
      ],
      "name": "transferOwnership",
      "outputs": [],
      "stateMutability": "nonpayable",
      "type": "function"
    }
  ],
  "bytecode": "0x60806040526002805534801561001457600080fd5b50338061003b57604051631e4fbdf760e01b81526000600482015260240160405180910390fd5b6100448161005c565b50600180546001600160a01b031916331790556100ac565b600080546001600160a01b038381166001600160a01b0319831681178455604051919092169283917f8be0079c531659141344cd1fd0a4f28419497f9722a3daafe3b4186f6b6457e09190a35050565b610374806100bb6000396000f3fe608060405234801561001057600080fd5b506004361061007d5760003560e01c80638c639a851161005b5780638c639a85146100b25780638da5cb5b146100ce578063eb13554f146100f3578063f2fde38b1461010657600080fd5b806312e8e2c3146100825780631871e24314610097578063715018a6146100aa575b600080fd5b6100956100903660046102f5565b610119565b005b6100956100a536600461030e565b610197565b610095610226565b6100bb60025481565b6040519081526020015b60405180910390f35b6000546001600160a01b03165b6040516001600160a01b0390911681526020016100c5565b6001546100db906001600160a01b031681565b61009561011436600461030e565b61023a565b610121610278565b600a8111156101925760405162461bcd60e51b815260206004820152603260248201527fec9ab4ec9881ec8898ec8898eba38ceb8a9420313025eba5bc20eb8498eab8b86044820152711076444c10764bc376455af5c5c475c5d21760711b60648201526084015b60405180910390fd5b600255565b61019f610278565b6001600160a01b0381166102045760405162461bcd60e51b815260206004820152602660248201527feca3bcec868ceb8a9420307830ec9db420eb90a020ec889820ec9786ec8ab5eb60448201526545c475c5d21760d11b6064820152608401610189565b600180546001600160a01b0319166001600160a01b0392909216919091179055565b61022e610278565b61023860006102a5565b565b610242610278565b6001600160a01b03811661026c57604051631e4fbdf760e01b815260006004820152602401610189565b610275816102a5565b50565b6000546001600160a01b031633146102385760405163118cdaa760e01b8152336004820152602401610189565b600080546001600160a01b038381166001600160a01b0319831681178455604051919092169283917f8be0079c531659141344cd1fd0a4f28419497f9722a3daafe3b4186f6b6457e09190a35050565b60006020828403121561030757600080fd5b5035919050565b60006020828403121561032057600080fd5b81356001600160a01b038116811461033757600080fd5b939250505056fea2646970667358221220f3e9206741d4646360d23963832d95918d2aeaf5e70501760eb2107e82e1797364736f6c63430008140033",
  "linkReferences": {},
  "deployedLinkReferences": {}
}