{"contracts/DonationPlatform.sol":{"DonationPlatform":{"abi":[{"inputs":[],"stateMutability":"nonpayable","type":"constructor"},{"inputs":[{"internalType":"address","name":"owner","type":"address"}],"name":"OwnableInvalidOwner","type":"error"},{"inputs":[{"internalType":"address","name":"account","type":"address"}],"name":"OwnableUnauthorizedAccount","type":"error"},{"anonymous":false,"inputs":[{"indexed":true,"internalType":"uint256","name":"projectId","type":"uint256"},{"indexed":true,"internalType":"address","name":"donor","type":"address"},{"indexed":false,"internalType":"uint256","name":"amount","type":"uint256"},{"indexed":false,"internalType":"bool","name":"isAnonymous","type":"bool"}],"name":"DonationReceived","type":"event"},{"anonymous":false,"inputs":[{"indexed":true,"internalType":"address","name":"donor","type":"address"},{"indexed":false,"internalType":"string","name":"name","type":"string"}],"name":"DonorNameSet","type":"event"},{"anonymous":false,"inputs":[{"indexed":true,"internalType":"uint256","name":"projectId","type":"uint256"},{"indexed":false,"internalType":"address","name":"recipient","type":"address"},{"indexed":false,"internalType":"uint256","name":"amount","type":"uint256"}],"name":"FundsWithdrawn","type":"event"},{"anonymous":false,"inputs":[{"indexed":true,"internalType":"address","name":"previousOwner","type":"address"},{"indexed":true,"internalType":"address","name":"newOwner","type":"address"}],"name":"OwnershipTransferred","type":"event"},{"anonymous":false,"inputs":[{"indexed":true,"internalType":"uint256","name":"projectId","type":"uint256"}],"name":"ProjectCancelled","type":"event"},{"anonymous":false,"inputs":[{"indexed":true,"internalType":"uint256","name":"projectId","type":"uint256"},{"indexed":false,"internalType":"string","name":"name","type":"string"},{"indexed":false,"internalType":"address","name":"recipient","type":"address"},{"indexed":false,"internalType":"uint256","name":"targetAmount","type":"uint256"},{"indexed":false,"internalType":"uint256","name":"deadline","type":"uint256"}],"name":"ProjectCreated","type":"event"},{"anonymous":false,"inputs":[{"indexed":true,"internalType":"uint256","name":"projectId","type":"uint256"},{"indexed":false,"internalType":"uint256","name":"newDeadline","type":"uint256"}],"name":"ProjectDeadlineExtended","type":"event"},{"anonymous":false,"inputs":[{"indexed":true,"internalType":"uint256","name":"projectId","type":"uint256"},{"indexed":false,"internalType":"bool","name":"isActive","type":"bool"}],"name":"ProjectStatusToggled","type":"event"},{"anonymous":false,"inputs":[{"indexed":true,"internalType":"uint256","name":"projectId","type":"uint256"},{"indexed":false,"internalType":"uint256","name":"newTarget","type":"uint256"}],"name":"ProjectTargetIncreased","type":"event"},{"anonymous":false,"inputs":[{"indexed":true,"internalType":"uint256","name":"requestId","type":"uint256"},{"indexed":false,"internalType":"uint256","name":"projectId","type":"uint256"},{"indexed":false,"internalType":"uint256","name":"amount","type":"uint256"}],"name":"WithdrawalRequested","type":"event"},{"inputs":[],"name":"WITHDRAWAL_TIMELOCK","outputs":[{"internalType":"uint256","name":"","type":"uint256"}],"stateMutability":"view","type":"function"},{"inputs":[{"internalType":"uint256","name":"_projectId","type":"uint256"}],"name":"cancelProjectAndRefund","outputs":[],"stateMutability":"nonpayable","type":"function"},{"inputs":[{"internalType":"string","name":"_name","type":"string"},{"internalType":"string","name":"_description","type":"string"},{"internalType":"address payable","name":"_recipient","type":"address"},{"internalType":"uint256","name":"_targetAmount","type":"uint256"},{"internalType":"uint256","name":"_deadline","type":"uint256"}],"name":"createProject","outputs":[{"internalType":"uint256","name":"","type":"uint256"}],"stateMutability":"nonpayable","type":"function"},{"inputs":[{"internalType":"uint256","name":"_projectId","type":"uint256"},{"internalType":"bool","name":"_isAnonymous","type":"bool"}],"name":"donate","outputs":[],"stateMutability":"payable","type":"function"},{"inputs":[],"name":"donationCertificate","outputs":[{"internalType":"contract IDonationCertificate","name":"","type":"address"}],"stateMutability":"view","type":"function"},{"inputs":[],"name":"donationToken","outputs":[{"internalType":"contract IDonationToken","name":"","type":"address"}],"stateMutability":"view","type":"function"},{"inputs":[{"internalType":"address","name":"","type":"address"}],"name":"donors","outputs":[{"internalType":"string","name":"name","type":"string"},{"internalType":"uint256","name":"totalDonated","type":"uint256"},{"internalType":"bool","name":"hasSetName","type":"bool"}],"stateMutability":"view","type":"function"},{"inputs":[],"name":"emergencyWithdraw","outputs":[],"stateMutability":"nonpayable","type":"function"},{"inputs":[{"internalType":"uint256","name":"_requestId","type":"uint256"}],"name":"executeWithdrawal","outputs":[],"stateMutability":"nonpayable","type":"function"},{"inputs":[{"internalType":"uint256","name":"_projectId","type":"uint256"},{"internalType":"uint256","name":"_newDeadline","type":"uint256"}],"name":"extendProjectDeadline","outputs":[],"stateMutability":"nonpayable","type":"function"},{"inputs":[{"internalType":"uint256","name":"_offset","type":"uint256"},{"internalType":"uint256","name":"_limit","type":"uint256"}],"name":"getActiveProjects","outputs":[{"internalType":"uint256[]","name":"projectIds","type":"uint256[]"},{"internalType":"string[]","name":"names","type":"string[]"},{"internalType":"uint256[]","name":"targetAmounts","type":"uint256[]"},{"internalType":"uint256[]","name":"raisedAmounts","type":"uint256[]"},{"internalType":"uint256[]","name":"deadlines","type":"uint256[]"}],"stateMutability":"view","type":"function"},{"inputs":[{"internalType":"address","name":"_donor","type":"address"}],"name":"getDonorInfo","outputs":[{"internalType":"string","name":"name","type":"string"},{"internalType":"uint256","name":"totalDonated","type":"uint256"},{"internalType":"uint256[]","name":"donatedProjects","type":"uint256[]"},{"internalType":"bool","name":"hasSetName","type":"bool"}],"stateMutability":"view","type":"function"},{"inputs":[{"internalType":"uint256","name":"_projectId","type":"uint256"}],"name":"getProjectDetails","outputs":[{"internalType":"string","name":"name","type":"string"},{"internalType":"string","name":"description","type":"string"},{"internalType":"address","name":"recipient","type":"address"},{"internalType":"uint256","name":"targetAmount","type":"uint256"},{"internalType":"uint256","name":"raisedAmount","type":"uint256"},{"internalType":"bool","name":"isActive","type":"bool"},{"internalType":"uint256","name":"deadline","type":"uint256"},{"internalType":"uint256","name":"createTime","type":"uint256"},{"internalType":"uint256","name":"uniqueDonorCount","type":"uint256"}],"stateMutability":"view","type":"function"},{"inputs":[{"internalType":"uint256","name":"_projectId","type":"uint256"},{"internalType":"uint256","name":"_offset","type":"uint256"},{"internalType":"uint256","name":"_limit","type":"uint256"}],"name":"getProjectDonations","outputs":[{"internalType":"address[]","name":"donors","type":"address[]"},{"internalType":"uint256[]","name":"amounts","type":"uint256[]"},{"internalType":"uint256[]","name":"timestamps","type":"uint256[]"},{"internalType":"bool[]","name":"anonymousFlags","type":"bool[]"}],"stateMutability":"view","type":"function"},{"inputs":[{"internalType":"uint256","name":"_projectId","type":"uint256"},{"internalType":"uint256","name":"_newTarget","type":"uint256"}],"name":"increaseProjectTarget","outputs":[],"stateMutability":"nonpayable","type":"function"},{"inputs":[],"name":"owner","outputs":[{"internalType":"address","name":"","type":"address"}],"stateMutability":"view","type":"function"},{"inputs":[],"name":"platformFeePercent","outputs":[{"internalType":"uint256","name":"","type":"uint256"}],"stateMutability":"view","type":"function"},{"inputs":[],"name":"platformFeeRecipient","outputs":[{"internalType":"address","name":"","type":"address"}],"stateMutability":"view","type":"function"},{"inputs":[],"name":"projectCount","outputs":[{"internalType":"uint256","name":"","type":"uint256"}],"stateMutability":"view","type":"function"},{"inputs":[{"internalType":"uint256","name":"","type":"uint256"},{"internalType":"uint256","name":"","type":"uint256"}],"name":"projectDonations","outputs":[{"internalType":"address","name":"donor","type":"address"},{"internalType":"uint256","name":"projectId","type":"uint256"},{"internalType":"uint256","name":"amount","type":"uint256"},{"internalType":"uint256","name":"timestamp","type":"uint256"},{"internalType":"bool","name":"isAnonymous","type":"bool"}],"stateMutability":"view","type":"function"},{"inputs":[{"internalType":"uint256","name":"","type":"uint256"}],"name":"projects","outputs":[{"internalType":"address payable","name":"recipient","type":"address"},{"internalType":"string","name":"name","type":"string"},{"internalType":"string","name":"description","type":"string"},{"internalType":"uint256","name":"targetAmount","type":"uint256"},{"internalType":"uint256","name":"raisedAmount","type":"uint256"},{"internalType":"bool","name":"isActive","type":"bool"},{"internalType":"uint256","name":"deadline","type":"uint256"},{"internalType":"uint256","name":"createTime","type":"uint256"},{"internalType":"uint256","name":"uniqueDonorCount","type":"uint256"}],"stateMutability":"view","type":"function"},{"inputs":[],"name":"renounceOwnership","outputs":[],"stateMutability":"nonpayable","type":"function"},{"inputs":[{"internalType":"uint256","name":"_projectId","type":"uint256"},{"internalType":"uint256","name":"_amount","type":"uint256"}],"name":"requestWithdrawal","outputs":[],"stateMutability":"nonpayable","type":"function"},{"inputs":[{"internalType":"address","name":"_certAddress","type":"address"}],"name":"setDonationCertificate","outputs":[],"stateMutability":"nonpayable","type":"function"},{"inputs":[{"internalType":"address","name":"_tokenAddress","type":"address"}],"name":"setDonationToken","outputs":[],"stateMutability":"nonpayable","type":"function"},{"inputs":[{"internalType":"string","name":"_name","type":"string"}],"name":"setDonorName","outputs":[],"stateMutability":"nonpayable","type":"function"},{"inputs":[{"internalType":"uint256","name":"_feePercent","type":"uint256"}],"name":"setPlatformFee","outputs":[],"stateMutability":"nonpayable","type":"function"},{"inputs":[{"internalType":"address","name":"_recipient","type":"address"}],"name":"setPlatformFeeRecipient","outputs":[],"stateMutability":"nonpayable","type":"function"},{"inputs":[{"internalType":"uint256","name":"_projectId","type":"uint256"}],"name":"toggleProjectStatus","outputs":[],"stateMutability":"nonpayable","type":"function"},{"inputs":[],"name":"totalDonations","outputs":[{"internalType":"uint256","name":"","type":"uint256"}],"stateMutability":"view","type":"function"},{"inputs":[{"internalType":"address","name":"newOwner","type":"address"}],"name":"transferOwnership","outputs":[],"stateMutability":"nonpayable","type":"function"},{"inputs":[],"name":"withdrawalRequestCount","outputs":[{"internalType":"uint256","name":"","type":"uint256"}],"stateMutability":"view","type":"function"},{"inputs":[{"internalType":"uint256","name":"","type":"uint256"}],"name":"withdrawalRequests","outputs":[{"internalType":"uint256","name":"projectId","type":"uint256"},{"internalType":"uint256","name":"amount","type":"uint256"},{"internalType":"uint256","name":"requestTime","type":"uint256"},{"internalType":"bool","name":"executed","type":"bool"}],"stateMutability":"view","type":"function"},{"stateMutability":"payable","type":"receive"}],"evm":{"bytecode":{"linkReferences":{},"object":"6080604052600280553480156200001557600080fd5b5033806200003d57604051631e4fbdf760e01b81526000600482015260240160405180910390fd5b620000488162000070565b50600180546001600160a01b03191633179055600060048190556005819055600655620000c0565b600080546001600160a01b038381166001600160a01b0319831681178455604051919092169283917f8be0079c531659141344cd1fd0a4f28419497f9722a3daafe3b4186f6b6457e09190a35050565b612fe080620000d06000396000f3fe6080604052600436106101f25760003560e01c80638b8a417e1161010d578063c56f3cac116100a0578063db2e21bc1161006f578063db2e21bc14610667578063de2ed8931461067c578063eb13554f14610692578063f2fde38b146106b2578063f5cd8acf146106d257600080fd5b8063c56f3cac146105b1578063ca0cdea814610605578063ca6a04a514610634578063d49335cf1461064757600080fd5b8063ae2ebd7f116100dc578063ae2ebd7f14610511578063b7ed2f1614610531578063bfb695a214610561578063c46a60a51461058157600080fd5b80638b8a417e146104565780638c639a85146104765780638da5cb5b1461048c578063937b2581146104aa57600080fd5b806324f13a761161018557806345ce0a0c1161015457806345ce0a0c146103d55780634d439485146103f55780635f8439e31461040c578063715018a61461044157600080fd5b806324f13a761461035f57806325c18fd91461037f578063346079941461039f57806336fbad26146103bf57600080fd5b80631871e243116101c15780631871e243146102ca57806319e44e32146102ea5780632177fa3b1461030e578063239c5ed81461032e57600080fd5b80630df72159146102165780630e7e846f14610253578063107046bd1461027357806312e8e2c3146102a857600080fd5b366102115734600460008282546102099190612759565b925050819055005b600080fd5b34801561022257600080fd5b50600b54610236906001600160a01b031681565b6040516001600160a01b0390911681526020015b60405180910390f35b34801561025f57600080fd5b50600c54610236906001600160a01b031681565b34801561027f57600080fd5b5061029361028e366004612772565b6106f2565b60405161024a999897969594939291906127d1565b3480156102b457600080fd5b506102c86102c3366004612772565b61085a565b005b3480156102d657600080fd5b506102c86102e5366004612854565b6108d8565b3480156102f657600080fd5b5061030060065481565b60405190815260200161024a565b34801561031a57600080fd5b5061030061032936600461291a565b610967565b34801561033a57600080fd5b5061034e6103493660046129a1565b6109e5565b60405161024a9594939291906129fe565b34801561036b57600080fd5b506102c861037a366004612772565b610a0f565b34801561038b57600080fd5b506102c861039a366004612772565b610b06565b3480156103ab57600080fd5b506102c86103ba366004612aad565b610b77565b3480156103cb57600080fd5b5061030060055481565b3480156103e157600080fd5b506102c86103f0366004612854565b610bdf565b34801561040157600080fd5b506103006201518081565b34801561041857600080fd5b5061042c610427366004612772565b610c09565b60405161024a99989796959493929190612ae9565b34801561044d57600080fd5b506102c8610c6e565b34801561046257600080fd5b506102c8610471366004612772565b610c82565b34801561048257600080fd5b5061030060025481565b34801561049857600080fd5b506000546001600160a01b0316610236565b3480156104b657600080fd5b506104ef6104c5366004612772565b600a6020526000908152604090208054600182015460028301546003909301549192909160ff1684565b604080519485526020850193909352918301521515606082015260800161024a565b34801561051d57600080fd5b506102c861052c3660046129a1565b610cee565b34801561053d57600080fd5b5061055161054c366004612b53565b610e36565b60405161024a9493929190612b7f565b34801561056d57600080fd5b506102c861057c3660046129a1565b610e88565b34801561058d57600080fd5b506105a161059c366004612854565b610ed1565b60405161024a9493929190612c2f565b3480156105bd57600080fd5b506105d16105cc3660046129a1565b610ef3565b604080516001600160a01b03909616865260208601949094529284019190915260608301521515608082015260a00161024a565b34801561061157600080fd5b50610625610620366004612854565b610f4e565b60405161024a93929190612c6e565b6102c8610642366004612c98565b610ffc565b34801561065357600080fd5b506102c86106623660046129a1565b61126a565b34801561067357600080fd5b506102c86112b3565b34801561068857600080fd5b5061030060045481565b34801561069e57600080fd5b50600154610236906001600160a01b031681565b3480156106be57600080fd5b506102c86106cd366004612854565b6112d6565b3480156106de57600080fd5b506102c86106ed366004612854565b611314565b600760205260009081526040902080546001820180546001600160a01b03909216929161071e90612ccd565b80601f016020809104026020016040519081016040528092919081815260200182805461074a90612ccd565b80156107975780601f1061076c57610100808354040283529160200191610797565b820191906000526020600020905b81548152906001019060200180831161077a57829003601f168201915b5050505050908060020180546107ac90612ccd565b80601f01602080910402602001604051908101604052809291908181526020018280546107d890612ccd565b80156108255780601f106107fa57610100808354040283529160200191610825565b820191906000526020600020905b81548152906001019060200180831161080857829003601f168201915b505050600384015460048501546005860154600687015460078801546009909801549697939692955060ff9091169350919089565b61086261133e565b600a8111156108d35760405162461bcd60e51b815260206004820152603260248201527fec9ab4ec9881ec8898ec8898eba38ceb8a9420313025eba5bc20eb8498eab8b86044820152711076444c10764bc376455af5c5c475c5d21760711b60648201526084015b60405180910390fd5b600255565b6108e061133e565b6001600160a01b0381166109455760405162461bcd60e51b815260206004820152602660248201527feca3bcec868ceb8a9420307830ec9db420eb90a020ec889820ec9786ec8ab5eb60448201526545c475c5d21760d11b60648201526084016108ca565b600180546001600160a01b0319166001600160a01b0392909216919091179055565b600061097161133e565b6005805490600061098183612d07565b91905055506109986007600554888888888861136b565b6005547fcfbb9cc3bd62a88127a0a357ef5745ce183a4f314f3f36a4302bbe74b89e2f1d878686866040516109d09493929190612d20565b60405180910390a25060055495945050505050565b60608060608060606109fc60076005548989611521565b939b929a50909850965090945092505050565b600081118015610a2157506006548111155b610a625760405162461bcd60e51b8152602060048201526012602482015271125b9d985b1a59081c995c5d595cdd08125160721b60448201526064016108ca565b600080610a72600a6007856118ef565b60405191935091506001600160a01b0383169082156108fc029083906000818181858888f19350505050158015610aad573d6000803e3d6000fd5b506000838152600a60209081526040918290205482516001600160a01b0386168152918201849052917ff440aec6b52895984d061d622e6edeba6210f7c3e059be920663140c084560d7910160405180910390a2505050565b610b0e61133e565b600081118015610b2057506005548111155b610b3c5760405162461bcd60e51b81526004016108ca90612d58565b610b496007600983611a9b565b60405181907fe3805ed669490875ae87c5c8b1ad6ecca0e5e67305a833926d0d4317c4822fc090600090a250565b33600090815260086020526040902080610b918382612dd2565b5060038101805460ff1916600117905560405133907f6ebd23a091102463b23a2db17ab59d36bc585c8b1bf547c582888749088c024b90610bd3908590612e91565b60405180910390a25050565b610be761133e565b600b80546001600160a01b0319166001600160a01b0392909216919091179055565b6060806000806000806000806000808a118015610c2857506005548a11155b610c445760405162461bcd60e51b81526004016108ca90612d58565b610c4f60078b611bd9565b9850985098509850985098509850985098509193959799909294969850565b610c7661133e565b610c806000611d72565b565b610c8a61133e565b610c98600782600554611dc2565b6000818152600760205260409081902060050154905182917f7cd9ab773996c5e71ea50af00515e2f279d59a598959e73d68b7d4cad937cd2591610ce39160ff161515815260200190565b60405180910390a250565b600082118015610d0057506005548211155b610d5c5760405162461bcd60e51b815260206004820152602760248201527f70726f6a6563744944eba5bc20ebb094eba5b4eab28c20ec9e85eba0a5ed959860448201526676425c764d4a1760c91b60648201526084016108ca565b6000828152600760205260409020546001600160a01b0316331480610d8b57506000546001600160a01b031633145b610dd75760405162461bcd60e51b815260206004820152601e60248201527fec9db8ecb69c20eab68ced959cec9db420ec9786ec8ab5eb8b88eb8ba42e000060448201526064016108ca565b60068054906000610de783612d07565b9190505550610dfd6007600a6006548585611e59565b60065460408051848152602081018490527f09d828bc6585cea40a1c1b428245be880262a626ee4da48d49c97a302ae4017f9101610bd3565b606080606080600087118015610e4e57506005548711155b610e6a5760405162461bcd60e51b81526004016108ca90612d58565b610e776009888888611f43565b935093509350935093509350935093565b610e9061133e565b610e9f600783836005546121ad565b817fc5f80d5c6f5783134d07c9a7e81d6609025f09ac5c2ac5abdd3803d2a6bce29682604051610bd391815260200190565b6060600060606000610ee46008866122f0565b93509350935093509193509193565b60096020528160005260406000208181548110610f0f57600080fd5b6000918252602090912060059091020180546001820154600283015460038401546004909401546001600160a01b039093169550909350919060ff1685565b600860205260009081526040902080548190610f6990612ccd565b80601f0160208091040260200160405190810160405280929190818152602001828054610f9590612ccd565b8015610fe25780601f10610fb757610100808354040283529160200191610fe2565b820191906000526020600020905b815481529060010190602001808311610fc557829003601f168201915b50505050600183015460039093015491929160ff16905083565b60008211801561100e57506005548211155b61106a5760405162461bcd60e51b815260206004820152602760248201527feca1b4ec9eaced9598eca78020ec958aeb8a942070726f6a6563744964ec9e8560448201526675c5c475c5d21760c91b60648201526084016108ca565b60008281526007602052604090206005015460ff166110e15760405162461bcd60e51b815260206004820152602d60248201527fed9884ec9eac20ecbaa0ed8e98ec9db8ec9db420ebb984ed999cec84b1ec838160448201526c76c1ce764f42f5c5c475c5d21760991b60648201526084016108ca565b6000828152600760205260409020600601544211156111585760405162461bcd60e51b815260206004820152602d60248201527fecbaa0ed8e98ec9db8ec9db420ec9db4ebafb820eba78ceba38ceba38ceb909860448201526c764bc476455af5c5c475c5d21760991b60648201526084016108ca565b600034116111ba5760405162461bcd60e51b815260206004820152602960248201527feab8b0ebb680eab888ec9d802030657468ebb3b4eb8ba420ecbba4ec95bc20ed6044820152684ad4f5c5c475c5d21760b91b60648201526084016108ca565b60006064600254346111cc9190612ea4565b6111d69190612ebb565b905060006111e48234612edd565b905061120f60076008600987873387600160009054906101000a90046001600160a01b03168a61241a565b80600460008282546112219190612759565b9091555050604080518281528415156020820152339186917f492c78b519f1197017a41990501e8c48f80a775c8d084f1370bc3cdbe8a58bd0910160405180910390a350505050565b61127261133e565b6112816007838360055461262d565b817fe3935a56bdb77841c8f7679b73dc0dc35eeb647de58f6bd32e0709411c5d7b7982604051610bd391815260200190565b6112bb61133e565b610c806112d06000546001600160a01b031690565b47612708565b6112de61133e565b6001600160a01b03811661130857604051631e4fbdf760e01b8152600060048201526024016108ca565b61131181611d72565b50565b61131c61133e565b600c80546001600160a01b0319166001600160a01b0392909216919091179055565b6000546001600160a01b03163314610c805760405163118cdaa760e01b81523360048201526024016108ca565b600082116113d05760405162461bcd60e51b815260206004820152602c60248201527febaaa9ed919c20eab8b0ebb68020eab888ec95a1ec9d802030657468ec9db4ec60448201526b41c0f64f42f5c5c475c5d21760a11b60648201526084016108ca565b4281116114365760405162461bcd60e51b815260206004820152602e60248201527feab8b0ebb68020eba788eab090ec9dbcec9d8420eb8ba4ec8b9c20ed9995ec9d60448201526d5c76cada7651de76425c764d4a1760911b60648201526084016108ca565b6001600160a01b0383166114a15760405162461bcd60e51b815260206004820152602c60248201527fecbaa0ed8e98ec9db820eca3bcec868ceb8a9420307830ec9dbc20ec889820ec60448201526b4bc376455af5c5c475c5d21760a11b60648201526084016108ca565b600086815260208890526040902080546001600160a01b0319166001600160a01b038516178155600181016114d68782612dd2565b50600281016114e58682612dd2565b50600381019290925560006004830181905560058301805460ff1916600117905560068301919091554260078301556009909101555050505050565b606080808080600060015b89811161156d57600081815260208c9052604090206005015460ff161561155b578161155781612d07565b9250505b8061156581612d07565b91505061152c565b508681891061157e5750600061159c565b81611589898b612759565b111561159c576115998983612edd565b90505b806001600160401b038111156115b4576115b4612878565b6040519080825280602002602001820160405280156115dd578160200160208202803683370190505b509650806001600160401b038111156115f8576115f8612878565b60405190808252806020026020018201604052801561162b57816020015b60608152602001906001900390816116165790505b509550806001600160401b0381111561164657611646612878565b60405190808252806020026020018201604052801561166f578160200160208202803683370190505b509450806001600160401b0381111561168a5761168a612878565b6040519080825280602002602001820160405280156116b3578160200160208202803683370190505b509350806001600160401b038111156116ce576116ce612878565b6040519080825280602002602001820160405280156116f7578160200160208202803683370190505b50925080156118e25760008060015b8c811115801561171557508382105b156118de57600081815260208f9052604090206005015460ff16156118cc578b83106118be57808a838151811061174e5761174e612ef0565b6020026020010181815250508d6000828152602001908152602001600020600101805461177a90612ccd565b80601f01602080910402602001604051908101604052809291908181526020018280546117a690612ccd565b80156117f35780601f106117c8576101008083540402835291602001916117f3565b820191906000526020600020905b8154815290600101906020018083116117d657829003601f168201915b505050505089838151811061180a5761180a612ef0565b60200260200101819052508d60008281526020019081526020016000206003015488838151811061183d5761183d612ef0565b6020026020010181815250508d60008281526020019081526020016000206004015487838151811061187157611871612ef0565b6020026020010181815250508d6000828152602001908152602001600020600601548683815181106118a5576118a5612ef0565b6020908102919091010152816118ba81612d07565b9250505b826118c881612d07565b9350505b806118d681612d07565b915050611706565b5050505b5050945094509450945094565b600354600090819060ff16156119175760405162461bcd60e51b81526004016108ca90612f06565b6003805460ff1916600117815560008481526020879052604090209081015460ff16156119865760405162461bcd60e51b815260206004820152601860248201527f5265717565737420616c7265616479206578656375746564000000000000000060448201526064016108ca565b6201518081600201546119999190612759565b4210156119e85760405162461bcd60e51b815260206004820152601a60248201527f54696d656c6f636b20706572696f64206e6f742070617373656400000000000060448201526064016108ca565b80546000908152602086905260409020600481015460018301541115611a455760405162461bcd60e51b8152602060048201526012602482015271496e73756666696369656e742066756e647360701b60448201526064016108ca565b60038201805460ff19166001908117909155820154600482018054600090611a6e908490612edd565b909155505054600191909101546003805460ff191690556001600160a01b03909116969095509350505050565b60035460ff1615611abe5760405162461bcd60e51b81526004016108ca90612f06565b6003805460ff191660011790556000818152602084905260409020600581015460ff16611b255760405162461bcd60e51b815260206004820152601560248201527450726f6a656374206973206e6f742061637469766560581b60448201526064016108ca565b60058101805460ff191690556000828152602084905260408120905b8154811015611bc0576000828281548110611b5e57611b5e612ef0565b600091825260208220600590910201805460028201546040519294506001600160a01b039091169281156108fc029290818181858888f19350505050158015611bab573d6000803e3d6000fd5b50508080611bb890612d07565b915050611b41565b5050600060049091015550506003805460ff1916905550565b6000818152602083905260408120805460038201546004830154600584015460068501546007860154600987015460018801805460609a8b9a90998a998a998a998a998a998a9996989760028a01976001600160a01b039097169660ff90941693908990611c4690612ccd565b80601f0160208091040260200160405190810160405280929190818152602001828054611c7290612ccd565b8015611cbf5780601f10611c9457610100808354040283529160200191611cbf565b820191906000526020600020905b815481529060010190602001808311611ca257829003601f168201915b50505050509850878054611cd290612ccd565b80601f0160208091040260200160405190810160405280929190818152602001828054611cfe90612ccd565b8015611d4b5780601f10611d2057610100808354040283529160200191611d4b565b820191906000526020600020905b815481529060010190602001808311611d2e57829003601f168201915b50505050509750995099509950995099509950995099509950509295985092959850929598565b600080546001600160a01b038381166001600160a01b0319831681178455604051919092169283917f8be0079c531659141344cd1fd0a4f28419497f9722a3daafe3b4186f6b6457e09190a35050565b600082118015611dd25750808211155b611e345760405162461bcd60e51b815260206004820152602d60248201527fed9484eba19ceca09ded8ab8206964eba5bc20eb8ba4ec8b9c20ec9e85eba0a560448201526c76cada7651de76425c764d4a1760991b60648201526084016108ca565b50600090815260209190915260409020600501805460ff19811660ff90911615179055565b60035460ff1615611e7c5760405162461bcd60e51b81526004016108ca90612f06565b6003805460ff1916600117905560008281526020869052604090208115801590611eaa575080600401548211155b611ee75760405162461bcd60e51b815260206004820152600e60248201526d125b9d985b1a5908185b5bdd5b9d60921b60448201526064016108ca565b50604080516080810182529283526020808401928352428483019081526000606086018181529681529690915294209151825551600182015591516002830155516003918201805491151560ff19928316179055815416905550565b600083815260208590526040902080546060918291829182918690611f68828a612759565b1115611f8d5781548810611f7d576000611f8a565b8154611f8a908990612edd565b90505b806001600160401b03811115611fa557611fa5612878565b604051908082528060200260200182016040528015611fce578160200160208202803683370190505b509550806001600160401b03811115611fe957611fe9612878565b604051908082528060200260200182016040528015612012578160200160208202803683370190505b509450806001600160401b0381111561202d5761202d612878565b604051908082528060200260200182016040528015612056578160200160208202803683370190505b509350806001600160401b0381111561207157612071612878565b60405190808252806020026020018201604052801561209a578160200160208202803683370190505b50925060005b8181101561219f576000836120b5838c612759565b815481106120c5576120c5612ef0565b60009182526020909120600590910201805489519192506001600160a01b0316908990849081106120f8576120f8612ef0565b60200260200101906001600160a01b031690816001600160a01b031681525050806002015487838151811061212f5761212f612ef0565b602002602001018181525050806003015486838151811061215257612152612ef0565b60209081029190910101526004810154855160ff9091169086908490811061217c5761217c612ef0565b91151560209283029190910190910152508061219781612d07565b9150506120a0565b505050945094509450949050565b6000831180156121bd5750808311155b6121d95760405162461bcd60e51b81526004016108ca90612f63565b4282116122455760405162461bcd60e51b815260206004820152603460248201527fec97b0ec9ea5eb909c20eba788eab090ec9dbc20ec9e85eba0a5ec9db420ec9e6044820152734c75d55df5c84c764bc476455af5c5c475c5d21760611b60648201526084016108ca565b60008381526020859052604090206006015482116122da5760405162461bcd60e51b815260206004820152604660248201527fec97b0ec9ea5eb909c20eba788eab090ec9dbcec9d8020ec97b0ec9ea520eca060448201527f8420eba788eab090ec9dbcebb3b4eb8ba420eab8b8ec96b4ec95bc20ed95a9eb60648201526545c475c5d21760d11b608482015260a4016108ca565b5060009182526020929092526040902060060155565b6001600160a01b0381166000908152602083905260408120600181015460038201548254606094938593859391928392600284019160ff90911690849061233690612ccd565b80601f016020809104026020016040519081016040528092919081815260200182805461236290612ccd565b80156123af5780601f10612384576101008083540402835291602001916123af565b820191906000526020600020905b81548152906001019060200180831161239257829003601f168201915b505050505093508180548060200260200160405190810160405280929190818152602001828054801561240157602002820191906000526020600020905b8154815260200190600101908083116123ed575b5050505050915094509450945094505092959194509250565b60035460ff161561243d5760405162461bcd60e51b81526004016108ca90612f06565b6003805460ff191660011790558015612488576040516001600160a01b0383169082156108fc029083906000818181858888f19350505050158015612486573d6000803e3d6000fd5b505b600086815260208a905260408120600481018054919286926124ab908490612759565b90915550506001600160a01b038516600090815260208a905260408120600181018054919287926124dd908490612759565b90915550506001600160a01b038616600090815260088301602052604090205460ff166125595760028101805460018181018355600092835260208084209092018b90556001600160a01b03891683526008850190915260408220805460ff191690911790556009830180549161255383612d07565b91905055505b600088815260208a81526040808320815160a0810183526001600160a01b038b811682528185018e81529382018b815242606084019081528e151560808501908152855460018082018855968a52979098209351600590970290930180546001600160a01b0319169690921695909517815592519183019190915591516002820155905160038083019190915591516004918201805460ff19169115159190911790559083015490830154106126165760058201805460ff191690555b50506003805460ff19169055505050505050505050565b60008311801561263d5750808311155b6126595760405162461bcd60e51b81526004016108ca90612f63565b60008381526020859052604090206003015482116126f25760405162461bcd60e51b815260206004820152604a60248201527fec8388eba19c20ec84a4eca095ed95a020ebaaa9ed919c20eab888ec95a1ec9d60448201527f8020eab8b0eca1b420eab888ec95a1ebb3b4eb8ba420eb8692ec9584ec95bc2060648201526976cad4f5c5c475c5d21760b11b608482015260a4016108ca565b5060009182526020929092526040902060030155565b6040516001600160a01b0383169082156108fc029083906000818181858888f1935050505015801561273e573d6000803e3d6000fd5b505050565b634e487b7160e01b600052601160045260246000fd5b8082018082111561276c5761276c612743565b92915050565b60006020828403121561278457600080fd5b5035919050565b6000815180845260005b818110156127b157602081850181015186830182015201612795565b506000602082860101526020601f19601f83011685010191505092915050565b6001600160a01b038a168152610120602082018190526000906127f68382018c61278b565b9050828103604084015261280a818b61278b565b60608401999099525050608081019590955292151560a085015260c084019190915260e0830152610100909101529392505050565b6001600160a01b038116811461131157600080fd5b60006020828403121561286657600080fd5b81356128718161283f565b9392505050565b634e487b7160e01b600052604160045260246000fd5b600082601f83011261289f57600080fd5b81356001600160401b03808211156128b9576128b9612878565b604051601f8301601f19908116603f011681019082821181831017156128e1576128e1612878565b816040528381528660208588010111156128fa57600080fd5b836020870160208301376000602085830101528094505050505092915050565b600080600080600060a0868803121561293257600080fd5b85356001600160401b038082111561294957600080fd5b61295589838a0161288e565b9650602088013591508082111561296b57600080fd5b506129788882890161288e565b94505060408601356129898161283f565b94979396509394606081013594506080013592915050565b600080604083850312156129b457600080fd5b50508035926020909101359150565b600081518084526020808501945080840160005b838110156129f3578151875295820195908201906001016129d7565b509495945050505050565b60a081526000612a1160a08301886129c3565b6020838203818501528188518084528284019150828160051b850101838b0160005b83811015612a6157601f19878403018552612a4f83835161278b565b94860194925090850190600101612a33565b50508681036040880152612a75818b6129c3565b9450505050508281036060840152612a8d81866129c3565b90508281036080840152612aa181856129c3565b98975050505050505050565b600060208284031215612abf57600080fd5b81356001600160401b03811115612ad557600080fd5b612ae18482850161288e565b949350505050565b6000610120808352612afd8184018d61278b565b90508281036020840152612b11818c61278b565b6001600160a01b039a909a16604084015250506060810196909652608086019490945291151560a085015260c084015260e08301526101009091015292915050565b600080600060608486031215612b6857600080fd5b505081359360208301359350604090920135919050565b6080808252855190820181905260009060209060a0840190828901845b82811015612bc15781516001600160a01b031684529284019290840190600101612b9c565b50505083810382850152612bd581886129c3565b90508381036040850152612be981876129c3565b8481036060860152855180825283870192509083019060005b81811015612c20578351151583529284019291840191600101612c02565b50909998505050505050505050565b608081526000612c42608083018761278b565b8560208401528281036040840152612c5a81866129c3565b915050821515606083015295945050505050565b606081526000612c81606083018661278b565b602083019490945250901515604090910152919050565b60008060408385031215612cab57600080fd5b8235915060208301358015158114612cc257600080fd5b809150509250929050565b600181811c90821680612ce157607f821691505b602082108103612d0157634e487b7160e01b600052602260045260246000fd5b50919050565b600060018201612d1957612d19612743565b5060010190565b608081526000612d33608083018761278b565b6001600160a01b03959095166020830152506040810192909252606090910152919050565b602080825260129082015271125b9d985b1a59081c1c9bda9958dd08125160721b604082015260600190565b601f82111561273e57600081815260208120601f850160051c81016020861015612dab5750805b601f850160051c820191505b81811015612dca57828155600101612db7565b505050505050565b81516001600160401b03811115612deb57612deb612878565b612dff81612df98454612ccd565b84612d84565b602080601f831160018114612e345760008415612e1c5750858301515b600019600386901b1c1916600185901b178555612dca565b600085815260208120601f198616915b82811015612e6357888601518255948401946001909101908401612e44565b5085821015612e815787850151600019600388901b60f8161c191681555b5050505050600190811b01905550565b602081526000612871602083018461278b565b808202811582820484141761276c5761276c612743565b600082612ed857634e487b7160e01b600052601260045260246000fd5b500490565b8181038181111561276c5761276c612743565b634e487b7160e01b600052603260045260246000fd5b6020808252603a908201527f5265656e7472616e637947756172643a20ec9eaceca784ec9e8520ec8b9ceb8f60408201527f84eab08020eab090eca780eb9098ec9788ec8ab5eb8b88eb8ba4000000000000606082015260800190565b60208082526027908201527fec9ca0ed9aa8ed9598eca78020ec958aec9d802070726f6a6563744964ec9e8560408201526675c5c475c5d21760c91b60608201526080019056fea264697066735822122056ea2794c67289446745a47b46880989d2ca685a47be264b1d7339f8dbede57d64736f6c63430008140033","opcodes":"PUSH1 0x80 PUSH1 0x40 MSTORE PUSH1 0x2 DUP1 SSTORE CALLVALUE DUP1 ISZERO PUSH3 0x15 JUMPI PUSH1 0x0 DUP1 REVERT JUMPDEST POP CALLER DUP1 PUSH3 0x3D JUMPI PUSH1 0x40 MLOAD PUSH4 0x1E4FBDF7 PUSH1 0xE0 SHL DUP2 MSTORE PUSH1 0x0 PUSH1 0x4 DUP3 ADD MSTORE PUSH1 0x24 ADD PUSH1 0x40 MLOAD DUP1 SWAP2 SUB SWAP1 REVERT JUMPDEST PUSH3 0x48 DUP2 PUSH3 0x70 JUMP JUMPDEST POP PUSH1 0x1 DUP1 SLOAD PUSH1 0x1 PUSH1 0x1 PUSH1 0xA0 SHL SUB NOT AND CALLER OR SWAP1 SSTORE PUSH1 0x0 PUSH1 0x4 DUP2 SWAP1 SSTORE PUSH1 0x5 DUP2 SWAP1 SSTORE PUSH1 0x6 SSTORE PUSH3 0xC0 JUMP JUMPDEST PUSH1 0x0 DUP1 SLOAD PUSH1 0x1 PUSH1 0x1 PUSH1 0xA0 SHL SUB DUP4 DUP2 AND PUSH1 0x1 PUSH1 0x1 PUSH1 0xA0 SHL SUB NOT DUP4 AND DUP2 OR DUP5 SSTORE PUSH1 0x40 MLOAD SWAP2 SWAP1 SWAP3 AND SWAP3 DUP4 SWAP2 PUSH32 0x8BE0079C531659141344CD1FD0A4F28419497F9722A3DAAFE3B4186F6B6457E0 SWAP2 SWAP1 LOG3 POP POP JUMP JUMPDEST PUSH2 0x2FE0 DUP1 PUSH3 0xD0 PUSH1 0x0 CODECOPY PUSH1 0x0 RETURN INVALID PUSH1 0x80 PUSH1 0x40 MSTORE PUSH1 0x4 CALLDATASIZE LT PUSH2 0x1F2 JUMPI PUSH1 0x0 CALLDATALOAD PUSH1 0xE0 SHR DUP1 PUSH4 0x8B8A417E GT PUSH2 0x10D JUMPI DUP1 PUSH4 0xC56F3CAC GT PUSH2 0xA0 JUMPI DUP1 PUSH4 0xDB2E21BC GT PUSH2 0x6F JUMPI DUP1 PUSH4 0xDB2E21BC EQ PUSH2 0x667 JUMPI DUP1 PUSH4 0xDE2ED893 EQ PUSH2 0x67C JUMPI DUP1 PUSH4 0xEB13554F EQ PUSH2 0x692 JUMPI DUP1 PUSH4 0xF2FDE38B EQ PUSH2 0x6B2 JUMPI DUP1 PUSH4 0xF5CD8ACF EQ PUSH2 0x6D2 JUMPI PUSH1 0x0 DUP1 REVERT JUMPDEST DUP1 PUSH4 0xC56F3CAC EQ PUSH2 0x5B1 JUMPI DUP1 PUSH4 0xCA0CDEA8 EQ PUSH2 0x605 JUMPI DUP1 PUSH4 0xCA6A04A5 EQ PUSH2 0x634 JUMPI DUP1 PUSH4 0xD49335CF EQ PUSH2 0x647 JUMPI PUSH1 0x0 DUP1 REVERT JUMPDEST DUP1 PUSH4 0xAE2EBD7F GT PUSH2 0xDC JUMPI DUP1 PUSH4 0xAE2EBD7F EQ PUSH2 0x511 JUMPI DUP1 PUSH4 0xB7ED2F16 EQ PUSH2 0x531 JUMPI DUP1 PUSH4 0xBFB695A2 EQ PUSH2 0x561 JUMPI DUP1 PUSH4 0xC46A60A5 EQ PUSH2 0x581 JUMPI PUSH1 0x0 DUP1 REVERT JUMPDEST DUP1 PUSH4 0x8B8A417E EQ PUSH2 0x456 JUMPI DUP1 PUSH4 0x8C639A85 EQ PUSH2 0x476 JUMPI DUP1 PUSH4 0x8DA5CB5B EQ PUSH2 0x48C JUMPI DUP1 PUSH4 0x937B2581 EQ PUSH2 0x4AA JUMPI PUSH1 0x0 DUP1 REVERT JUMPDEST DUP1 PUSH4 0x24F13A76 GT PUSH2 0x185 JUMPI DUP1 PUSH4 0x45CE0A0C GT PUSH2 0x154 JUMPI DUP1 PUSH4 0x45CE0A0C EQ PUSH2 0x3D5 JUMPI DUP1 PUSH4 0x4D439485 EQ PUSH2 0x3F5 JUMPI DUP1 PUSH4 0x5F8439E3 EQ PUSH2 0x40C JUMPI DUP1 PUSH4 0x715018A6 EQ PUSH2 0x441 JUMPI PUSH1 0x0 DUP1 REVERT JUMPDEST DUP1 PUSH4 0x24F13A76 EQ PUSH2 0x35F JUMPI DUP1 PUSH4 0x25C18FD9 EQ PUSH2 0x37F JUMPI DUP1 PUSH4 0x34607994 EQ PUSH2 0x39F JUMPI DUP1 PUSH4 0x36FBAD26 EQ PUSH2 0x3BF JUMPI PUSH1 0x0 DUP1 REVERT JUMPDEST DUP1 PUSH4 0x1871E243 GT PUSH2 0x1C1 JUMPI DUP1 PUSH4 0x1871E243 EQ PUSH2 0x2CA JUMPI DUP1 PUSH4 0x19E44E32 EQ PUSH2 0x2EA JUMPI DUP1 PUSH4 0x2177FA3B EQ PUSH2 0x30E JUMPI DUP1 PUSH4 0x239C5ED8 EQ PUSH2 0x32E JUMPI PUSH1 0x0 DUP1 REVERT JUMPDEST DUP1 PUSH4 0xDF72159 EQ PUSH2 0x216 JUMPI DUP1 PUSH4 0xE7E846F EQ PUSH2 0x253 JUMPI DUP1 PUSH4 0x107046BD EQ PUSH2 0x273 JUMPI DUP1 PUSH4 0x12E8E2C3 EQ PUSH2 0x2A8 JUMPI PUSH1 0x0 DUP1 REVERT JUMPDEST CALLDATASIZE PUSH2 0x211 JUMPI CALLVALUE PUSH1 0x4 PUSH1 0x0 DUP3 DUP3 SLOAD PUSH2 0x209 SWAP2 SWAP1 PUSH2 0x2759 JUMP JUMPDEST SWAP3 POP POP DUP2 SWAP1 SSTORE STOP JUMPDEST PUSH1 0x0 DUP1 REVERT JUMPDEST CALLVALUE DUP1 ISZERO PUSH2 0x222 JUMPI PUSH1 0x0 DUP1 REVERT JUMPDEST POP PUSH1 0xB SLOAD PUSH2 0x236 SWAP1 PUSH1 0x1 PUSH1 0x1 PUSH1 0xA0 SHL SUB AND DUP2 JUMP JUMPDEST PUSH1 0x40 MLOAD PUSH1 0x1 PUSH1 0x1 PUSH1 0xA0 SHL SUB SWAP1 SWAP2 AND DUP2 MSTORE PUSH1 0x20 ADD JUMPDEST PUSH1 0x40 MLOAD DUP1 SWAP2 SUB SWAP1 RETURN JUMPDEST CALLVALUE DUP1 ISZERO PUSH2 0x25F JUMPI PUSH1 0x0 DUP1 REVERT JUMPDEST POP PUSH1 0xC SLOAD PUSH2 0x236 SWAP1 PUSH1 0x1 PUSH1 0x1 PUSH1 0xA0 SHL SUB AND DUP2 JUMP JUMPDEST CALLVALUE DUP1 ISZERO PUSH2 0x27F JUMPI PUSH1 0x0 DUP1 REVERT JUMPDEST POP PUSH2 0x293 PUSH2 0x28E CALLDATASIZE PUSH1 0x4 PUSH2 0x2772 JUMP JUMPDEST PUSH2 0x6F2 JUMP JUMPDEST PUSH1 0x40 MLOAD PUSH2 0x24A SWAP10 SWAP9 SWAP8 SWAP7 SWAP6 SWAP5 SWAP4 SWAP3 SWAP2 SWAP1 PUSH2 0x27D1 JUMP JUMPDEST CALLVALUE DUP1 ISZERO PUSH2 0x2B4 JUMPI PUSH1 0x0 DUP1 REVERT JUMPDEST POP PUSH2 0x2C8 PUSH2 0x2C3 CALLDATASIZE PUSH1 0x4 PUSH2 0x2772 JUMP JUMPDEST PUSH2 0x85A JUMP JUMPDEST STOP JUMPDEST CALLVALUE DUP1 ISZERO PUSH2 0x2D6 JUMPI PUSH1 0x0 DUP1 REVERT JUMPDEST POP PUSH2 0x2C8 PUSH2 0x2E5 CALLDATASIZE PUSH1 0x4 PUSH2 0x2854 JUMP JUMPDEST PUSH2 0x8D8 JUMP JUMPDEST CALLVALUE DUP1 ISZERO PUSH2 0x2F6 JUMPI PUSH1 0x0 DUP1 REVERT JUMPDEST POP PUSH2 0x300 PUSH1 0x6 SLOAD DUP2 JUMP JUMPDEST PUSH1 0x40 MLOAD SWAP1 DUP2 MSTORE PUSH1 0x20 ADD PUSH2 0x24A JUMP JUMPDEST CALLVALUE DUP1 ISZERO PUSH2 0x31A JUMPI PUSH1 0x0 DUP1 REVERT JUMPDEST POP PUSH2 0x300 PUSH2 0x329 CALLDATASIZE PUSH1 0x4 PUSH2 0x291A JUMP JUMPDEST PUSH2 0x967 JUMP JUMPDEST CALLVALUE DUP1 ISZERO PUSH2 0x33A JUMPI PUSH1 0x0 DUP1 REVERT JUMPDEST POP PUSH2 0x34E PUSH2 0x349 CALLDATASIZE PUSH1 0x4 PUSH2 0x29A1 JUMP JUMPDEST PUSH2 0x9E5 JUMP JUMPDEST PUSH1 0x40 MLOAD PUSH2 0x24A SWAP6 SWAP5 SWAP4 SWAP3 SWAP2 SWAP1 PUSH2 0x29FE JUMP JUMPDEST CALLVALUE DUP1 ISZERO PUSH2 0x36B JUMPI PUSH1 0x0 DUP1 REVERT JUMPDEST POP PUSH2 0x2C8 PUSH2 0x37A CALLDATASIZE PUSH1 0x4 PUSH2 0x2772 JUMP JUMPDEST PUSH2 0xA0F JUMP JUMPDEST CALLVALUE DUP1 ISZERO PUSH2 0x38B JUMPI PUSH1 0x0 DUP1 REVERT JUMPDEST POP PUSH2 0x2C8 PUSH2 0x39A CALLDATASIZE PUSH1 0x4 PUSH2 0x2772 JUMP JUMPDEST PUSH2 0xB06 JUMP JUMPDEST CALLVALUE DUP1 ISZERO PUSH2 0x3AB JUMPI PUSH1 0x0 DUP1 REVERT JUMPDEST POP PUSH2 0x2C8 PUSH2 0x3BA CALLDATASIZE PUSH1 0x4 PUSH2 0x2AAD JUMP JUMPDEST PUSH2 0xB77 JUMP JUMPDEST CALLVALUE DUP1 ISZERO PUSH2 0x3CB JUMPI PUSH1 0x0 DUP1 REVERT JUMPDEST POP PUSH2 0x300 PUSH1 0x5 SLOAD DUP2 JUMP JUMPDEST CALLVALUE DUP1 ISZERO PUSH2 0x3E1 JUMPI PUSH1 0x0 DUP1 REVERT JUMPDEST POP PUSH2 0x2C8 PUSH2 0x3F0 CALLDATASIZE PUSH1 0x4 PUSH2 0x2854 JUMP JUMPDEST PUSH2 0xBDF JUMP JUMPDEST CALLVALUE DUP1 ISZERO PUSH2 0x401 JUMPI PUSH1 0x0 DUP1 REVERT JUMPDEST POP PUSH2 0x300 PUSH3 0x15180 DUP2 JUMP JUMPDEST CALLVALUE DUP1 ISZERO PUSH2 0x418 JUMPI PUSH1 0x0 DUP1 REVERT JUMPDEST POP PUSH2 0x42C PUSH2 0x427 CALLDATASIZE PUSH1 0x4 PUSH2 0x2772 JUMP JUMPDEST PUSH2 0xC09 JUMP JUMPDEST PUSH1 0x40 MLOAD PUSH2 0x24A SWAP10 SWAP9 SWAP8 SWAP7 SWAP6 SWAP5 SWAP4 SWAP3 SWAP2 SWAP1 PUSH2 0x2AE9 JUMP JUMPDEST CALLVALUE DUP1 ISZERO PUSH2 0x44D JUMPI PUSH1 0x0 DUP1 REVERT JUMPDEST POP PUSH2 0x2C8 PUSH2 0xC6E JUMP JUMPDEST CALLVALUE DUP1 ISZERO PUSH2 0x462 JUMPI PUSH1 0x0 DUP1 REVERT JUMPDEST POP PUSH2 0x2C8 PUSH2 0x471 CALLDATASIZE PUSH1 0x4 PUSH2 0x2772 JUMP JUMPDEST PUSH2 0xC82 JUMP JUMPDEST CALLVALUE DUP1 ISZERO PUSH2 0x482 JUMPI PUSH1 0x0 DUP1 REVERT JUMPDEST POP PUSH2 0x300 PUSH1 0x2 SLOAD DUP2 JUMP JUMPDEST CALLVALUE DUP1 ISZERO PUSH2 0x498 JUMPI PUSH1 0x0 DUP1 REVERT JUMPDEST POP PUSH1 0x0 SLOAD PUSH1 0x1 PUSH1 0x1 PUSH1 0xA0 SHL SUB AND PUSH2 0x236 JUMP JUMPDEST CALLVALUE DUP1 ISZERO PUSH2 0x4B6 JUMPI PUSH1 0x0 DUP1 REVERT JUMPDEST POP PUSH2 0x4EF PUSH2 0x4C5 CALLDATASIZE PUSH1 0x4 PUSH2 0x2772 JUMP JUMPDEST PUSH1 0xA PUSH1 0x20 MSTORE PUSH1 0x0 SWAP1 DUP2 MSTORE PUSH1 0x40 SWAP1 KECCAK256 DUP1 SLOAD PUSH1 0x1 DUP3 ADD SLOAD PUSH1 0x2 DUP4 ADD SLOAD PUSH1 0x3 SWAP1 SWAP4 ADD SLOAD SWAP2 SWAP3 SWAP1 SWAP2 PUSH1 0xFF AND DUP5 JUMP JUMPDEST PUSH1 0x40 DUP1 MLOAD SWAP5 DUP6 MSTORE PUSH1 0x20 DUP6 ADD SWAP4 SWAP1 SWAP4 MSTORE SWAP2 DUP4 ADD MSTORE ISZERO ISZERO PUSH1 0x60 DUP3 ADD MSTORE PUSH1 0x80 ADD PUSH2 0x24A JUMP JUMPDEST CALLVALUE DUP1 ISZERO PUSH2 0x51D JUMPI PUSH1 0x0 DUP1 REVERT JUMPDEST POP PUSH2 0x2C8 PUSH2 0x52C CALLDATASIZE PUSH1 0x4 PUSH2 0x29A1 JUMP JUMPDEST PUSH2 0xCEE JUMP JUMPDEST CALLVALUE DUP1 ISZERO PUSH2 0x53D JUMPI PUSH1 0x0 DUP1 REVERT JUMPDEST POP PUSH2 0x551 PUSH2 0x54C CALLDATASIZE PUSH1 0x4 PUSH2 0x2B53 JUMP JUMPDEST PUSH2 0xE36 JUMP JUMPDEST PUSH1 0x40 MLOAD PUSH2 0x24A SWAP5 SWAP4 SWAP3 SWAP2 SWAP1 PUSH2 0x2B7F JUMP JUMPDEST CALLVALUE DUP1 ISZERO PUSH2 0x56D JUMPI PUSH1 0x0 DUP1 REVERT JUMPDEST POP PUSH2 0x2C8 PUSH2 0x57C CALLDATASIZE PUSH1 0x4 PUSH2 0x29A1 JUMP JUMPDEST PUSH2 0xE88 JUMP JUMPDEST CALLVALUE DUP1 ISZERO PUSH2 0x58D JUMPI PUSH1 0x0 DUP1 REVERT JUMPDEST POP PUSH2 0x5A1 PUSH2 0x59C CALLDATASIZE PUSH1 0x4 PUSH2 0x2854 JUMP JUMPDEST PUSH2 0xED1 JUMP JUMPDEST PUSH1 0x40 MLOAD PUSH2 0x24A SWAP5 SWAP4 SWAP3 SWAP2 SWAP1 PUSH2 0x2C2F JUMP JUMPDEST CALLVALUE DUP1 ISZERO PUSH2 0x5BD JUMPI PUSH1 0x0 DUP1 REVERT JUMPDEST POP PUSH2 0x5D1 PUSH2 0x5CC CALLDATASIZE PUSH1 0x4 PUSH2 0x29A1 JUMP JUMPDEST PUSH2 0xEF3 JUMP JUMPDEST PUSH1 0x40 DUP1 MLOAD PUSH1 0x1 PUSH1 0x1 PUSH1 0xA0 SHL SUB SWAP1 SWAP7 AND DUP7 MSTORE PUSH1 0x20 DUP7 ADD SWAP5 SWAP1 SWAP5 MSTORE SWAP3 DUP5 ADD SWAP2 SWAP1 SWAP2 MSTORE PUSH1 0x60 DUP4 ADD MSTORE ISZERO ISZERO PUSH1 0x80 DUP3 ADD MSTORE PUSH1 0xA0 ADD PUSH2 0x24A JUMP JUMPDEST CALLVALUE DUP1 ISZERO PUSH2 0x611 JUMPI PUSH1 0x0 DUP1 REVERT JUMPDEST POP PUSH2 0x625 PUSH2 0x620 CALLDATASIZE PUSH1 0x4 PUSH2 0x2854 JUMP JUMPDEST PUSH2 0xF4E JUMP JUMPDEST PUSH1 0x40 MLOAD PUSH2 0x24A SWAP4 SWAP3 SWAP2 SWAP1 PUSH2 0x2C6E JUMP JUMPDEST PUSH2 0x2C8 PUSH2 0x642 CALLDATASIZE PUSH1 0x4 PUSH2 0x2C98 JUMP JUMPDEST PUSH2 0xFFC JUMP JUMPDEST CALLVALUE DUP1 ISZERO PUSH2 0x653 JUMPI PUSH1 0x0 DUP1 REVERT JUMPDEST POP PUSH2 0x2C8 PUSH2 0x662 CALLDATASIZE PUSH1 0x4 PUSH2 0x29A1 JUMP JUMPDEST PUSH2 0x126A JUMP JUMPDEST CALLVALUE DUP1 ISZERO PUSH2 0x673 JUMPI PUSH1 0x0 DUP1 REVERT JUMPDEST POP PUSH2 0x2C8 PUSH2 0x12B3 JUMP JUMPDEST CALLVALUE DUP1 ISZERO PUSH2 0x688 JUMPI PUSH1 0x0 DUP1 REVERT JUMPDEST POP PUSH2 0x300 PUSH1 0x4 SLOAD DUP2 JUMP JUMPDEST CALLVALUE DUP1 ISZERO PUSH2 0x69E JUMPI PUSH1 0x0 DUP1 REVERT JUMPDEST POP PUSH1 0x1 SLOAD PUSH2 0x236 SWAP1 PUSH1 0x1 PUSH1 0x1 PUSH1 0xA0 SHL SUB AND DUP2 JUMP JUMPDEST CALLVALUE DUP1 ISZERO PUSH2 0x6BE JUMPI PUSH1 0x0 DUP1 REVERT JUMPDEST POP PUSH2 0x2C8 PUSH2 0x6CD CALLDATASIZE PUSH1 0x4 PUSH2 0x2854 JUMP JUMPDEST PUSH2 0x12D6 JUMP JUMPDEST CALLVALUE DUP1 ISZERO PUSH2 0x6DE JUMPI PUSH1 0x0 DUP1 REVERT JUMPDEST POP PUSH2 0x2C8 PUSH2 0x6ED CALLDATASIZE PUSH1 0x4 PUSH2 0x2854 JUMP JUMPDEST PUSH2 0x1314 JUMP JUMPDEST PUSH1 0x7 PUSH1 0x20 MSTORE PUSH1 0x0 SWAP1 DUP2 MSTORE PUSH1 0x40 SWAP1 KECCAK256 DUP1 SLOAD PUSH1 0x1 DUP3 ADD DUP1 SLOAD PUSH1 0x1 PUSH1 0x1 PUSH1 0xA0 SHL SUB SWAP1 SWAP3 AND SWAP3 SWAP2 PUSH2 0x71E SWAP1 PUSH2 0x2CCD JUMP JUMPDEST DUP1 PUSH1 0x1F ADD PUSH1 0x20 DUP1 SWAP2 DIV MUL PUSH1 0x20 ADD PUSH1 0x40 MLOAD SWAP1 DUP2 ADD PUSH1 0x40 MSTORE DUP1 SWAP3 SWAP2 SWAP1 DUP2 DUP2 MSTORE PUSH1 0x20 ADD DUP3 DUP1 SLOAD PUSH2 0x74A SWAP1 PUSH2 0x2CCD JUMP JUMPDEST DUP1 ISZERO PUSH2 0x797 JUMPI DUP1 PUSH1 0x1F LT PUSH2 0x76C JUMPI PUSH2 0x100 DUP1 DUP4 SLOAD DIV MUL DUP4 MSTORE SWAP2 PUSH1 0x20 ADD SWAP2 PUSH2 0x797 JUMP JUMPDEST DUP3 ADD SWAP2 SWAP1 PUSH1 0x0 MSTORE PUSH1 0x20 PUSH1 0x0 KECCAK256 SWAP1 JUMPDEST DUP2 SLOAD DUP2 MSTORE SWAP1 PUSH1 0x1 ADD SWAP1 PUSH1 0x20 ADD DUP1 DUP4 GT PUSH2 0x77A JUMPI DUP3 SWAP1 SUB PUSH1 0x1F AND DUP3 ADD SWAP2 JUMPDEST POP POP POP POP POP SWAP1 DUP1 PUSH1 0x2 ADD DUP1 SLOAD PUSH2 0x7AC SWAP1 PUSH2 0x2CCD JUMP JUMPDEST DUP1 PUSH1 0x1F ADD PUSH1 0x20 DUP1 SWAP2 DIV MUL PUSH1 0x20 ADD PUSH1 0x40 MLOAD SWAP1 DUP2 ADD PUSH1 0x40 MSTORE DUP1 SWAP3 SWAP2 SWAP1 DUP2 DUP2 MSTORE PUSH1 0x20 ADD DUP3 DUP1 SLOAD PUSH2 0x7D8 SWAP1 PUSH2 0x2CCD JUMP JUMPDEST DUP1 ISZERO PUSH2 0x825 JUMPI DUP1 PUSH1 0x1F LT PUSH2 0x7FA JUMPI PUSH2 0x100 DUP1 DUP4 SLOAD DIV MUL DUP4 MSTORE SWAP2 PUSH1 0x20 ADD SWAP2 PUSH2 0x825 JUMP JUMPDEST DUP3 ADD SWAP2 SWAP1 PUSH1 0x0 MSTORE PUSH1 0x20 PUSH1 0x0 KECCAK256 SWAP1 JUMPDEST DUP2 SLOAD DUP2 MSTORE SWAP1 PUSH1 0x1 ADD SWAP1 PUSH1 0x20 ADD DUP1 DUP4 GT PUSH2 0x808 JUMPI DUP3 SWAP1 SUB PUSH1 0x1F AND DUP3 ADD SWAP2 JUMPDEST POP POP POP PUSH1 0x3 DUP5 ADD SLOAD PUSH1 0x4 DUP6 ADD SLOAD PUSH1 0x5 DUP7 ADD SLOAD PUSH1 0x6 DUP8 ADD SLOAD PUSH1 0x7 DUP9 ADD SLOAD PUSH1 0x9 SWAP1 SWAP9 ADD SLOAD SWAP7 SWAP8 SWAP4 SWAP7 SWAP3 SWAP6 POP PUSH1 0xFF SWAP1 SWAP2 AND SWAP4 POP SWAP2 SWAP1 DUP10 JUMP JUMPDEST PUSH2 0x862 PUSH2 0x133E JUMP JUMPDEST PUSH1 0xA DUP2 GT ISZERO PUSH2 0x8D3 JUMPI PUSH1 0x40 MLOAD PUSH3 0x461BCD PUSH1 0xE5 SHL DUP2 MSTORE PUSH1 0x20 PUSH1 0x4 DUP3 ADD MSTORE PUSH1 0x32 PUSH1 0x24 DUP3 ADD MSTORE PUSH32 0xEC9AB4EC9881EC8898EC8898EBA38CEB8A9420313025EBA5BC20EB8498EAB8B8 PUSH1 0x44 DUP3 ADD MSTORE PUSH18 0x1076444C10764BC376455AF5C5C475C5D217 PUSH1 0x71 SHL PUSH1 0x64 DUP3 ADD MSTORE PUSH1 0x84 ADD JUMPDEST PUSH1 0x40 MLOAD DUP1 SWAP2 SUB SWAP1 REVERT JUMPDEST PUSH1 0x2 SSTORE JUMP JUMPDEST PUSH2 0x8E0 PUSH2 0x133E JUMP JUMPDEST PUSH1 0x1 PUSH1 0x1 PUSH1 0xA0 SHL SUB DUP2 AND PUSH2 0x945 JUMPI PUSH1 0x40 MLOAD PUSH3 0x461BCD PUSH1 0xE5 SHL DUP2 MSTORE PUSH1 0x20 PUSH1 0x4 DUP3 ADD MSTORE PUSH1 0x26 PUSH1 0x24 DUP3 ADD MSTORE PUSH32 0xECA3BCEC868CEB8A9420307830EC9DB420EB90A020EC889820EC9786EC8AB5EB PUSH1 0x44 DUP3 ADD MSTORE PUSH6 0x45C475C5D217 PUSH1 0xD1 SHL PUSH1 0x64 DUP3 ADD MSTORE PUSH1 0x84 ADD PUSH2 0x8CA JUMP JUMPDEST PUSH1 0x1 DUP1 SLOAD PUSH1 0x1 PUSH1 0x1 PUSH1 0xA0 SHL SUB NOT AND PUSH1 0x1 PUSH1 0x1 PUSH1 0xA0 SHL SUB SWAP3 SWAP1 SWAP3 AND SWAP2 SWAP1 SWAP2 OR SWAP1 SSTORE JUMP JUMPDEST PUSH1 0x0 PUSH2 0x971 PUSH2 0x133E JUMP JUMPDEST PUSH1 0x5 DUP1 SLOAD SWAP1 PUSH1 0x0 PUSH2 0x981 DUP4 PUSH2 0x2D07 JUMP JUMPDEST SWAP2 SWAP1 POP SSTORE POP PUSH2 0x998 PUSH1 0x7 PUSH1 0x5 SLOAD DUP9 DUP9 DUP9 DUP9 DUP9 PUSH2 0x136B JUMP JUMPDEST PUSH1 0x5 SLOAD PUSH32 0xCFBB9CC3BD62A88127A0A357EF5745CE183A4F314F3F36A4302BBE74B89E2F1D DUP8 DUP7 DUP7 DUP7 PUSH1 0x40 MLOAD PUSH2 0x9D0 SWAP5 SWAP4 SWAP3 SWAP2 SWAP1 PUSH2 0x2D20 JUMP JUMPDEST PUSH1 0x40 MLOAD DUP1 SWAP2 SUB SWAP1 LOG2 POP PUSH1 0x5 SLOAD SWAP6 SWAP5 POP POP POP POP POP JUMP JUMPDEST PUSH1 0x60 DUP1 PUSH1 0x60 DUP1 PUSH1 0x60 PUSH2 0x9FC PUSH1 0x7 PUSH1 0x5 SLOAD DUP10 DUP10 PUSH2 0x1521 JUMP JUMPDEST SWAP4 SWAP12 SWAP3 SWAP11 POP SWAP1 SWAP9 POP SWAP7 POP SWAP1 SWAP5 POP SWAP3 POP POP POP JUMP JUMPDEST PUSH1 0x0 DUP2 GT DUP1 ISZERO PUSH2 0xA21 JUMPI POP PUSH1 0x6 SLOAD DUP2 GT ISZERO JUMPDEST PUSH2 0xA62 JUMPI PUSH1 0x40 MLOAD PUSH3 0x461BCD PUSH1 0xE5 SHL DUP2 MSTORE PUSH1 0x20 PUSH1 0x4 DUP3 ADD MSTORE PUSH1 0x12 PUSH1 0x24 DUP3 ADD MSTORE PUSH18 0x125B9D985B1A59081C995C5D595CDD081251 PUSH1 0x72 SHL PUSH1 0x44 DUP3 ADD MSTORE PUSH1 0x64 ADD PUSH2 0x8CA JUMP JUMPDEST PUSH1 0x0 DUP1 PUSH2 0xA72 PUSH1 0xA PUSH1 0x7 DUP6 PUSH2 0x18EF JUMP JUMPDEST PUSH1 0x40 MLOAD SWAP2 SWAP4 POP SWAP2 POP PUSH1 0x1 PUSH1 0x1 PUSH1 0xA0 SHL SUB DUP4 AND SWAP1 DUP3 ISZERO PUSH2 0x8FC MUL SWAP1 DUP4 SWAP1 PUSH1 0x0 DUP2 DUP2 DUP2 DUP6 DUP9 DUP9 CALL SWAP4 POP POP POP POP ISZERO DUP1 ISZERO PUSH2 0xAAD JUMPI RETURNDATASIZE PUSH1 0x0 DUP1 RETURNDATACOPY RETURNDATASIZE PUSH1 0x0 REVERT JUMPDEST POP PUSH1 0x0 DUP4 DUP2 MSTORE PUSH1 0xA PUSH1 0x20 SWAP1 DUP2 MSTORE PUSH1 0x40 SWAP2 DUP3 SWAP1 KECCAK256 SLOAD DUP3 MLOAD PUSH1 0x1 PUSH1 0x1 PUSH1 0xA0 SHL SUB DUP7 AND DUP2 MSTORE SWAP2 DUP3 ADD DUP5 SWAP1 MSTORE SWAP2 PUSH32 0xF440AEC6B52895984D061D622E6EDEBA6210F7C3E059BE920663140C084560D7 SWAP2 ADD PUSH1 0x40 MLOAD DUP1 SWAP2 SUB SWAP1 LOG2 POP POP POP JUMP JUMPDEST PUSH2 0xB0E PUSH2 0x133E JUMP JUMPDEST PUSH1 0x0 DUP2 GT DUP1 ISZERO PUSH2 0xB20 JUMPI POP PUSH1 0x5 SLOAD DUP2 GT ISZERO JUMPDEST PUSH2 0xB3C JUMPI PUSH1 0x40 MLOAD PUSH3 0x461BCD PUSH1 0xE5 SHL DUP2 MSTORE PUSH1 0x4 ADD PUSH2 0x8CA SWAP1 PUSH2 0x2D58 JUMP JUMPDEST PUSH2 0xB49 PUSH1 0x7 PUSH1 0x9 DUP4 PUSH2 0x1A9B JUMP JUMPDEST PUSH1 0x40 MLOAD DUP2 SWAP1 PUSH32 0xE3805ED669490875AE87C5C8B1AD6ECCA0E5E67305A833926D0D4317C4822FC0 SWAP1 PUSH1 0x0 SWAP1 LOG2 POP JUMP JUMPDEST CALLER PUSH1 0x0 SWAP1 DUP2 MSTORE PUSH1 0x8 PUSH1 0x20 MSTORE PUSH1 0x40 SWAP1 KECCAK256 DUP1 PUSH2 0xB91 DUP4 DUP3 PUSH2 0x2DD2 JUMP JUMPDEST POP PUSH1 0x3 DUP2 ADD DUP1 SLOAD PUSH1 0xFF NOT AND PUSH1 0x1 OR SWAP1 SSTORE PUSH1 0x40 MLOAD CALLER SWAP1 PUSH32 0x6EBD23A091102463B23A2DB17AB59D36BC585C8B1BF547C582888749088C024B SWAP1 PUSH2 0xBD3 SWAP1 DUP6 SWAP1 PUSH2 0x2E91 JUMP JUMPDEST PUSH1 0x40 MLOAD DUP1 SWAP2 SUB SWAP1 LOG2 POP POP JUMP JUMPDEST PUSH2 0xBE7 PUSH2 0x133E JUMP JUMPDEST PUSH1 0xB DUP1 SLOAD PUSH1 0x1 PUSH1 0x1 PUSH1 0xA0 SHL SUB NOT AND PUSH1 0x1 PUSH1 0x1 PUSH1 0xA0 SHL SUB SWAP3 SWAP1 SWAP3 AND SWAP2 SWAP1 SWAP2 OR SWAP1 SSTORE JUMP JUMPDEST PUSH1 0x60 DUP1 PUSH1 0x0 DUP1 PUSH1 0x0 DUP1 PUSH1 0x0 DUP1 PUSH1 0x0 DUP1 DUP11 GT DUP1 ISZERO PUSH2 0xC28 JUMPI POP PUSH1 0x5 SLOAD DUP11 GT ISZERO JUMPDEST PUSH2 0xC44 JUMPI PUSH1 0x40 MLOAD PUSH3 0x461BCD PUSH1 0xE5 SHL DUP2 MSTORE PUSH1 0x4 ADD PUSH2 0x8CA SWAP1 PUSH2 0x2D58 JUMP JUMPDEST PUSH2 0xC4F PUSH1 0x7 DUP12 PUSH2 0x1BD9 JUMP JUMPDEST SWAP9 POP SWAP9 POP SWAP9 POP SWAP9 POP SWAP9 POP SWAP9 POP SWAP9 POP SWAP9 POP SWAP9 POP SWAP2 SWAP4 SWAP6 SWAP8 SWAP10 SWAP1 SWAP3 SWAP5 SWAP7 SWAP9 POP JUMP JUMPDEST PUSH2 0xC76 PUSH2 0x133E JUMP JUMPDEST PUSH2 0xC80 PUSH1 0x0 PUSH2 0x1D72 JUMP JUMPDEST JUMP JUMPDEST PUSH2 0xC8A PUSH2 0x133E JUMP JUMPDEST PUSH2 0xC98 PUSH1 0x7 DUP3 PUSH1 0x5 SLOAD PUSH2 0x1DC2 JUMP JUMPDEST PUSH1 0x0 DUP2 DUP2 MSTORE PUSH1 0x7 PUSH1 0x20 MSTORE PUSH1 0x40 SWAP1 DUP2 SWAP1 KECCAK256 PUSH1 0x5 ADD SLOAD SWAP1 MLOAD DUP3 SWAP2 PUSH32 0x7CD9AB773996C5E71EA50AF00515E2F279D59A598959E73D68B7D4CAD937CD25 SWAP2 PUSH2 0xCE3 SWAP2 PUSH1 0xFF AND ISZERO ISZERO DUP2 MSTORE PUSH1 0x20 ADD SWAP1 JUMP JUMPDEST PUSH1 0x40 MLOAD DUP1 SWAP2 SUB SWAP1 LOG2 POP JUMP JUMPDEST PUSH1 0x0 DUP3 GT DUP1 ISZERO PUSH2 0xD00 JUMPI POP PUSH1 0x5 SLOAD DUP3 GT ISZERO JUMPDEST PUSH2 0xD5C JUMPI PUSH1 0x40 MLOAD PUSH3 0x461BCD PUSH1 0xE5 SHL DUP2 MSTORE PUSH1 0x20 PUSH1 0x4 DUP3 ADD MSTORE PUSH1 0x27 PUSH1 0x24 DUP3 ADD MSTORE PUSH32 0x70726F6A6563744944EBA5BC20EBB094EBA5B4EAB28C20EC9E85EBA0A5ED9598 PUSH1 0x44 DUP3 ADD MSTORE PUSH7 0x76425C764D4A17 PUSH1 0xC9 SHL PUSH1 0x64 DUP3 ADD MSTORE PUSH1 0x84 ADD PUSH2 0x8CA JUMP JUMPDEST PUSH1 0x0 DUP3 DUP2 MSTORE PUSH1 0x7 PUSH1 0x20 MSTORE PUSH1 0x40 SWAP1 KECCAK256 SLOAD PUSH1 0x1 PUSH1 0x1 PUSH1 0xA0 SHL SUB AND CALLER EQ DUP1 PUSH2 0xD8B JUMPI POP PUSH1 0x0 SLOAD PUSH1 0x1 PUSH1 0x1 PUSH1 0xA0 SHL SUB AND CALLER EQ JUMPDEST PUSH2 0xDD7 JUMPI PUSH1 0x40 MLOAD PUSH3 0x461BCD PUSH1 0xE5 SHL DUP2 MSTORE PUSH1 0x20 PUSH1 0x4 DUP3 ADD MSTORE PUSH1 0x1E PUSH1 0x24 DUP3 ADD MSTORE PUSH32 0xEC9DB8ECB69C20EAB68CED959CEC9DB420EC9786EC8AB5EB8B88EB8BA42E0000 PUSH1 0x44 DUP3 ADD MSTORE PUSH1 0x64 ADD PUSH2 0x8CA JUMP JUMPDEST PUSH1 0x6 DUP1 SLOAD SWAP1 PUSH1 0x0 PUSH2 0xDE7 DUP4 PUSH2 0x2D07 JUMP JUMPDEST SWAP2 SWAP1 POP SSTORE POP PUSH2 0xDFD PUSH1 0x7 PUSH1 0xA PUSH1 0x6 SLOAD DUP6 DUP6 PUSH2 0x1E59 JUMP JUMPDEST PUSH1 0x6 SLOAD PUSH1 0x40 DUP1 MLOAD DUP5 DUP2 MSTORE PUSH1 0x20 DUP2 ADD DUP5 SWAP1 MSTORE PUSH32 0x9D828BC6585CEA40A1C1B428245BE880262A626EE4DA48D49C97A302AE4017F SWAP2 ADD PUSH2 0xBD3 JUMP JUMPDEST PUSH1 0x60 DUP1 PUSH1 0x60 DUP1 PUSH1 0x0 DUP8 GT DUP1 ISZERO PUSH2 0xE4E JUMPI POP PUSH1 0x5 SLOAD DUP8 GT ISZERO JUMPDEST PUSH2 0xE6A JUMPI PUSH1 0x40 MLOAD PUSH3 0x461BCD PUSH1 0xE5 SHL DUP2 MSTORE PUSH1 0x4 ADD PUSH2 0x8CA SWAP1 PUSH2 0x2D58 JUMP JUMPDEST PUSH2 0xE77 PUSH1 0x9 DUP9 DUP9 DUP9 PUSH2 0x1F43 JUMP JUMPDEST SWAP4 POP SWAP4 POP SWAP4 POP SWAP4 POP SWAP4 POP SWAP4 POP SWAP4 POP SWAP4 JUMP JUMPDEST PUSH2 0xE90 PUSH2 0x133E JUMP JUMPDEST PUSH2 0xE9F PUSH1 0x7 DUP4 DUP4 PUSH1 0x5 SLOAD PUSH2 0x21AD JUMP JUMPDEST DUP2 PUSH32 0xC5F80D5C6F5783134D07C9A7E81D6609025F09AC5C2AC5ABDD3803D2A6BCE296 DUP3 PUSH1 0x40 MLOAD PUSH2 0xBD3 SWAP2 DUP2 MSTORE PUSH1 0x20 ADD SWAP1 JUMP JUMPDEST PUSH1 0x60 PUSH1 0x0 PUSH1 0x60 PUSH1 0x0 PUSH2 0xEE4 PUSH1 0x8 DUP7 PUSH2 0x22F0 JUMP JUMPDEST SWAP4 POP SWAP4 POP SWAP4 POP SWAP4 POP SWAP2 SWAP4 POP SWAP2 SWAP4 JUMP JUMPDEST PUSH1 0x9 PUSH1 0x20 MSTORE DUP2 PUSH1 0x0 MSTORE PUSH1 0x40 PUSH1 0x0 KECCAK256 DUP2 DUP2 SLOAD DUP2 LT PUSH2 0xF0F JUMPI PUSH1 0x0 DUP1 REVERT JUMPDEST PUSH1 0x0 SWAP2 DUP3 MSTORE PUSH1 0x20 SWAP1 SWAP2 KECCAK256 PUSH1 0x5 SWAP1 SWAP2 MUL ADD DUP1 SLOAD PUSH1 0x1 DUP3 ADD SLOAD PUSH1 0x2 DUP4 ADD SLOAD PUSH1 0x3 DUP5 ADD SLOAD PUSH1 0x4 SWAP1 SWAP5 ADD SLOAD PUSH1 0x1 PUSH1 0x1 PUSH1 0xA0 SHL SUB SWAP1 SWAP4 AND SWAP6 POP SWAP1 SWAP4 POP SWAP2 SWAP1 PUSH1 0xFF AND DUP6 JUMP JUMPDEST PUSH1 0x8 PUSH1 0x20 MSTORE PUSH1 0x0 SWAP1 DUP2 MSTORE PUSH1 0x40 SWAP1 KECCAK256 DUP1 SLOAD DUP2 SWAP1 PUSH2 0xF69 SWAP1 PUSH2 0x2CCD JUMP JUMPDEST DUP1 PUSH1 0x1F ADD PUSH1 0x20 DUP1 SWAP2 DIV MUL PUSH1 0x20 ADD PUSH1 0x40 MLOAD SWAP1 DUP2 ADD PUSH1 0x40 MSTORE DUP1 SWAP3 SWAP2 SWAP1 DUP2 DUP2 MSTORE PUSH1 0x20 ADD DUP3 DUP1 SLOAD PUSH2 0xF95 SWAP1 PUSH2 0x2CCD JUMP JUMPDEST DUP1 ISZERO PUSH2 0xFE2 JUMPI DUP1 PUSH1 0x1F LT PUSH2 0xFB7 JUMPI PUSH2 0x100 DUP1 DUP4 SLOAD DIV MUL DUP4 MSTORE SWAP2 PUSH1 0x20 ADD SWAP2 PUSH2 0xFE2 JUMP JUMPDEST DUP3 ADD SWAP2 SWAP1 PUSH1 0x0 MSTORE PUSH1 0x20 PUSH1 0x0 KECCAK256 SWAP1 JUMPDEST DUP2 SLOAD DUP2 MSTORE SWAP1 PUSH1 0x1 ADD SWAP1 PUSH1 0x20 ADD DUP1 DUP4 GT PUSH2 0xFC5 JUMPI DUP3 SWAP1 SUB PUSH1 0x1F AND DUP3 ADD SWAP2 JUMPDEST POP POP POP POP PUSH1 0x1 DUP4 ADD SLOAD PUSH1 0x3 SWAP1 SWAP4 ADD SLOAD SWAP2 SWAP3 SWAP2 PUSH1 0xFF AND SWAP1 POP DUP4 JUMP JUMPDEST PUSH1 0x0 DUP3 GT DUP1 ISZERO PUSH2 0x100E JUMPI POP PUSH1 0x5 SLOAD DUP3 GT ISZERO JUMPDEST PUSH2 0x106A JUMPI PUSH1 0x40 MLOAD PUSH3 0x461BCD PUSH1 0xE5 SHL DUP2 MSTORE PUSH1 0x20 PUSH1 0x4 DUP3 ADD MSTORE PUSH1 0x27 PUSH1 0x24 DUP3 ADD MSTORE PUSH32 0xECA1B4EC9EACED9598ECA78020EC958AEB8A942070726F6A6563744964EC9E85 PUSH1 0x44 DUP3 ADD MSTORE PUSH7 0x75C5C475C5D217 PUSH1 0xC9 SHL PUSH1 0x64 DUP3 ADD MSTORE PUSH1 0x84 ADD PUSH2 0x8CA JUMP JUMPDEST PUSH1 0x0 DUP3 DUP2 MSTORE PUSH1 0x7 PUSH1 0x20 MSTORE PUSH1 0x40 SWAP1 KECCAK256 PUSH1 0x5 ADD SLOAD PUSH1 0xFF AND PUSH2 0x10E1 JUMPI PUSH1 0x40 MLOAD PUSH3 0x461BCD PUSH1 0xE5 SHL DUP2 MSTORE PUSH1 0x20 PUSH1 0x4 DUP3 ADD MSTORE PUSH1 0x2D PUSH1 0x24 DUP3 ADD MSTORE PUSH32 0xED9884EC9EAC20ECBAA0ED8E98EC9DB8EC9DB420EBB984ED999CEC84B1EC8381 PUSH1 0x44 DUP3 ADD MSTORE PUSH13 0x76C1CE764F42F5C5C475C5D217 PUSH1 0x99 SHL PUSH1 0x64 DUP3 ADD MSTORE PUSH1 0x84 ADD PUSH2 0x8CA JUMP JUMPDEST PUSH1 0x0 DUP3 DUP2 MSTORE PUSH1 0x7 PUSH1 0x20 MSTORE PUSH1 0x40 SWAP1 KECCAK256 PUSH1 0x6 ADD SLOAD TIMESTAMP GT ISZERO PUSH2 0x1158 JUMPI PUSH1 0x40 MLOAD PUSH3 0x461BCD PUSH1 0xE5 SHL DUP2 MSTORE PUSH1 0x20 PUSH1 0x4 DUP3 ADD MSTORE PUSH1 0x2D PUSH1 0x24 DUP3 ADD MSTORE PUSH32 0xECBAA0ED8E98EC9DB8EC9DB420EC9DB4EBAFB820EBA78CEBA38CEBA38CEB9098 PUSH1 0x44 DUP3 ADD MSTORE PUSH13 0x764BC476455AF5C5C475C5D217 PUSH1 0x99 SHL PUSH1 0x64 DUP3 ADD MSTORE PUSH1 0x84 ADD PUSH2 0x8CA JUMP JUMPDEST PUSH1 0x0 CALLVALUE GT PUSH2 0x11BA JUMPI PUSH1 0x40 MLOAD PUSH3 0x461BCD PUSH1 0xE5 SHL DUP2 MSTORE PUSH1 0x20 PUSH1 0x4 DUP3 ADD MSTORE PUSH1 0x29 PUSH1 0x24 DUP3 ADD MSTORE PUSH32 0xEAB8B0EBB680EAB888EC9D802030657468EBB3B4EB8BA420ECBBA4EC95BC20ED PUSH1 0x44 DUP3 ADD MSTORE PUSH9 0x4AD4F5C5C475C5D217 PUSH1 0xB9 SHL PUSH1 0x64 DUP3 ADD MSTORE PUSH1 0x84 ADD PUSH2 0x8CA JUMP JUMPDEST PUSH1 0x0 PUSH1 0x64 PUSH1 0x2 SLOAD CALLVALUE PUSH2 0x11CC SWAP2 SWAP1 PUSH2 0x2EA4 JUMP JUMPDEST PUSH2 0x11D6 SWAP2 SWAP1 PUSH2 0x2EBB JUMP JUMPDEST SWAP1 POP PUSH1 0x0 PUSH2 0x11E4 DUP3 CALLVALUE PUSH2 0x2EDD JUMP JUMPDEST SWAP1 POP PUSH2 0x120F PUSH1 0x7 PUSH1 0x8 PUSH1 0x9 DUP8 DUP8 CALLER DUP8 PUSH1 0x1 PUSH1 0x0 SWAP1 SLOAD SWAP1 PUSH2 0x100 EXP SWAP1 DIV PUSH1 0x1 PUSH1 0x1 PUSH1 0xA0 SHL SUB AND DUP11 PUSH2 0x241A JUMP JUMPDEST DUP1 PUSH1 0x4 PUSH1 0x0 DUP3 DUP3 SLOAD PUSH2 0x1221 SWAP2 SWAP1 PUSH2 0x2759 JUMP JUMPDEST SWAP1 SWAP2 SSTORE POP POP PUSH1 0x40 DUP1 MLOAD DUP3 DUP2 MSTORE DUP5 ISZERO ISZERO PUSH1 0x20 DUP3 ADD MSTORE CALLER SWAP2 DUP7 SWAP2 PUSH32 0x492C78B519F1197017A41990501E8C48F80A775C8D084F1370BC3CDBE8A58BD0 SWAP2 ADD PUSH1 0x40 MLOAD DUP1 SWAP2 SUB SWAP1 LOG3 POP POP POP POP JUMP JUMPDEST PUSH2 0x1272 PUSH2 0x133E JUMP JUMPDEST PUSH2 0x1281 PUSH1 0x7 DUP4 DUP4 PUSH1 0x5 SLOAD PUSH2 0x262D JUMP JUMPDEST DUP2 PUSH32 0xE3935A56BDB77841C8F7679B73DC0DC35EEB647DE58F6BD32E0709411C5D7B79 DUP3 PUSH1 0x40 MLOAD PUSH2 0xBD3 SWAP2 DUP2 MSTORE PUSH1 0x20 ADD SWAP1 JUMP JUMPDEST PUSH2 0x12BB PUSH2 0x133E JUMP JUMPDEST PUSH2 0xC80 PUSH2 0x12D0 PUSH1 0x0 SLOAD PUSH1 0x1 PUSH1 0x1 PUSH1 0xA0 SHL SUB AND SWAP1 JUMP JUMPDEST SELFBALANCE PUSH2 0x2708 JUMP JUMPDEST PUSH2 0x12DE PUSH2 0x133E JUMP JUMPDEST PUSH1 0x1 PUSH1 0x1 PUSH1 0xA0 SHL SUB DUP2 AND PUSH2 0x1308 JUMPI PUSH1 0x40 MLOAD PUSH4 0x1E4FBDF7 PUSH1 0xE0 SHL DUP2 MSTORE PUSH1 0x0 PUSH1 0x4 DUP3 ADD MSTORE PUSH1 0x24 ADD PUSH2 0x8CA JUMP JUMPDEST PUSH2 0x1311 DUP2 PUSH2 0x1D72 JUMP JUMPDEST POP JUMP JUMPDEST PUSH2 0x131C PUSH2 0x133E JUMP JUMPDEST PUSH1 0xC DUP1 SLOAD PUSH1 0x1 PUSH1 0x1 PUSH1 0xA0 SHL SUB NOT AND PUSH1 0x1 PUSH1 0x1 PUSH1 0xA0 SHL SUB SWAP3 SWAP1 SWAP3 AND SWAP2 SWAP1 SWAP2 OR SWAP1 SSTORE JUMP JUMPDEST PUSH1 0x0 SLOAD PUSH1 0x1 PUSH1 0x1 PUSH1 0xA0 SHL SUB AND CALLER EQ PUSH2 0xC80 JUMPI PUSH1 0x40 MLOAD PUSH4 0x118CDAA7 PUSH1 0xE0 SHL DUP2 MSTORE CALLER PUSH1 0x4 DUP3 ADD MSTORE PUSH1 0x24 ADD PUSH2 0x8CA JUMP JUMPDEST PUSH1 0x0 DUP3 GT PUSH2 0x13D0 JUMPI PUSH1 0x40 MLOAD PUSH3 0x461BCD PUSH1 0xE5 SHL DUP2 MSTORE PUSH1 0x20 PUSH1 0x4 DUP3 ADD MSTORE PUSH1 0x2C PUSH1 0x24 DUP3 ADD MSTORE PUSH32 0xEBAAA9ED919C20EAB8B0EBB68020EAB888EC95A1EC9D802030657468EC9DB4EC PUSH1 0x44 DUP3 ADD MSTORE PUSH12 0x41C0F64F42F5C5C475C5D217 PUSH1 0xA1 SHL PUSH1 0x64 DUP3 ADD MSTORE PUSH1 0x84 ADD PUSH2 0x8CA JUMP JUMPDEST TIMESTAMP DUP2 GT PUSH2 0x1436 JUMPI PUSH1 0x40 MLOAD PUSH3 0x461BCD PUSH1 0xE5 SHL DUP2 MSTORE PUSH1 0x20 PUSH1 0x4 DUP3 ADD MSTORE PUSH1 0x2E PUSH1 0x24 DUP3 ADD MSTORE PUSH32 0xEAB8B0EBB68020EBA788EAB090EC9DBCEC9D8420EB8BA4EC8B9C20ED9995EC9D PUSH1 0x44 DUP3 ADD MSTORE PUSH14 0x5C76CADA7651DE76425C764D4A17 PUSH1 0x91 SHL PUSH1 0x64 DUP3 ADD MSTORE PUSH1 0x84 ADD PUSH2 0x8CA JUMP JUMPDEST PUSH1 0x1 PUSH1 0x1 PUSH1 0xA0 SHL SUB DUP4 AND PUSH2 0x14A1 JUMPI PUSH1 0x40 MLOAD PUSH3 0x461BCD PUSH1 0xE5 SHL DUP2 MSTORE PUSH1 0x20 PUSH1 0x4 DUP3 ADD MSTORE PUSH1 0x2C PUSH1 0x24 DUP3 ADD MSTORE PUSH32 0xECBAA0ED8E98EC9DB820ECA3BCEC868CEB8A9420307830EC9DBC20EC889820EC PUSH1 0x44 DUP3 ADD MSTORE PUSH12 0x4BC376455AF5C5C475C5D217 PUSH1 0xA1 SHL PUSH1 0x64 DUP3 ADD MSTORE PUSH1 0x84 ADD PUSH2 0x8CA JUMP JUMPDEST PUSH1 0x0 DUP7 DUP2 MSTORE PUSH1 0x20 DUP9 SWAP1 MSTORE PUSH1 0x40 SWAP1 KECCAK256 DUP1 SLOAD PUSH1 0x1 PUSH1 0x1 PUSH1 0xA0 SHL SUB NOT AND PUSH1 0x1 PUSH1 0x1 PUSH1 0xA0 SHL SUB DUP6 AND OR DUP2 SSTORE PUSH1 0x1 DUP2 ADD PUSH2 0x14D6 DUP8 DUP3 PUSH2 0x2DD2 JUMP JUMPDEST POP PUSH1 0x2 DUP2 ADD PUSH2 0x14E5 DUP7 DUP3 PUSH2 0x2DD2 JUMP JUMPDEST POP PUSH1 0x3 DUP2 ADD SWAP3 SWAP1 SWAP3 SSTORE PUSH1 0x0 PUSH1 0x4 DUP4 ADD DUP2 SWAP1 SSTORE PUSH1 0x5 DUP4 ADD DUP1 SLOAD PUSH1 0xFF NOT AND PUSH1 0x1 OR SWAP1 SSTORE PUSH1 0x6 DUP4 ADD SWAP2 SWAP1 SWAP2 SSTORE TIMESTAMP PUSH1 0x7 DUP4 ADD SSTORE PUSH1 0x9 SWAP1 SWAP2 ADD SSTORE POP POP POP POP POP JUMP JUMPDEST PUSH1 0x60 DUP1 DUP1 DUP1 DUP1 PUSH1 0x0 PUSH1 0x1 JUMPDEST DUP10 DUP2 GT PUSH2 0x156D JUMPI PUSH1 0x0 DUP2 DUP2 MSTORE PUSH1 0x20 DUP13 SWAP1 MSTORE PUSH1 0x40 SWAP1 KECCAK256 PUSH1 0x5 ADD SLOAD PUSH1 0xFF AND ISZERO PUSH2 0x155B JUMPI DUP2 PUSH2 0x1557 DUP2 PUSH2 0x2D07 JUMP JUMPDEST SWAP3 POP POP JUMPDEST DUP1 PUSH2 0x1565 DUP2 PUSH2 0x2D07 JUMP JUMPDEST SWAP2 POP POP PUSH2 0x152C JUMP JUMPDEST POP DUP7 DUP2 DUP10 LT PUSH2 0x157E JUMPI POP PUSH1 0x0 PUSH2 0x159C JUMP JUMPDEST DUP2 PUSH2 0x1589 DUP10 DUP12 PUSH2 0x2759 JUMP JUMPDEST GT ISZERO PUSH2 0x159C JUMPI PUSH2 0x1599 DUP10 DUP4 PUSH2 0x2EDD JUMP JUMPDEST SWAP1 POP JUMPDEST DUP1 PUSH1 0x1 PUSH1 0x1 PUSH1 0x40 SHL SUB DUP2 GT ISZERO PUSH2 0x15B4 JUMPI PUSH2 0x15B4 PUSH2 0x2878 JUMP JUMPDEST PUSH1 0x40 MLOAD SWAP1 DUP1 DUP3 MSTORE DUP1 PUSH1 0x20 MUL PUSH1 0x20 ADD DUP3 ADD PUSH1 0x40 MSTORE DUP1 ISZERO PUSH2 0x15DD JUMPI DUP2 PUSH1 0x20 ADD PUSH1 0x20 DUP3 MUL DUP1 CALLDATASIZE DUP4 CALLDATACOPY ADD SWAP1 POP JUMPDEST POP SWAP7 POP DUP1 PUSH1 0x1 PUSH1 0x1 PUSH1 0x40 SHL SUB DUP2 GT ISZERO PUSH2 0x15F8 JUMPI PUSH2 0x15F8 PUSH2 0x2878 JUMP JUMPDEST PUSH1 0x40 MLOAD SWAP1 DUP1 DUP3 MSTORE DUP1 PUSH1 0x20 MUL PUSH1 0x20 ADD DUP3 ADD PUSH1 0x40 MSTORE DUP1 ISZERO PUSH2 0x162B JUMPI DUP2 PUSH1 0x20 ADD JUMPDEST PUSH1 0x60 DUP2 MSTORE PUSH1 0x20 ADD SWAP1 PUSH1 0x1 SWAP1 SUB SWAP1 DUP2 PUSH2 0x1616 JUMPI SWAP1 POP JUMPDEST POP SWAP6 POP DUP1 PUSH1 0x1 PUSH1 0x1 PUSH1 0x40 SHL SUB DUP2 GT ISZERO PUSH2 0x1646 JUMPI PUSH2 0x1646 PUSH2 0x2878 JUMP JUMPDEST PUSH1 0x40 MLOAD SWAP1 DUP1 DUP3 MSTORE DUP1 PUSH1 0x20 MUL PUSH1 0x20 ADD DUP3 ADD PUSH1 0x40 MSTORE DUP1 ISZERO PUSH2 0x166F JUMPI DUP2 PUSH1 0x20 ADD PUSH1 0x20 DUP3 MUL DUP1 CALLDATASIZE DUP4 CALLDATACOPY ADD SWAP1 POP JUMPDEST POP SWAP5 POP DUP1 PUSH1 0x1 PUSH1 0x1 PUSH1 0x40 SHL SUB DUP2 GT ISZERO PUSH2 0x168A JUMPI PUSH2 0x168A PUSH2 0x2878 JUMP JUMPDEST PUSH1 0x40 MLOAD SWAP1 DUP1 DUP3 MSTORE DUP1 PUSH1 0x20 MUL PUSH1 0x20 ADD DUP3 ADD PUSH1 0x40 MSTORE DUP1 ISZERO PUSH2 0x16B3 JUMPI DUP2 PUSH1 0x20 ADD PUSH1 0x20 DUP3 MUL DUP1 CALLDATASIZE DUP4 CALLDATACOPY ADD SWAP1 POP JUMPDEST POP SWAP4 POP DUP1 PUSH1 0x1 PUSH1 0x1 PUSH1 0x40 SHL SUB DUP2 GT ISZERO PUSH2 0x16CE JUMPI PUSH2 0x16CE PUSH2 0x2878 JUMP JUMPDEST PUSH1 0x40 MLOAD SWAP1 DUP1 DUP3 MSTORE DUP1 PUSH1 0x20 MUL PUSH1 0x20 ADD DUP3 ADD PUSH1 0x40 MSTORE DUP1 ISZERO PUSH2 0x16F7 JUMPI DUP2 PUSH1 0x20 ADD PUSH1 0x20 DUP3 MUL DUP1 CALLDATASIZE DUP4 CALLDATACOPY ADD SWAP1 POP JUMPDEST POP SWAP3 POP DUP1 ISZERO PUSH2 0x18E2 JUMPI PUSH1 0x0 DUP1 PUSH1 0x1 JUMPDEST DUP13 DUP2 GT ISZERO DUP1 ISZERO PUSH2 0x1715 JUMPI POP DUP4 DUP3 LT JUMPDEST ISZERO PUSH2 0x18DE JUMPI PUSH1 0x0 DUP2 DUP2 MSTORE PUSH1 0x20 DUP16 SWAP1 MSTORE PUSH1 0x40 SWAP1 KECCAK256 PUSH1 0x5 ADD SLOAD PUSH1 0xFF AND ISZERO PUSH2 0x18CC JUMPI DUP12 DUP4 LT PUSH2 0x18BE JUMPI DUP1 DUP11 DUP4 DUP2 MLOAD DUP2 LT PUSH2 0x174E JUMPI PUSH2 0x174E PUSH2 0x2EF0 JUMP JUMPDEST PUSH1 0x20 MUL PUSH1 0x20 ADD ADD DUP2 DUP2 MSTORE POP POP DUP14 PUSH1 0x0 DUP3 DUP2 MSTORE PUSH1 0x20 ADD SWAP1 DUP2 MSTORE PUSH1 0x20 ADD PUSH1 0x0 KECCAK256 PUSH1 0x1 ADD DUP1 SLOAD PUSH2 0x177A SWAP1 PUSH2 0x2CCD JUMP JUMPDEST DUP1 PUSH1 0x1F ADD PUSH1 0x20 DUP1 SWAP2 DIV MUL PUSH1 0x20 ADD PUSH1 0x40 MLOAD SWAP1 DUP2 ADD PUSH1 0x40 MSTORE DUP1 SWAP3 SWAP2 SWAP1 DUP2 DUP2 MSTORE PUSH1 0x20 ADD DUP3 DUP1 SLOAD PUSH2 0x17A6 SWAP1 PUSH2 0x2CCD JUMP JUMPDEST DUP1 ISZERO PUSH2 0x17F3 JUMPI DUP1 PUSH1 0x1F LT PUSH2 0x17C8 JUMPI PUSH2 0x100 DUP1 DUP4 SLOAD DIV MUL DUP4 MSTORE SWAP2 PUSH1 0x20 ADD SWAP2 PUSH2 0x17F3 JUMP JUMPDEST DUP3 ADD SWAP2 SWAP1 PUSH1 0x0 MSTORE PUSH1 0x20 PUSH1 0x0 KECCAK256 SWAP1 JUMPDEST DUP2 SLOAD DUP2 MSTORE SWAP1 PUSH1 0x1 ADD SWAP1 PUSH1 0x20 ADD DUP1 DUP4 GT PUSH2 0x17D6 JUMPI DUP3 SWAP1 SUB PUSH1 0x1F AND DUP3 ADD SWAP2 JUMPDEST POP POP POP POP POP DUP10 DUP4 DUP2 MLOAD DUP2 LT PUSH2 0x180A JUMPI PUSH2 0x180A PUSH2 0x2EF0 JUMP JUMPDEST PUSH1 0x20 MUL PUSH1 0x20 ADD ADD DUP2 SWAP1 MSTORE POP DUP14 PUSH1 0x0 DUP3 DUP2 MSTORE PUSH1 0x20 ADD SWAP1 DUP2 MSTORE PUSH1 0x20 ADD PUSH1 0x0 KECCAK256 PUSH1 0x3 ADD SLOAD DUP9 DUP4 DUP2 MLOAD DUP2 LT PUSH2 0x183D JUMPI PUSH2 0x183D PUSH2 0x2EF0 JUMP JUMPDEST PUSH1 0x20 MUL PUSH1 0x20 ADD ADD DUP2 DUP2 MSTORE POP POP DUP14 PUSH1 0x0 DUP3 DUP2 MSTORE PUSH1 0x20 ADD SWAP1 DUP2 MSTORE PUSH1 0x20 ADD PUSH1 0x0 KECCAK256 PUSH1 0x4 ADD SLOAD DUP8 DUP4 DUP2 MLOAD DUP2 LT PUSH2 0x1871 JUMPI PUSH2 0x1871 PUSH2 0x2EF0 JUMP JUMPDEST PUSH1 0x20 MUL PUSH1 0x20 ADD ADD DUP2 DUP2 MSTORE POP POP DUP14 PUSH1 0x0 DUP3 DUP2 MSTORE PUSH1 0x20 ADD SWAP1 DUP2 MSTORE PUSH1 0x20 ADD PUSH1 0x0 KECCAK256 PUSH1 0x6 ADD SLOAD DUP7 DUP4 DUP2 MLOAD DUP2 LT PUSH2 0x18A5 JUMPI PUSH2 0x18A5 PUSH2 0x2EF0 JUMP JUMPDEST PUSH1 0x20 SWAP1 DUP2 MUL SWAP2 SWAP1 SWAP2 ADD ADD MSTORE DUP2 PUSH2 0x18BA DUP2 PUSH2 0x2D07 JUMP JUMPDEST SWAP3 POP POP JUMPDEST DUP3 PUSH2 0x18C8 DUP2 PUSH2 0x2D07 JUMP JUMPDEST SWAP4 POP POP JUMPDEST DUP1 PUSH2 0x18D6 DUP2 PUSH2 0x2D07 JUMP JUMPDEST SWAP2 POP POP PUSH2 0x1706 JUMP JUMPDEST POP POP POP JUMPDEST POP POP SWAP5 POP SWAP5 POP SWAP5 POP SWAP5 POP SWAP5 JUMP JUMPDEST PUSH1 0x3 SLOAD PUSH1 0x0 SWAP1 DUP2 SWAP1 PUSH1 0xFF AND ISZERO PUSH2 0x1917 JUMPI PUSH1 0x40 MLOAD PUSH3 0x461BCD PUSH1 0xE5 SHL DUP2 MSTORE PUSH1 0x4 ADD PUSH2 0x8CA SWAP1 PUSH2 0x2F06 JUMP JUMPDEST PUSH1 0x3 DUP1 SLOAD PUSH1 0xFF NOT AND PUSH1 0x1 OR DUP2 SSTORE PUSH1 0x0 DUP5 DUP2 MSTORE PUSH1 0x20 DUP8 SWAP1 MSTORE PUSH1 0x40 SWAP1 KECCAK256 SWAP1 DUP2 ADD SLOAD PUSH1 0xFF AND ISZERO PUSH2 0x1986 JUMPI PUSH1 0x40 MLOAD PUSH3 0x461BCD PUSH1 0xE5 SHL DUP2 MSTORE PUSH1 0x20 PUSH1 0x4 DUP3 ADD MSTORE PUSH1 0x18 PUSH1 0x24 DUP3 ADD MSTORE PUSH32 0x5265717565737420616C72656164792065786563757465640000000000000000 PUSH1 0x44 DUP3 ADD MSTORE PUSH1 0x64 ADD PUSH2 0x8CA JUMP JUMPDEST PUSH3 0x15180 DUP2 PUSH1 0x2 ADD SLOAD PUSH2 0x1999 SWAP2 SWAP1 PUSH2 0x2759 JUMP JUMPDEST TIMESTAMP LT ISZERO PUSH2 0x19E8 JUMPI PUSH1 0x40 MLOAD PUSH3 0x461BCD PUSH1 0xE5 SHL DUP2 MSTORE PUSH1 0x20 PUSH1 0x4 DUP3 ADD MSTORE PUSH1 0x1A PUSH1 0x24 DUP3 ADD MSTORE PUSH32 0x54696D656C6F636B20706572696F64206E6F7420706173736564000000000000 PUSH1 0x44 DUP3 ADD MSTORE PUSH1 0x64 ADD PUSH2 0x8CA JUMP JUMPDEST DUP1 SLOAD PUSH1 0x0 SWAP1 DUP2 MSTORE PUSH1 0x20 DUP7 SWAP1 MSTORE PUSH1 0x40 SWAP1 KECCAK256 PUSH1 0x4 DUP2 ADD SLOAD PUSH1 0x1 DUP4 ADD SLOAD GT ISZERO PUSH2 0x1A45 JUMPI PUSH1 0x40 MLOAD PUSH3 0x461BCD PUSH1 0xE5 SHL DUP2 MSTORE PUSH1 0x20 PUSH1 0x4 DUP3 ADD MSTORE PUSH1 0x12 PUSH1 0x24 DUP3 ADD MSTORE PUSH18 0x496E73756666696369656E742066756E6473 PUSH1 0x70 SHL PUSH1 0x44 DUP3 ADD MSTORE PUSH1 0x64 ADD PUSH2 0x8CA JUMP JUMPDEST PUSH1 0x3 DUP3 ADD DUP1 SLOAD PUSH1 0xFF NOT AND PUSH1 0x1 SWAP1 DUP2 OR SWAP1 SWAP2 SSTORE DUP3 ADD SLOAD PUSH1 0x4 DUP3 ADD DUP1 SLOAD PUSH1 0x0 SWAP1 PUSH2 0x1A6E SWAP1 DUP5 SWAP1 PUSH2 0x2EDD JUMP JUMPDEST SWAP1 SWAP2 SSTORE POP POP SLOAD PUSH1 0x1 SWAP2 SWAP1 SWAP2 ADD SLOAD PUSH1 0x3 DUP1 SLOAD PUSH1 0xFF NOT AND SWAP1 SSTORE PUSH1 0x1 PUSH1 0x1 PUSH1 0xA0 SHL SUB SWAP1 SWAP2 AND SWAP7 SWAP1 SWAP6 POP SWAP4 POP POP POP POP JUMP JUMPDEST PUSH1 0x3 SLOAD PUSH1 0xFF AND ISZERO PUSH2 0x1ABE JUMPI PUSH1 0x40 MLOAD PUSH3 0x461BCD PUSH1 0xE5 SHL DUP2 MSTORE PUSH1 0x4 ADD PUSH2 0x8CA SWAP1 PUSH2 0x2F06 JUMP JUMPDEST PUSH1 0x3 DUP1 SLOAD PUSH1 0xFF NOT AND PUSH1 0x1 OR SWAP1 SSTORE PUSH1 0x0 DUP2 DUP2 MSTORE PUSH1 0x20 DUP5 SWAP1 MSTORE PUSH1 0x40 SWAP1 KECCAK256 PUSH1 0x5 DUP2 ADD SLOAD PUSH1 0xFF AND PUSH2 0x1B25 JUMPI PUSH1 0x40 MLOAD PUSH3 0x461BCD PUSH1 0xE5 SHL DUP2 MSTORE PUSH1 0x20 PUSH1 0x4 DUP3 ADD MSTORE PUSH1 0x15 PUSH1 0x24 DUP3 ADD MSTORE PUSH21 0x50726F6A656374206973206E6F7420616374697665 PUSH1 0x58 SHL PUSH1 0x44 DUP3 ADD MSTORE PUSH1 0x64 ADD PUSH2 0x8CA JUMP JUMPDEST PUSH1 0x5 DUP2 ADD DUP1 SLOAD PUSH1 0xFF NOT AND SWAP1 SSTORE PUSH1 0x0 DUP3 DUP2 MSTORE PUSH1 0x20 DUP5 SWAP1 MSTORE PUSH1 0x40 DUP2 KECCAK256 SWAP1 JUMPDEST DUP2 SLOAD DUP2 LT ISZERO PUSH2 0x1BC0 JUMPI PUSH1 0x0 DUP3 DUP3 DUP2 SLOAD DUP2 LT PUSH2 0x1B5E JUMPI PUSH2 0x1B5E PUSH2 0x2EF0 JUMP JUMPDEST PUSH1 0x0 SWAP2 DUP3 MSTORE PUSH1 0x20 DUP3 KECCAK256 PUSH1 0x5 SWAP1 SWAP2 MUL ADD DUP1 SLOAD PUSH1 0x2 DUP3 ADD SLOAD PUSH1 0x40 MLOAD SWAP3 SWAP5 POP PUSH1 0x1 PUSH1 0x1 PUSH1 0xA0 SHL SUB SWAP1 SWAP2 AND SWAP3 DUP2 ISZERO PUSH2 0x8FC MUL SWAP3 SWAP1 DUP2 DUP2 DUP2 DUP6 DUP9 DUP9 CALL SWAP4 POP POP POP POP ISZERO DUP1 ISZERO PUSH2 0x1BAB JUMPI RETURNDATASIZE PUSH1 0x0 DUP1 RETURNDATACOPY RETURNDATASIZE PUSH1 0x0 REVERT JUMPDEST POP POP DUP1 DUP1 PUSH2 0x1BB8 SWAP1 PUSH2 0x2D07 JUMP JUMPDEST SWAP2 POP POP PUSH2 0x1B41 JUMP JUMPDEST POP POP PUSH1 0x0 PUSH1 0x4 SWAP1 SWAP2 ADD SSTORE POP POP PUSH1 0x3 DUP1 SLOAD PUSH1 0xFF NOT AND SWAP1 SSTORE POP JUMP JUMPDEST PUSH1 0x0 DUP2 DUP2 MSTORE PUSH1 0x20 DUP4 SWAP1 MSTORE PUSH1 0x40 DUP2 KECCAK256 DUP1 SLOAD PUSH1 0x3 DUP3 ADD SLOAD PUSH1 0x4 DUP4 ADD SLOAD PUSH1 0x5 DUP5 ADD SLOAD PUSH1 0x6 DUP6 ADD SLOAD PUSH1 0x7 DUP7 ADD SLOAD PUSH1 0x9 DUP8 ADD SLOAD PUSH1 0x1 DUP9 ADD DUP1 SLOAD PUSH1 0x60 SWAP11 DUP12 SWAP11 SWAP1 SWAP10 DUP11 SWAP10 DUP11 SWAP10 DUP11 SWAP10 DUP11 SWAP10 DUP11 SWAP10 DUP11 SWAP10 SWAP7 SWAP9 SWAP8 PUSH1 0x2 DUP11 ADD SWAP8 PUSH1 0x1 PUSH1 0x1 PUSH1 0xA0 SHL SUB SWAP1 SWAP8 AND SWAP7 PUSH1 0xFF SWAP1 SWAP5 AND SWAP4 SWAP1 DUP10 SWAP1 PUSH2 0x1C46 SWAP1 PUSH2 0x2CCD JUMP JUMPDEST DUP1 PUSH1 0x1F ADD PUSH1 0x20 DUP1 SWAP2 DIV MUL PUSH1 0x20 ADD PUSH1 0x40 MLOAD SWAP1 DUP2 ADD PUSH1 0x40 MSTORE DUP1 SWAP3 SWAP2 SWAP1 DUP2 DUP2 MSTORE PUSH1 0x20 ADD DUP3 DUP1 SLOAD PUSH2 0x1C72 SWAP1 PUSH2 0x2CCD JUMP JUMPDEST DUP1 ISZERO PUSH2 0x1CBF JUMPI DUP1 PUSH1 0x1F LT PUSH2 0x1C94 JUMPI PUSH2 0x100 DUP1 DUP4 SLOAD DIV MUL DUP4 MSTORE SWAP2 PUSH1 0x20 ADD SWAP2 PUSH2 0x1CBF JUMP JUMPDEST DUP3 ADD SWAP2 SWAP1 PUSH1 0x0 MSTORE PUSH1 0x20 PUSH1 0x0 KECCAK256 SWAP1 JUMPDEST DUP2 SLOAD DUP2 MSTORE SWAP1 PUSH1 0x1 ADD SWAP1 PUSH1 0x20 ADD DUP1 DUP4 GT PUSH2 0x1CA2 JUMPI DUP3 SWAP1 SUB PUSH1 0x1F AND DUP3 ADD SWAP2 JUMPDEST POP POP POP POP POP SWAP9 POP DUP8 DUP1 SLOAD PUSH2 0x1CD2 SWAP1 PUSH2 0x2CCD JUMP JUMPDEST DUP1 PUSH1 0x1F ADD PUSH1 0x20 DUP1 SWAP2 DIV MUL PUSH1 0x20 ADD PUSH1 0x40 MLOAD SWAP1 DUP2 ADD PUSH1 0x40 MSTORE DUP1 SWAP3 SWAP2 SWAP1 DUP2 DUP2 MSTORE PUSH1 0x20 ADD DUP3 DUP1 SLOAD PUSH2 0x1CFE SWAP1 PUSH2 0x2CCD JUMP JUMPDEST DUP1 ISZERO PUSH2 0x1D4B JUMPI DUP1 PUSH1 0x1F LT PUSH2 0x1D20 JUMPI PUSH2 0x100 DUP1 DUP4 SLOAD DIV MUL DUP4 MSTORE SWAP2 PUSH1 0x20 ADD SWAP2 PUSH2 0x1D4B JUMP JUMPDEST DUP3 ADD SWAP2 SWAP1 PUSH1 0x0 MSTORE PUSH1 0x20 PUSH1 0x0 KECCAK256 SWAP1 JUMPDEST DUP2 SLOAD DUP2 MSTORE SWAP1 PUSH1 0x1 ADD SWAP1 PUSH1 0x20 ADD DUP1 DUP4 GT PUSH2 0x1D2E JUMPI DUP3 SWAP1 SUB PUSH1 0x1F AND DUP3 ADD SWAP2 JUMPDEST POP POP POP POP POP SWAP8 POP SWAP10 POP SWAP10 POP SWAP10 POP SWAP10 POP SWAP10 POP SWAP10 POP SWAP10 POP SWAP10 POP SWAP10 POP POP SWAP3 SWAP6 SWAP9 POP SWAP3 SWAP6 SWAP9 POP SWAP3 SWAP6 SWAP9 JUMP JUMPDEST PUSH1 0x0 DUP1 SLOAD PUSH1 0x1 PUSH1 0x1 PUSH1 0xA0 SHL SUB DUP4 DUP2 AND PUSH1 0x1 PUSH1 0x1 PUSH1 0xA0 SHL SUB NOT DUP4 AND DUP2 OR DUP5 SSTORE PUSH1 0x40 MLOAD SWAP2 SWAP1 SWAP3 AND SWAP3 DUP4 SWAP2 PUSH32 0x8BE0079C531659141344CD1FD0A4F28419497F9722A3DAAFE3B4186F6B6457E0 SWAP2 SWAP1 LOG3 POP POP JUMP JUMPDEST PUSH1 0x0 DUP3 GT DUP1 ISZERO PUSH2 0x1DD2 JUMPI POP DUP1 DUP3 GT ISZERO JUMPDEST PUSH2 0x1E34 JUMPI PUSH1 0x40 MLOAD PUSH3 0x461BCD PUSH1 0xE5 SHL DUP2 MSTORE PUSH1 0x20 PUSH1 0x4 DUP3 ADD MSTORE PUSH1 0x2D PUSH1 0x24 DUP3 ADD MSTORE PUSH32 0xED9484EBA19CECA09DED8AB8206964EBA5BC20EB8BA4EC8B9C20EC9E85EBA0A5 PUSH1 0x44 DUP3 ADD MSTORE PUSH13 0x76CADA7651DE76425C764D4A17 PUSH1 0x99 SHL PUSH1 0x64 DUP3 ADD MSTORE PUSH1 0x84 ADD PUSH2 0x8CA JUMP JUMPDEST POP PUSH1 0x0 SWAP1 DUP2 MSTORE PUSH1 0x20 SWAP2 SWAP1 SWAP2 MSTORE PUSH1 0x40 SWAP1 KECCAK256 PUSH1 0x5 ADD DUP1 SLOAD PUSH1 0xFF NOT DUP2 AND PUSH1 0xFF SWAP1 SWAP2 AND ISZERO OR SWAP1 SSTORE JUMP JUMPDEST PUSH1 0x3 SLOAD PUSH1 0xFF AND ISZERO PUSH2 0x1E7C JUMPI PUSH1 0x40 MLOAD PUSH3 0x461BCD PUSH1 0xE5 SHL DUP2 MSTORE PUSH1 0x4 ADD PUSH2 0x8CA SWAP1 PUSH2 0x2F06 JUMP JUMPDEST PUSH1 0x3 DUP1 SLOAD PUSH1 0xFF NOT AND PUSH1 0x1 OR SWAP1 SSTORE PUSH1 0x0 DUP3 DUP2 MSTORE PUSH1 0x20 DUP7 SWAP1 MSTORE PUSH1 0x40 SWAP1 KECCAK256 DUP2 ISZERO DUP1 ISZERO SWAP1 PUSH2 0x1EAA JUMPI POP DUP1 PUSH1 0x4 ADD SLOAD DUP3 GT ISZERO JUMPDEST PUSH2 0x1EE7 JUMPI PUSH1 0x40 MLOAD PUSH3 0x461BCD PUSH1 0xE5 SHL DUP2 MSTORE PUSH1 0x20 PUSH1 0x4 DUP3 ADD MSTORE PUSH1 0xE PUSH1 0x24 DUP3 ADD MSTORE PUSH14 0x125B9D985B1A5908185B5BDD5B9D PUSH1 0x92 SHL PUSH1 0x44 DUP3 ADD MSTORE PUSH1 0x64 ADD PUSH2 0x8CA JUMP JUMPDEST POP PUSH1 0x40 DUP1 MLOAD PUSH1 0x80 DUP2 ADD DUP3 MSTORE SWAP3 DUP4 MSTORE PUSH1 0x20 DUP1 DUP5 ADD SWAP3 DUP4 MSTORE TIMESTAMP DUP5 DUP4 ADD SWAP1 DUP2 MSTORE PUSH1 0x0 PUSH1 0x60 DUP7 ADD DUP2 DUP2 MSTORE SWAP7 DUP2 MSTORE SWAP7 SWAP1 SWAP2 MSTORE SWAP5 KECCAK256 SWAP2 MLOAD DUP3 SSTORE MLOAD PUSH1 0x1 DUP3 ADD SSTORE SWAP2 MLOAD PUSH1 0x2 DUP4 ADD SSTORE MLOAD PUSH1 0x3 SWAP2 DUP3 ADD DUP1 SLOAD SWAP2 ISZERO ISZERO PUSH1 0xFF NOT SWAP3 DUP4 AND OR SWAP1 SSTORE DUP2 SLOAD AND SWAP1 SSTORE POP JUMP JUMPDEST PUSH1 0x0 DUP4 DUP2 MSTORE PUSH1 0x20 DUP6 SWAP1 MSTORE PUSH1 0x40 SWAP1 KECCAK256 DUP1 SLOAD PUSH1 0x60 SWAP2 DUP3 SWAP2 DUP3 SWAP2 DUP3 SWAP2 DUP7 SWAP1 PUSH2 0x1F68 DUP3 DUP11 PUSH2 0x2759 JUMP JUMPDEST GT ISZERO PUSH2 0x1F8D JUMPI DUP2 SLOAD DUP9 LT PUSH2 0x1F7D JUMPI PUSH1 0x0 PUSH2 0x1F8A JUMP JUMPDEST DUP2 SLOAD PUSH2 0x1F8A SWAP1 DUP10 SWAP1 PUSH2 0x2EDD JUMP JUMPDEST SWAP1 POP JUMPDEST DUP1 PUSH1 0x1 PUSH1 0x1 PUSH1 0x40 SHL SUB DUP2 GT ISZERO PUSH2 0x1FA5 JUMPI PUSH2 0x1FA5 PUSH2 0x2878 JUMP JUMPDEST PUSH1 0x40 MLOAD SWAP1 DUP1 DUP3 MSTORE DUP1 PUSH1 0x20 MUL PUSH1 0x20 ADD DUP3 ADD PUSH1 0x40 MSTORE DUP1 ISZERO PUSH2 0x1FCE JUMPI DUP2 PUSH1 0x20 ADD PUSH1 0x20 DUP3 MUL DUP1 CALLDATASIZE DUP4 CALLDATACOPY ADD SWAP1 POP JUMPDEST POP SWAP6 POP DUP1 PUSH1 0x1 PUSH1 0x1 PUSH1 0x40 SHL SUB DUP2 GT ISZERO PUSH2 0x1FE9 JUMPI PUSH2 0x1FE9 PUSH2 0x2878 JUMP JUMPDEST PUSH1 0x40 MLOAD SWAP1 DUP1 DUP3 MSTORE DUP1 PUSH1 0x20 MUL PUSH1 0x20 ADD DUP3 ADD PUSH1 0x40 MSTORE DUP1 ISZERO PUSH2 0x2012 JUMPI DUP2 PUSH1 0x20 ADD PUSH1 0x20 DUP3 MUL DUP1 CALLDATASIZE DUP4 CALLDATACOPY ADD SWAP1 POP JUMPDEST POP SWAP5 POP DUP1 PUSH1 0x1 PUSH1 0x1 PUSH1 0x40 SHL SUB DUP2 GT ISZERO PUSH2 0x202D JUMPI PUSH2 0x202D PUSH2 0x2878 JUMP JUMPDEST PUSH1 0x40 MLOAD SWAP1 DUP1 DUP3 MSTORE DUP1 PUSH1 0x20 MUL PUSH1 0x20 ADD DUP3 ADD PUSH1 0x40 MSTORE DUP1 ISZERO PUSH2 0x2056 JUMPI DUP2 PUSH1 0x20 ADD PUSH1 0x20 DUP3 MUL DUP1 CALLDATASIZE DUP4 CALLDATACOPY ADD SWAP1 POP JUMPDEST POP SWAP4 POP DUP1 PUSH1 0x1 PUSH1 0x1 PUSH1 0x40 SHL SUB DUP2 GT ISZERO PUSH2 0x2071 JUMPI PUSH2 0x2071 PUSH2 0x2878 JUMP JUMPDEST PUSH1 0x40 MLOAD SWAP1 DUP1 DUP3 MSTORE DUP1 PUSH1 0x20 MUL PUSH1 0x20 ADD DUP3 ADD PUSH1 0x40 MSTORE DUP1 ISZERO PUSH2 0x209A JUMPI DUP2 PUSH1 0x20 ADD PUSH1 0x20 DUP3 MUL DUP1 CALLDATASIZE DUP4 CALLDATACOPY ADD SWAP1 POP JUMPDEST POP SWAP3 POP PUSH1 0x0 JUMPDEST DUP2 DUP2 LT ISZERO PUSH2 0x219F JUMPI PUSH1 0x0 DUP4 PUSH2 0x20B5 DUP4 DUP13 PUSH2 0x2759 JUMP JUMPDEST DUP2 SLOAD DUP2 LT PUSH2 0x20C5 JUMPI PUSH2 0x20C5 PUSH2 0x2EF0 JUMP JUMPDEST PUSH1 0x0 SWAP2 DUP3 MSTORE PUSH1 0x20 SWAP1 SWAP2 KECCAK256 PUSH1 0x5 SWAP1 SWAP2 MUL ADD DUP1 SLOAD DUP10 MLOAD SWAP2 SWAP3 POP PUSH1 0x1 PUSH1 0x1 PUSH1 0xA0 SHL SUB AND SWAP1 DUP10 SWAP1 DUP5 SWAP1 DUP2 LT PUSH2 0x20F8 JUMPI PUSH2 0x20F8 PUSH2 0x2EF0 JUMP JUMPDEST PUSH1 0x20 MUL PUSH1 0x20 ADD ADD SWAP1 PUSH1 0x1 PUSH1 0x1 PUSH1 0xA0 SHL SUB AND SWAP1 DUP2 PUSH1 0x1 PUSH1 0x1 PUSH1 0xA0 SHL SUB AND DUP2 MSTORE POP POP DUP1 PUSH1 0x2 ADD SLOAD DUP8 DUP4 DUP2 MLOAD DUP2 LT PUSH2 0x212F JUMPI PUSH2 0x212F PUSH2 0x2EF0 JUMP JUMPDEST PUSH1 0x20 MUL PUSH1 0x20 ADD ADD DUP2 DUP2 MSTORE POP POP DUP1 PUSH1 0x3 ADD SLOAD DUP7 DUP4 DUP2 MLOAD DUP2 LT PUSH2 0x2152 JUMPI PUSH2 0x2152 PUSH2 0x2EF0 JUMP JUMPDEST PUSH1 0x20 SWAP1 DUP2 MUL SWAP2 SWAP1 SWAP2 ADD ADD MSTORE PUSH1 0x4 DUP2 ADD SLOAD DUP6 MLOAD PUSH1 0xFF SWAP1 SWAP2 AND SWAP1 DUP7 SWAP1 DUP5 SWAP1 DUP2 LT PUSH2 0x217C JUMPI PUSH2 0x217C PUSH2 0x2EF0 JUMP JUMPDEST SWAP2 ISZERO ISZERO PUSH1 0x20 SWAP3 DUP4 MUL SWAP2 SWAP1 SWAP2 ADD SWAP1 SWAP2 ADD MSTORE POP DUP1 PUSH2 0x2197 DUP2 PUSH2 0x2D07 JUMP JUMPDEST SWAP2 POP POP PUSH2 0x20A0 JUMP JUMPDEST POP POP POP SWAP5 POP SWAP5 POP SWAP5 POP SWAP5 SWAP1 POP JUMP JUMPDEST PUSH1 0x0 DUP4 GT DUP1 ISZERO PUSH2 0x21BD JUMPI POP DUP1 DUP4 GT ISZERO JUMPDEST PUSH2 0x21D9 JUMPI PUSH1 0x40 MLOAD PUSH3 0x461BCD PUSH1 0xE5 SHL DUP2 MSTORE PUSH1 0x4 ADD PUSH2 0x8CA SWAP1 PUSH2 0x2F63 JUMP JUMPDEST TIMESTAMP DUP3 GT PUSH2 0x2245 JUMPI PUSH1 0x40 MLOAD PUSH3 0x461BCD PUSH1 0xE5 SHL DUP2 MSTORE PUSH1 0x20 PUSH1 0x4 DUP3 ADD MSTORE PUSH1 0x34 PUSH1 0x24 DUP3 ADD MSTORE PUSH32 0xEC97B0EC9EA5EB909C20EBA788EAB090EC9DBC20EC9E85EBA0A5EC9DB420EC9E PUSH1 0x44 DUP3 ADD MSTORE PUSH20 0x4C75D55DF5C84C764BC476455AF5C5C475C5D217 PUSH1 0x61 SHL PUSH1 0x64 DUP3 ADD MSTORE PUSH1 0x84 ADD PUSH2 0x8CA JUMP JUMPDEST PUSH1 0x0 DUP4 DUP2 MSTORE PUSH1 0x20 DUP6 SWAP1 MSTORE PUSH1 0x40 SWAP1 KECCAK256 PUSH1 0x6 ADD SLOAD DUP3 GT PUSH2 0x22DA JUMPI PUSH1 0x40 MLOAD PUSH3 0x461BCD PUSH1 0xE5 SHL DUP2 MSTORE PUSH1 0x20 PUSH1 0x4 DUP3 ADD MSTORE PUSH1 0x46 PUSH1 0x24 DUP3 ADD MSTORE PUSH32 0xEC97B0EC9EA5EB909C20EBA788EAB090EC9DBCEC9D8020EC97B0EC9EA520ECA0 PUSH1 0x44 DUP3 ADD MSTORE PUSH32 0x8420EBA788EAB090EC9DBCEBB3B4EB8BA420EAB8B8EC96B4EC95BC20ED95A9EB PUSH1 0x64 DUP3 ADD MSTORE PUSH6 0x45C475C5D217 PUSH1 0xD1 SHL PUSH1 0x84 DUP3 ADD MSTORE PUSH1 0xA4 ADD PUSH2 0x8CA JUMP JUMPDEST POP PUSH1 0x0 SWAP2 DUP3 MSTORE PUSH1 0x20 SWAP3 SWAP1 SWAP3 MSTORE PUSH1 0x40 SWAP1 KECCAK256 PUSH1 0x6 ADD SSTORE JUMP JUMPDEST PUSH1 0x1 PUSH1 0x1 PUSH1 0xA0 SHL SUB DUP2 AND PUSH1 0x0 SWAP1 DUP2 MSTORE PUSH1 0x20 DUP4 SWAP1 MSTORE PUSH1 0x40 DUP2 KECCAK256 PUSH1 0x1 DUP2 ADD SLOAD PUSH1 0x3 DUP3 ADD SLOAD DUP3 SLOAD PUSH1 0x60 SWAP5 SWAP4 DUP6 SWAP4 DUP6 SWAP4 SWAP2 SWAP3 DUP4 SWAP3 PUSH1 0x2 DUP5 ADD SWAP2 PUSH1 0xFF SWAP1 SWAP2 AND SWAP1 DUP5 SWAP1 PUSH2 0x2336 SWAP1 PUSH2 0x2CCD JUMP JUMPDEST DUP1 PUSH1 0x1F ADD PUSH1 0x20 DUP1 SWAP2 DIV MUL PUSH1 0x20 ADD PUSH1 0x40 MLOAD SWAP1 DUP2 ADD PUSH1 0x40 MSTORE DUP1 SWAP3 SWAP2 SWAP1 DUP2 DUP2 MSTORE PUSH1 0x20 ADD DUP3 DUP1 SLOAD PUSH2 0x2362 SWAP1 PUSH2 0x2CCD JUMP JUMPDEST DUP1 ISZERO PUSH2 0x23AF JUMPI DUP1 PUSH1 0x1F LT PUSH2 0x2384 JUMPI PUSH2 0x100 DUP1 DUP4 SLOAD DIV MUL DUP4 MSTORE SWAP2 PUSH1 0x20 ADD SWAP2 PUSH2 0x23AF JUMP JUMPDEST DUP3 ADD SWAP2 SWAP1 PUSH1 0x0 MSTORE PUSH1 0x20 PUSH1 0x0 KECCAK256 SWAP1 JUMPDEST DUP2 SLOAD DUP2 MSTORE SWAP1 PUSH1 0x1 ADD SWAP1 PUSH1 0x20 ADD DUP1 DUP4 GT PUSH2 0x2392 JUMPI DUP3 SWAP1 SUB PUSH1 0x1F AND DUP3 ADD SWAP2 JUMPDEST POP POP POP POP POP SWAP4 POP DUP2 DUP1 SLOAD DUP1 PUSH1 0x20 MUL PUSH1 0x20 ADD PUSH1 0x40 MLOAD SWAP1 DUP2 ADD PUSH1 0x40 MSTORE DUP1 SWAP3 SWAP2 SWAP1 DUP2 DUP2 MSTORE PUSH1 0x20 ADD DUP3 DUP1 SLOAD DUP1 ISZERO PUSH2 0x2401 JUMPI PUSH1 0x20 MUL DUP3 ADD SWAP2 SWAP1 PUSH1 0x0 MSTORE PUSH1 0x20 PUSH1 0x0 KECCAK256 SWAP1 JUMPDEST DUP2 SLOAD DUP2 MSTORE PUSH1 0x20 ADD SWAP1 PUSH1 0x1 ADD SWAP1 DUP1 DUP4 GT PUSH2 0x23ED JUMPI JUMPDEST POP POP POP POP POP SWAP2 POP SWAP5 POP SWAP5 POP SWAP5 POP SWAP5 POP POP SWAP3 SWAP6 SWAP2 SWAP5 POP SWAP3 POP JUMP JUMPDEST PUSH1 0x3 SLOAD PUSH1 0xFF AND ISZERO PUSH2 0x243D JUMPI PUSH1 0x40 MLOAD PUSH3 0x461BCD PUSH1 0xE5 SHL DUP2 MSTORE PUSH1 0x4 ADD PUSH2 0x8CA SWAP1 PUSH2 0x2F06 JUMP JUMPDEST PUSH1 0x3 DUP1 SLOAD PUSH1 0xFF NOT AND PUSH1 0x1 OR SWAP1 SSTORE DUP1 ISZERO PUSH2 0x2488 JUMPI PUSH1 0x40 MLOAD PUSH1 0x1 PUSH1 0x1 PUSH1 0xA0 SHL SUB DUP4 AND SWAP1 DUP3 ISZERO PUSH2 0x8FC MUL SWAP1 DUP4 SWAP1 PUSH1 0x0 DUP2 DUP2 DUP2 DUP6 DUP9 DUP9 CALL SWAP4 POP POP POP POP ISZERO DUP1 ISZERO PUSH2 0x2486 JUMPI RETURNDATASIZE PUSH1 0x0 DUP1 RETURNDATACOPY RETURNDATASIZE PUSH1 0x0 REVERT JUMPDEST POP JUMPDEST PUSH1 0x0 DUP7 DUP2 MSTORE PUSH1 0x20 DUP11 SWAP1 MSTORE PUSH1 0x40 DUP2 KECCAK256 PUSH1 0x4 DUP2 ADD DUP1 SLOAD SWAP2 SWAP3 DUP7 SWAP3 PUSH2 0x24AB SWAP1 DUP5 SWAP1 PUSH2 0x2759 JUMP JUMPDEST SWAP1 SWAP2 SSTORE POP POP PUSH1 0x1 PUSH1 0x1 PUSH1 0xA0 SHL SUB DUP6 AND PUSH1 0x0 SWAP1 DUP2 MSTORE PUSH1 0x20 DUP11 SWAP1 MSTORE PUSH1 0x40 DUP2 KECCAK256 PUSH1 0x1 DUP2 ADD DUP1 SLOAD SWAP2 SWAP3 DUP8 SWAP3 PUSH2 0x24DD SWAP1 DUP5 SWAP1 PUSH2 0x2759 JUMP JUMPDEST SWAP1 SWAP2 SSTORE POP POP PUSH1 0x1 PUSH1 0x1 PUSH1 0xA0 SHL SUB DUP7 AND PUSH1 0x0 SWAP1 DUP2 MSTORE PUSH1 0x8 DUP4 ADD PUSH1 0x20 MSTORE PUSH1 0x40 SWAP1 KECCAK256 SLOAD PUSH1 0xFF AND PUSH2 0x2559 JUMPI PUSH1 0x2 DUP2 ADD DUP1 SLOAD PUSH1 0x1 DUP2 DUP2 ADD DUP4 SSTORE PUSH1 0x0 SWAP3 DUP4 MSTORE PUSH1 0x20 DUP1 DUP5 KECCAK256 SWAP1 SWAP3 ADD DUP12 SWAP1 SSTORE PUSH1 0x1 PUSH1 0x1 PUSH1 0xA0 SHL SUB DUP10 AND DUP4 MSTORE PUSH1 0x8 DUP6 ADD SWAP1 SWAP2 MSTORE PUSH1 0x40 DUP3 KECCAK256 DUP1 SLOAD PUSH1 0xFF NOT AND SWAP1 SWAP2 OR SWAP1 SSTORE PUSH1 0x9 DUP4 ADD DUP1 SLOAD SWAP2 PUSH2 0x2553 DUP4 PUSH2 0x2D07 JUMP JUMPDEST SWAP2 SWAP1 POP SSTORE POP JUMPDEST PUSH1 0x0 DUP9 DUP2 MSTORE PUSH1 0x20 DUP11 DUP2 MSTORE PUSH1 0x40 DUP1 DUP4 KECCAK256 DUP2 MLOAD PUSH1 0xA0 DUP2 ADD DUP4 MSTORE PUSH1 0x1 PUSH1 0x1 PUSH1 0xA0 SHL SUB DUP12 DUP2 AND DUP3 MSTORE DUP2 DUP6 ADD DUP15 DUP2 MSTORE SWAP4 DUP3 ADD DUP12 DUP2 MSTORE TIMESTAMP PUSH1 0x60 DUP5 ADD SWAP1 DUP2 MSTORE DUP15 ISZERO ISZERO PUSH1 0x80 DUP6 ADD SWAP1 DUP2 MSTORE DUP6 SLOAD PUSH1 0x1 DUP1 DUP3 ADD DUP9 SSTORE SWAP7 DUP11 MSTORE SWAP8 SWAP1 SWAP9 KECCAK256 SWAP4 MLOAD PUSH1 0x5 SWAP1 SWAP8 MUL SWAP1 SWAP4 ADD DUP1 SLOAD PUSH1 0x1 PUSH1 0x1 PUSH1 0xA0 SHL SUB NOT AND SWAP7 SWAP1 SWAP3 AND SWAP6 SWAP1 SWAP6 OR DUP2 SSTORE SWAP3 MLOAD SWAP2 DUP4 ADD SWAP2 SWAP1 SWAP2 SSTORE SWAP2 MLOAD PUSH1 0x2 DUP3 ADD SSTORE SWAP1 MLOAD PUSH1 0x3 DUP1 DUP4 ADD SWAP2 SWAP1 SWAP2 SSTORE SWAP2 MLOAD PUSH1 0x4 SWAP2 DUP3 ADD DUP1 SLOAD PUSH1 0xFF NOT AND SWAP2 ISZERO ISZERO SWAP2 SWAP1 SWAP2 OR SWAP1 SSTORE SWAP1 DUP4 ADD SLOAD SWAP1 DUP4 ADD SLOAD LT PUSH2 0x2616 JUMPI PUSH1 0x5 DUP3 ADD DUP1 SLOAD PUSH1 0xFF NOT AND SWAP1 SSTORE JUMPDEST POP POP PUSH1 0x3 DUP1 SLOAD PUSH1 0xFF NOT AND SWAP1 SSTORE POP POP POP POP POP POP POP POP POP JUMP JUMPDEST PUSH1 0x0 DUP4 GT DUP1 ISZERO PUSH2 0x263D JUMPI POP DUP1 DUP4 GT ISZERO JUMPDEST PUSH2 0x2659 JUMPI PUSH1 0x40 MLOAD PUSH3 0x461BCD PUSH1 0xE5 SHL DUP2 MSTORE PUSH1 0x4 ADD PUSH2 0x8CA SWAP1 PUSH2 0x2F63 JUMP JUMPDEST PUSH1 0x0 DUP4 DUP2 MSTORE PUSH1 0x20 DUP6 SWAP1 MSTORE PUSH1 0x40 SWAP1 KECCAK256 PUSH1 0x3 ADD SLOAD DUP3 GT PUSH2 0x26F2 JUMPI PUSH1 0x40 MLOAD PUSH3 0x461BCD PUSH1 0xE5 SHL DUP2 MSTORE PUSH1 0x20 PUSH1 0x4 DUP3 ADD MSTORE PUSH1 0x4A PUSH1 0x24 DUP3 ADD MSTORE PUSH32 0xEC8388EBA19C20EC84A4ECA095ED95A020EBAAA9ED919C20EAB888EC95A1EC9D PUSH1 0x44 DUP3 ADD MSTORE PUSH32 0x8020EAB8B0ECA1B420EAB888EC95A1EBB3B4EB8BA420EB8692EC9584EC95BC20 PUSH1 0x64 DUP3 ADD MSTORE PUSH10 0x76CAD4F5C5C475C5D217 PUSH1 0xB1 SHL PUSH1 0x84 DUP3 ADD MSTORE PUSH1 0xA4 ADD PUSH2 0x8CA JUMP JUMPDEST POP PUSH1 0x0 SWAP2 DUP3 MSTORE PUSH1 0x20 SWAP3 SWAP1 SWAP3 MSTORE PUSH1 0x40 SWAP1 KECCAK256 PUSH1 0x3 ADD SSTORE JUMP JUMPDEST PUSH1 0x40 MLOAD PUSH1 0x1 PUSH1 0x1 PUSH1 0xA0 SHL SUB DUP4 AND SWAP1 DUP3 ISZERO PUSH2 0x8FC MUL SWAP1 DUP4 SWAP1 PUSH1 0x0 DUP2 DUP2 DUP2 DUP6 DUP9 DUP9 CALL SWAP4 POP POP POP POP ISZERO DUP1 ISZERO PUSH2 0x273E JUMPI RETURNDATASIZE PUSH1 0x0 DUP1 RETURNDATACOPY RETURNDATASIZE PUSH1 0x0 REVERT JUMPDEST POP POP POP JUMP JUMPDEST PUSH4 0x4E487B71 PUSH1 0xE0 SHL PUSH1 0x0 MSTORE PUSH1 0x11 PUSH1 0x4 MSTORE PUSH1 0x24 PUSH1 0x0 REVERT JUMPDEST DUP1 DUP3 ADD DUP1 DUP3 GT ISZERO PUSH2 0x276C JUMPI PUSH2 0x276C PUSH2 0x2743 JUMP JUMPDEST SWAP3 SWAP2 POP POP JUMP JUMPDEST PUSH1 0x0 PUSH1 0x20 DUP3 DUP5 SUB SLT ISZERO PUSH2 0x2784 JUMPI PUSH1 0x0 DUP1 REVERT JUMPDEST POP CALLDATALOAD SWAP2 SWAP1 POP JUMP JUMPDEST PUSH1 0x0 DUP2 MLOAD DUP1 DUP5 MSTORE PUSH1 0x0 JUMPDEST DUP2 DUP2 LT ISZERO PUSH2 0x27B1 JUMPI PUSH1 0x20 DUP2 DUP6 ADD DUP2 ADD MLOAD DUP7 DUP4 ADD DUP3 ADD MSTORE ADD PUSH2 0x2795 JUMP JUMPDEST POP PUSH1 0x0 PUSH1 0x20 DUP3 DUP7 ADD ADD MSTORE PUSH1 0x20 PUSH1 0x1F NOT PUSH1 0x1F DUP4 ADD AND DUP6 ADD ADD SWAP2 POP POP SWAP3 SWAP2 POP POP JUMP JUMPDEST PUSH1 0x1 PUSH1 0x1 PUSH1 0xA0 SHL SUB DUP11 AND DUP2 MSTORE PUSH2 0x120 PUSH1 0x20 DUP3 ADD DUP2 SWAP1 MSTORE PUSH1 0x0 SWAP1 PUSH2 0x27F6 DUP4 DUP3 ADD DUP13 PUSH2 0x278B JUMP JUMPDEST SWAP1 POP DUP3 DUP2 SUB PUSH1 0x40 DUP5 ADD MSTORE PUSH2 0x280A DUP2 DUP12 PUSH2 0x278B JUMP JUMPDEST PUSH1 0x60 DUP5 ADD SWAP10 SWAP1 SWAP10 MSTORE POP POP PUSH1 0x80 DUP2 ADD SWAP6 SWAP1 SWAP6 MSTORE SWAP3 ISZERO ISZERO PUSH1 0xA0 DUP6 ADD MSTORE PUSH1 0xC0 DUP5 ADD SWAP2 SWAP1 SWAP2 MSTORE PUSH1 0xE0 DUP4 ADD MSTORE PUSH2 0x100 SWAP1 SWAP2 ADD MSTORE SWAP4 SWAP3 POP POP POP JUMP JUMPDEST PUSH1 0x1 PUSH1 0x1 PUSH1 0xA0 SHL SUB DUP2 AND DUP2 EQ PUSH2 0x1311 JUMPI PUSH1 0x0 DUP1 REVERT JUMPDEST PUSH1 0x0 PUSH1 0x20 DUP3 DUP5 SUB SLT ISZERO PUSH2 0x2866 JUMPI PUSH1 0x0 DUP1 REVERT JUMPDEST DUP2 CALLDATALOAD PUSH2 0x2871 DUP2 PUSH2 0x283F JUMP JUMPDEST SWAP4 SWAP3 POP POP POP JUMP JUMPDEST PUSH4 0x4E487B71 PUSH1 0xE0 SHL PUSH1 0x0 MSTORE PUSH1 0x41 PUSH1 0x4 MSTORE PUSH1 0x24 PUSH1 0x0 REVERT JUMPDEST PUSH1 0x0 DUP3 PUSH1 0x1F DUP4 ADD SLT PUSH2 0x289F JUMPI PUSH1 0x0 DUP1 REVERT JUMPDEST DUP2 CALLDATALOAD PUSH1 0x1 PUSH1 0x1 PUSH1 0x40 SHL SUB DUP1 DUP3 GT ISZERO PUSH2 0x28B9 JUMPI PUSH2 0x28B9 PUSH2 0x2878 JUMP JUMPDEST PUSH1 0x40 MLOAD PUSH1 0x1F DUP4 ADD PUSH1 0x1F NOT SWAP1 DUP2 AND PUSH1 0x3F ADD AND DUP2 ADD SWAP1 DUP3 DUP3 GT DUP2 DUP4 LT OR ISZERO PUSH2 0x28E1 JUMPI PUSH2 0x28E1 PUSH2 0x2878 JUMP JUMPDEST DUP2 PUSH1 0x40 MSTORE DUP4 DUP2 MSTORE DUP7 PUSH1 0x20 DUP6 DUP9 ADD ADD GT ISZERO PUSH2 0x28FA JUMPI PUSH1 0x0 DUP1 REVERT JUMPDEST DUP4 PUSH1 0x20 DUP8 ADD PUSH1 0x20 DUP4 ADD CALLDATACOPY PUSH1 0x0 PUSH1 0x20 DUP6 DUP4 ADD ADD MSTORE DUP1 SWAP5 POP POP POP POP POP SWAP3 SWAP2 POP POP JUMP JUMPDEST PUSH1 0x0 DUP1 PUSH1 0x0 DUP1 PUSH1 0x0 PUSH1 0xA0 DUP7 DUP9 SUB SLT ISZERO PUSH2 0x2932 JUMPI PUSH1 0x0 DUP1 REVERT JUMPDEST DUP6 CALLDATALOAD PUSH1 0x1 PUSH1 0x1 PUSH1 0x40 SHL SUB DUP1 DUP3 GT ISZERO PUSH2 0x2949 JUMPI PUSH1 0x0 DUP1 REVERT JUMPDEST PUSH2 0x2955 DUP10 DUP4 DUP11 ADD PUSH2 0x288E JUMP JUMPDEST SWAP7 POP PUSH1 0x20 DUP9 ADD CALLDATALOAD SWAP2 POP DUP1 DUP3 GT ISZERO PUSH2 0x296B JUMPI PUSH1 0x0 DUP1 REVERT JUMPDEST POP PUSH2 0x2978 DUP9 DUP3 DUP10 ADD PUSH2 0x288E JUMP JUMPDEST SWAP5 POP POP PUSH1 0x40 DUP7 ADD CALLDATALOAD PUSH2 0x2989 DUP2 PUSH2 0x283F JUMP JUMPDEST SWAP5 SWAP8 SWAP4 SWAP7 POP SWAP4 SWAP5 PUSH1 0x60 DUP2 ADD CALLDATALOAD SWAP5 POP PUSH1 0x80 ADD CALLDATALOAD SWAP3 SWAP2 POP POP JUMP JUMPDEST PUSH1 0x0 DUP1 PUSH1 0x40 DUP4 DUP6 SUB SLT ISZERO PUSH2 0x29B4 JUMPI PUSH1 0x0 DUP1 REVERT JUMPDEST POP POP DUP1 CALLDATALOAD SWAP3 PUSH1 0x20 SWAP1 SWAP2 ADD CALLDATALOAD SWAP2 POP JUMP JUMPDEST PUSH1 0x0 DUP2 MLOAD DUP1 DUP5 MSTORE PUSH1 0x20 DUP1 DUP6 ADD SWAP5 POP DUP1 DUP5 ADD PUSH1 0x0 JUMPDEST DUP4 DUP2 LT ISZERO PUSH2 0x29F3 JUMPI DUP2 MLOAD DUP8 MSTORE SWAP6 DUP3 ADD SWAP6 SWAP1 DUP3 ADD SWAP1 PUSH1 0x1 ADD PUSH2 0x29D7 JUMP JUMPDEST POP SWAP5 SWAP6 SWAP5 POP POP POP POP POP JUMP JUMPDEST PUSH1 0xA0 DUP2 MSTORE PUSH1 0x0 PUSH2 0x2A11 PUSH1 0xA0 DUP4 ADD DUP9 PUSH2 0x29C3 JUMP JUMPDEST PUSH1 0x20 DUP4 DUP3 SUB DUP2 DUP6 ADD MSTORE DUP2 DUP9 MLOAD DUP1 DUP5 MSTORE DUP3 DUP5 ADD SWAP2 POP DUP3 DUP2 PUSH1 0x5 SHL DUP6 ADD ADD DUP4 DUP12 ADD PUSH1 0x0 JUMPDEST DUP4 DUP2 LT ISZERO PUSH2 0x2A61 JUMPI PUSH1 0x1F NOT DUP8 DUP5 SUB ADD DUP6 MSTORE PUSH2 0x2A4F DUP4 DUP4 MLOAD PUSH2 0x278B JUMP JUMPDEST SWAP5 DUP7 ADD SWAP5 SWAP3 POP SWAP1 DUP6 ADD SWAP1 PUSH1 0x1 ADD PUSH2 0x2A33 JUMP JUMPDEST POP POP DUP7 DUP2 SUB PUSH1 0x40 DUP9 ADD MSTORE PUSH2 0x2A75 DUP2 DUP12 PUSH2 0x29C3 JUMP JUMPDEST SWAP5 POP POP POP POP POP DUP3 DUP2 SUB PUSH1 0x60 DUP5 ADD MSTORE PUSH2 0x2A8D DUP2 DUP7 PUSH2 0x29C3 JUMP JUMPDEST SWAP1 POP DUP3 DUP2 SUB PUSH1 0x80 DUP5 ADD MSTORE PUSH2 0x2AA1 DUP2 DUP6 PUSH2 0x29C3 JUMP JUMPDEST SWAP9 SWAP8 POP POP POP POP POP POP POP POP JUMP JUMPDEST PUSH1 0x0 PUSH1 0x20 DUP3 DUP5 SUB SLT ISZERO PUSH2 0x2ABF JUMPI PUSH1 0x0 DUP1 REVERT JUMPDEST DUP2 CALLDATALOAD PUSH1 0x1 PUSH1 0x1 PUSH1 0x40 SHL SUB DUP2 GT ISZERO PUSH2 0x2AD5 JUMPI PUSH1 0x0 DUP1 REVERT JUMPDEST PUSH2 0x2AE1 DUP5 DUP3 DUP6 ADD PUSH2 0x288E JUMP JUMPDEST SWAP5 SWAP4 POP POP POP POP JUMP JUMPDEST PUSH1 0x0 PUSH2 0x120 DUP1 DUP4 MSTORE PUSH2 0x2AFD DUP2 DUP5 ADD DUP14 PUSH2 0x278B JUMP JUMPDEST SWAP1 POP DUP3 DUP2 SUB PUSH1 0x20 DUP5 ADD MSTORE PUSH2 0x2B11 DUP2 DUP13 PUSH2 0x278B JUMP JUMPDEST PUSH1 0x1 PUSH1 0x1 PUSH1 0xA0 SHL SUB SWAP11 SWAP1 SWAP11 AND PUSH1 0x40 DUP5 ADD MSTORE POP POP PUSH1 0x60 DUP2 ADD SWAP7 SWAP1 SWAP7 MSTORE PUSH1 0x80 DUP7 ADD SWAP5 SWAP1 SWAP5 MSTORE SWAP2 ISZERO ISZERO PUSH1 0xA0 DUP6 ADD MSTORE PUSH1 0xC0 DUP5 ADD MSTORE PUSH1 0xE0 DUP4 ADD MSTORE PUSH2 0x100 SWAP1 SWAP2 ADD MSTORE SWAP3 SWAP2 POP POP JUMP JUMPDEST PUSH1 0x0 DUP1 PUSH1 0x0 PUSH1 0x60 DUP5 DUP7 SUB SLT ISZERO PUSH2 0x2B68 JUMPI PUSH1 0x0 DUP1 REVERT JUMPDEST POP POP DUP2 CALLDATALOAD SWAP4 PUSH1 0x20 DUP4 ADD CALLDATALOAD SWAP4 POP PUSH1 0x40 SWAP1 SWAP3 ADD CALLDATALOAD SWAP2 SWAP1 POP JUMP JUMPDEST PUSH1 0x80 DUP1 DUP3 MSTORE DUP6 MLOAD SWAP1 DUP3 ADD DUP2 SWAP1 MSTORE PUSH1 0x0 SWAP1 PUSH1 0x20 SWAP1 PUSH1 0xA0 DUP5 ADD SWAP1 DUP3 DUP10 ADD DUP5 JUMPDEST DUP3 DUP2 LT ISZERO PUSH2 0x2BC1 JUMPI DUP2 MLOAD PUSH1 0x1 PUSH1 0x1 PUSH1 0xA0 SHL SUB AND DUP5 MSTORE SWAP3 DUP5 ADD SWAP3 SWAP1 DUP5 ADD SWAP1 PUSH1 0x1 ADD PUSH2 0x2B9C JUMP JUMPDEST POP POP POP DUP4 DUP2 SUB DUP3 DUP6 ADD MSTORE PUSH2 0x2BD5 DUP2 DUP9 PUSH2 0x29C3 JUMP JUMPDEST SWAP1 POP DUP4 DUP2 SUB PUSH1 0x40 DUP6 ADD MSTORE PUSH2 0x2BE9 DUP2 DUP8 PUSH2 0x29C3 JUMP JUMPDEST DUP5 DUP2 SUB PUSH1 0x60 DUP7 ADD MSTORE DUP6 MLOAD DUP1 DUP3 MSTORE DUP4 DUP8 ADD SWAP3 POP SWAP1 DUP4 ADD SWAP1 PUSH1 0x0 JUMPDEST DUP2 DUP2 LT ISZERO PUSH2 0x2C20 JUMPI DUP4 MLOAD ISZERO ISZERO DUP4 MSTORE SWAP3 DUP5 ADD SWAP3 SWAP2 DUP5 ADD SWAP2 PUSH1 0x1 ADD PUSH2 0x2C02 JUMP JUMPDEST POP SWAP1 SWAP10 SWAP9 POP POP POP POP POP POP POP POP POP JUMP JUMPDEST PUSH1 0x80 DUP2 MSTORE PUSH1 0x0 PUSH2 0x2C42 PUSH1 0x80 DUP4 ADD DUP8 PUSH2 0x278B JUMP JUMPDEST DUP6 PUSH1 0x20 DUP5 ADD MSTORE DUP3 DUP2 SUB PUSH1 0x40 DUP5 ADD MSTORE PUSH2 0x2C5A DUP2 DUP7 PUSH2 0x29C3 JUMP JUMPDEST SWAP2 POP POP DUP3 ISZERO ISZERO PUSH1 0x60 DUP4 ADD MSTORE SWAP6 SWAP5 POP POP POP POP POP JUMP JUMPDEST PUSH1 0x60 DUP2 MSTORE PUSH1 0x0 PUSH2 0x2C81 PUSH1 0x60 DUP4 ADD DUP7 PUSH2 0x278B JUMP JUMPDEST PUSH1 0x20 DUP4 ADD SWAP5 SWAP1 SWAP5 MSTORE POP SWAP1 ISZERO ISZERO PUSH1 0x40 SWAP1 SWAP2 ADD MSTORE SWAP2 SWAP1 POP JUMP JUMPDEST PUSH1 0x0 DUP1 PUSH1 0x40 DUP4 DUP6 SUB SLT ISZERO PUSH2 0x2CAB JUMPI PUSH1 0x0 DUP1 REVERT JUMPDEST DUP3 CALLDATALOAD SWAP2 POP PUSH1 0x20 DUP4 ADD CALLDATALOAD DUP1 ISZERO ISZERO DUP2 EQ PUSH2 0x2CC2 JUMPI PUSH1 0x0 DUP1 REVERT JUMPDEST DUP1 SWAP2 POP POP SWAP3 POP SWAP3 SWAP1 POP JUMP JUMPDEST PUSH1 0x1 DUP2 DUP2 SHR SWAP1 DUP3 AND DUP1 PUSH2 0x2CE1 JUMPI PUSH1 0x7F DUP3 AND SWAP2 POP JUMPDEST PUSH1 0x20 DUP3 LT DUP2 SUB PUSH2 0x2D01 JUMPI PUSH4 0x4E487B71 PUSH1 0xE0 SHL PUSH1 0x0 MSTORE PUSH1 0x22 PUSH1 0x4 MSTORE PUSH1 0x24 PUSH1 0x0 REVERT JUMPDEST POP SWAP2 SWAP1 POP JUMP JUMPDEST PUSH1 0x0 PUSH1 0x1 DUP3 ADD PUSH2 0x2D19 JUMPI PUSH2 0x2D19 PUSH2 0x2743 JUMP JUMPDEST POP PUSH1 0x1 ADD SWAP1 JUMP JUMPDEST PUSH1 0x80 DUP2 MSTORE PUSH1 0x0 PUSH2 0x2D33 PUSH1 0x80 DUP4 ADD DUP8 PUSH2 0x278B JUMP JUMPDEST PUSH1 0x1 PUSH1 0x1 PUSH1 0xA0 SHL SUB SWAP6 SWAP1 SWAP6 AND PUSH1 0x20 DUP4 ADD MSTORE POP PUSH1 0x40 DUP2 ADD SWAP3 SWAP1 SWAP3 MSTORE PUSH1 0x60 SWAP1 SWAP2 ADD MSTORE SWAP2 SWAP1 POP JUMP JUMPDEST PUSH1 0x20 DUP1 DUP3 MSTORE PUSH1 0x12 SWAP1 DUP3 ADD MSTORE PUSH18 0x125B9D985B1A59081C1C9BDA9958DD081251 PUSH1 0x72 SHL PUSH1 0x40 DUP3 ADD MSTORE PUSH1 0x60 ADD SWAP1 JUMP JUMPDEST PUSH1 0x1F DUP3 GT ISZERO PUSH2 0x273E JUMPI PUSH1 0x0 DUP2 DUP2 MSTORE PUSH1 0x20 DUP2 KECCAK256 PUSH1 0x1F DUP6 ADD PUSH1 0x5 SHR DUP2 ADD PUSH1 0x20 DUP7 LT ISZERO PUSH2 0x2DAB JUMPI POP DUP1 JUMPDEST PUSH1 0x1F DUP6 ADD PUSH1 0x5 SHR DUP3 ADD SWAP2 POP JUMPDEST DUP2 DUP2 LT ISZERO PUSH2 0x2DCA JUMPI DUP3 DUP2 SSTORE PUSH1 0x1 ADD PUSH2 0x2DB7 JUMP JUMPDEST POP POP POP POP POP POP JUMP JUMPDEST DUP2 MLOAD PUSH1 0x1 PUSH1 0x1 PUSH1 0x40 SHL SUB DUP2 GT ISZERO PUSH2 0x2DEB JUMPI PUSH2 0x2DEB PUSH2 0x2878 JUMP JUMPDEST PUSH2 0x2DFF DUP2 PUSH2 0x2DF9 DUP5 SLOAD PUSH2 0x2CCD JUMP JUMPDEST DUP5 PUSH2 0x2D84 JUMP JUMPDEST PUSH1 0x20 DUP1 PUSH1 0x1F DUP4 GT PUSH1 0x1 DUP2 EQ PUSH2 0x2E34 JUMPI PUSH1 0x0 DUP5 ISZERO PUSH2 0x2E1C JUMPI POP DUP6 DUP4 ADD MLOAD JUMPDEST PUSH1 0x0 NOT PUSH1 0x3 DUP7 SWAP1 SHL SHR NOT AND PUSH1 0x1 DUP6 SWAP1 SHL OR DUP6 SSTORE PUSH2 0x2DCA JUMP JUMPDEST PUSH1 0x0 DUP6 DUP2 MSTORE PUSH1 0x20 DUP2 KECCAK256 PUSH1 0x1F NOT DUP7 AND SWAP2 JUMPDEST DUP3 DUP2 LT ISZERO PUSH2 0x2E63 JUMPI DUP9 DUP7 ADD MLOAD DUP3 SSTORE SWAP5 DUP5 ADD SWAP5 PUSH1 0x1 SWAP1 SWAP2 ADD SWAP1 DUP5 ADD PUSH2 0x2E44 JUMP JUMPDEST POP DUP6 DUP3 LT ISZERO PUSH2 0x2E81 JUMPI DUP8 DUP6 ADD MLOAD PUSH1 0x0 NOT PUSH1 0x3 DUP9 SWAP1 SHL PUSH1 0xF8 AND SHR NOT AND DUP2 SSTORE JUMPDEST POP POP POP POP POP PUSH1 0x1 SWAP1 DUP2 SHL ADD SWAP1 SSTORE POP JUMP JUMPDEST PUSH1 0x20 DUP2 MSTORE PUSH1 0x0 PUSH2 0x2871 PUSH1 0x20 DUP4 ADD DUP5 PUSH2 0x278B JUMP JUMPDEST DUP1 DUP3 MUL DUP2 ISZERO DUP3 DUP3 DIV DUP5 EQ OR PUSH2 0x276C JUMPI PUSH2 0x276C PUSH2 0x2743 JUMP JUMPDEST PUSH1 0x0 DUP3 PUSH2 0x2ED8 JUMPI PUSH4 0x4E487B71 PUSH1 0xE0 SHL PUSH1 0x0 MSTORE PUSH1 0x12 PUSH1 0x4 MSTORE PUSH1 0x24 PUSH1 0x0 REVERT JUMPDEST POP DIV SWAP1 JUMP JUMPDEST DUP2 DUP2 SUB DUP2 DUP2 GT ISZERO PUSH2 0x276C JUMPI PUSH2 0x276C PUSH2 0x2743 JUMP JUMPDEST PUSH4 0x4E487B71 PUSH1 0xE0 SHL PUSH1 0x0 MSTORE PUSH1 0x32 PUSH1 0x4 MSTORE PUSH1 0x24 PUSH1 0x0 REVERT JUMPDEST PUSH1 0x20 DUP1 DUP3 MSTORE PUSH1 0x3A SWAP1 DUP3 ADD MSTORE PUSH32 0x5265656E7472616E637947756172643A20EC9EACECA784EC9E8520EC8B9CEB8F PUSH1 0x40 DUP3 ADD MSTORE PUSH32 0x84EAB08020EAB090ECA780EB9098EC9788EC8AB5EB8B88EB8BA4000000000000 PUSH1 0x60 DUP3 ADD MSTORE PUSH1 0x80 ADD SWAP1 JUMP JUMPDEST PUSH1 0x20 DUP1 DUP3 MSTORE PUSH1 0x27 SWAP1 DUP3 ADD MSTORE PUSH32 0xEC9CA0ED9AA8ED9598ECA78020EC958AEC9D802070726F6A6563744964EC9E85 PUSH1 0x40 DUP3 ADD MSTORE PUSH7 0x75C5C475C5D217 PUSH1 0xC9 SHL PUSH1 0x60 DUP3 ADD MSTORE PUSH1 0x80 ADD SWAP1 JUMP INVALID LOG2 PUSH5 0x6970667358 0x22 SLT KECCAK256 JUMP 0xEA 0x27 SWAP5 0xC6 PUSH19 0x89446745A47B46880989D2CA685A47BE264B1D PUSH20 0x39F8DBEDE57D64736F6C63430008140033000000 "},"methodIdentifiers":{"WITHDRAWAL_TIMELOCK()":"4d439485","cancelProjectAndRefund(uint256)":"25c18fd9","createProject(string,string,address,uint256,uint256)":"2177fa3b","donate(uint256,bool)":"ca6a04a5","donationCertificate()":"0e7e846f","donationToken()":"0df72159","donors(address)":"ca0cdea8","emergencyWithdraw()":"db2e21bc","executeWithdrawal(uint256)":"24f13a76","extendProjectDeadline(uint256,uint256)":"bfb695a2","getActiveProjects(uint256,uint256)":"239c5ed8","getDonorInfo(address)":"c46a60a5","getProjectDetails(uint256)":"5f8439e3","getProjectDonations(uint256,uint256,uint256)":"b7ed2f16","increaseProjectTarget(uint256,uint256)":"d49335cf","owner()":"8da5cb5b","platformFeePercent()":"8c639a85","platformFeeRecipient()":"eb13554f","projectCount()":"36fbad26","projectDonations(uint256,uint256)":"c56f3cac","projects(uint256)":"107046bd","renounceOwnership()":"715018a6","requestWithdrawal(uint256,uint256)":"ae2ebd7f","setDonationCertificate(address)":"f5cd8acf","setDonationToken(address)":"45ce0a0c","setDonorName(string)":"34607994","setPlatformFee(uint256)":"12e8e2c3","setPlatformFeeRecipient(address)":"1871e243","toggleProjectStatus(uint256)":"8b8a417e","totalDonations()":"de2ed893","transferOwnership(address)":"f2fde38b","withdrawalRequestCount()":"19e44e32","withdrawalRequests(uint256)":"937b2581"}}}}}