{"contracts/DonationCore.sol":{"DonationCore":{"abi":[{"inputs":[],"name":"WITHDRAWAL_TIMELOCK","outputs":[{"internalType":"uint256","name":"","type":"uint256"}],"stateMutability":"view","type":"function"}],"evm":{"bytecode":{"linkReferences":{},"object":"6080604052348015600f57600080fd5b50607e8061001e6000396000f3fe6080604052348015600f57600080fd5b506004361060285760003560e01c80634d43948514602d575b600080fd5b60366201518081565b60405190815260200160405180910390f3fea26469706673582212209daf2237f00fe1b43c9d2ef6a7fca00ad52ed262145e7bceb4b07e2eee73572f64736f6c63430008140033","opcodes":"PUSH1 0x80 PUSH1 0x40 MSTORE CALLVALUE DUP1 ISZERO PUSH1 0xF JUMPI PUSH1 0x0 DUP1 REVERT JUMPDEST POP PUSH1 0x7E DUP1 PUSH2 0x1E PUSH1 0x0 CODECOPY PUSH1 0x0 RETURN INVALID PUSH1 0x80 PUSH1 0x40 MSTORE CALLVALUE DUP1 ISZERO PUSH1 0xF JUMPI PUSH1 0x0 DUP1 REVERT JUMPDEST POP PUSH1 0x4 CALLDATASIZE LT PUSH1 0x28 JUMPI PUSH1 0x0 CALLDATALOAD PUSH1 0xE0 SHR DUP1 PUSH4 0x4D439485 EQ PUSH1 0x2D JUMPI JUMPDEST PUSH1 0x0 DUP1 REVERT JUMPDEST PUSH1 0x36 PUSH3 0x15180 DUP2 JUMP JUMPDEST PUSH1 0x40 MLOAD SWAP1 DUP2 MSTORE PUSH1 0x20 ADD PUSH1 0x40 MLOAD DUP1 SWAP2 SUB SWAP1 RETURN INVALID LOG2 PUSH5 0x6970667358 0x22 SLT KECCAK256 SWAP14 0xAF 0x22 CALLDATACOPY CREATE 0xF 0xE1 0xB4 EXTCODECOPY SWAP14 0x2E 0xF6 0xA7 0xFC LOG0 EXP 0xD5 0x2E 0xD2 PUSH3 0x145E7B 0xCE 0xB4 0xB0 PUSH31 0x2EEE73572F64736F6C63430008140033000000000000000000000000000000 "},"methodIdentifiers":{"WITHDRAWAL_TIMELOCK()":"4d439485"}}}}}