{
  "contractName": "DonationPlatform",
  "abi": [
    {
      "inputs": [
        {
          "internalType": "uint256",
          "name": "_initialFee",
          "type": "uint256"
        }
      ],
      "stateMutability": "nonpayable",
      "type": "constructor"
    },
    {
      "anonymous": false,
      "inputs": [
        {
          "indexed": true,
          "internalType": "address",
          "name": "owner",
          "type": "address"
        },
        {
          "indexed": true,
          "internalType": "address",
          "name": "approved",
          "type": "address"
        },
        {
          "indexed": true,
          "internalType": "uint256",
          "name": "tokenId",
          "type": "uint256"
        }
      ],
      "name": "Approval",
      "type": "event"
    },
    {
      "anonymous": false,
      "inputs": [
        {
          "indexed": true,
          "internalType": "address",
          "name": "owner",
          "type": "address"
        },
        {
          "indexed": true,
          "internalType": "address",
          "name": "operator",
          "type": "address"
        },
        {
          "indexed": false,
          "internalType": "bool",
          "name": "approved",
          "type": "bool"
        }
      ],
      "name": "ApprovalForAll",
      "type": "event"
    },
    {
      "anonymous": false,
      "inputs": [
        {
          "indexed": false,
          "internalType": "uint256",
          "name": "_fromTokenId",
          "type": "uint256"
        },
        {
          "indexed": false,
          "internalType": "uint256",
          "name": "_toTokenId",
          "type": "uint256"
        }
      ],
      "name": "BatchMetadataUpdate",
      "type": "event"
    },
    {
      "anonymous": false,
      "inputs": [
        {
          "indexed": true,
          "internalType": "address",
          "name": "donor",
          "type": "address"
        },
        {
          "indexed": true,
          "internalType": "address",
          "name": "beneficiary",
          "type": "address"
        },
        {
          "indexed": false,
          "internalType": "uint256",
          "name": "amount",
          "type": "uint256"
        },
        {
          "indexed": false,
          "internalType": "enum DonationPlatform.DonationCategory",
          "name": "category",
          "type": "uint8"
        }
      ],
      "name": "DonationReceived",
      "type": "event"
    },
    {
      "anonymous": false,
      "inputs": [
        {
          "indexed": true,
          "internalType": "address",
          "name": "beneficiary",
          "type": "address"
        },
        {
          "indexed": false,
          "internalType": "uint256",
          "name": "amount",
          "type": "uint256"
        }
      ],
      "name": "FundsWithdrawn",
      "type": "event"
    },
    {
      "anonymous": false,
      "inputs": [
        {
          "indexed": false,
          "internalType": "uint256",
          "name": "_tokenId",
          "type": "uint256"
        }
      ],
      "name": "MetadataUpdate",
      "type": "event"
    },
    {
      "anonymous": false,
      "inputs": [
        {
          "indexed": true,
          "internalType": "uint256",
          "name": "tokenId",
          "type": "uint256"
        },
        {
          "indexed": true,
          "internalType": "address",
          "name": "donor",
          "type": "address"
        },
        {
          "indexed": true,
          "internalType": "address",
          "name": "beneficiary",
          "type": "address"
        },
        {
          "indexed": false,
          "internalType": "uint256",
          "name": "amount",
          "type": "uint256"
        },
        {
          "indexed": false,
          "internalType": "enum DonationPlatform.DonationCategory",
          "name": "category",
          "type": "uint8"
        }
      ],
      "name": "NFTMinted",
      "type": "event"
    },
    {
      "anonymous": false,
      "inputs": [
        {
          "indexed": true,
          "internalType": "address",
          "name": "owner",
          "type": "address"
        },
        {
          "indexed": false,
          "internalType": "uint256",
          "name": "amount",
          "type": "uint256"
        }
      ],
      "name": "PlatformFeeWithdrawn",
      "type": "event"
    },
    {
      "anonymous": false,
      "inputs": [
        {
          "indexed": true,
          "internalType": "address",
          "name": "from",
          "type": "address"
        },
        {
          "indexed": true,
          "internalType": "address",
          "name": "to",
          "type": "address"
        },
        {
          "indexed": true,
          "internalType": "uint256",
          "name": "tokenId",
          "type": "uint256"
        }
      ],
      "name": "Transfer",
      "type": "event"
    },
    {
      "inputs": [
        {
          "internalType": "address",
          "name": "to",
          "type": "address"
        },
        {
          "internalType": "uint256",
          "name": "tokenId",
          "type": "uint256"
        }
      ],
      "name": "approve",
      "outputs": [],
      "stateMutability": "nonpayable",
      "type": "function"
    },
    {
      "inputs": [
        {
          "internalType": "address",
          "name": "owner",
          "type": "address"
        }
      ],
      "name": "balanceOf",
      "outputs": [
        {
          "internalType": "uint256",
          "name": "",
          "type": "uint256"
        }
      ],
      "stateMutability": "view",
      "type": "function"
    },
    {
      "inputs": [],
      "name": "baseImageURI",
      "outputs": [
        {
          "internalType": "string",
          "name": "",
          "type": "string"
        }
      ],
      "stateMutability": "view",
      "type": "function"
    },
    {
      "inputs": [
        {
          "internalType": "address",
          "name": "",
          "type": "address"
        }
      ],
      "name": "beneficiaryBalances",
      "outputs": [
        {
          "internalType": "uint256",
          "name": "",
          "type": "uint256"
        }
      ],
      "stateMutability": "view",
      "type": "function"
    },
    {
      "inputs": [
        {
          "internalType": "address",
          "name": "",
          "type": "address"
        },
        {
          "internalType": "uint256",
          "name": "",
          "type": "uint256"
        }
      ],
      "name": "beneficiaryDonations",
      "outputs": [
        {
          "internalType": "address",
          "name": "donor",
          "type": "address"
        },
        {
          "internalType": "uint256",
          "name": "amount",
          "type": "uint256"
        },
        {
          "internalType": "uint256",
          "name": "timestamp",
          "type": "uint256"
        },
        {
          "internalType": "uint256",
          "name": "nftTokenId",
          "type": "uint256"
        },
        {
          "internalType": "enum DonationPlatform.DonationCategory",
          "name": "category",
          "type": "uint8"
        }
      ],
      "stateMutability": "view",
      "type": "function"
    },
    {
      "inputs": [
        {
          "internalType": "enum DonationPlatform.DonationCategory",
          "name": "",
          "type": "uint8"
        }
      ],
      "name": "categories",
      "outputs": [
        {
          "internalType": "string",
          "name": "name",
          "type": "string"
        },
        {
          "internalType": "string",
          "name": "description",
          "type": "string"
        },
        {
          "internalType": "string",
          "name": "imageFolder",
          "type": "string"
        },
        {
          "internalType": "bool",
          "name": "isActive",
          "type": "bool"
        },
        {
          "internalType": "uint256",
          "name": "totalRaised",
          "type": "uint256"
        },
        {
          "internalType": "uint256",
          "name": "donationCount",
          "type": "uint256"
        }
      ],
      "stateMutability": "view",
      "type": "function"
    },
    {
      "inputs": [
        {
          "internalType": "enum DonationPlatform.DonationCategory",
          "name": "",
          "type": "uint8"
        },
        {
          "internalType": "uint256",
          "name": "",
          "type": "uint256"
        }
      ],
      "name": "categoryNFTs",
      "outputs": [
        {
          "internalType": "uint256",
          "name": "",
          "type": "uint256"
        }
      ],
      "stateMutability": "view",
      "type": "function"
    },
    {
      "inputs": [
        {
          "internalType": "address",
          "name": "",
          "type": "address"
        },
        {
          "internalType": "uint256",
          "name": "",
          "type": "uint256"
        }
      ],
      "name": "donorNFTs",
      "outputs": [
        {
          "internalType": "uint256",
          "name": "",
          "type": "uint256"
        }
      ],
      "stateMutability": "view",
      "type": "function"
    },
    {
      "inputs": [
        {
          "internalType": "address",
          "name": "",
          "type": "address"
        }
      ],
      "name": "donorTotalDonations",
      "outputs": [
        {
          "internalType": "uint256",
          "name": "",
          "type": "uint256"
        }
      ],
      "stateMutability": "view",
      "type": "function"
    },
    {
      "inputs": [
        {
          "internalType": "uint256",
          "name": "tokenId",
          "type": "uint256"
        }
      ],
      "name": "getApproved",
      "outputs": [
        {
          "internalType": "address",
          "name": "",
          "type": "address"
        }
      ],
      "stateMutability": "view",
      "type": "function"
    },
    {
      "inputs": [
        {
          "internalType": "address",
          "name": "owner",
          "type": "address"
        },
        {
          "internalType": "address",
          "name": "operator",
          "type": "address"
        }
      ],
      "name": "isApprovedForAll",
      "outputs": [
        {
          "internalType": "bool",
          "name": "",
          "type": "bool"
        }
      ],
      "stateMutability": "view",
      "type": "function"
    },
    {
      "inputs": [],
      "name": "minDonationForNFT",
      "outputs": [
        {
          "internalType": "uint256",
          "name": "",
          "type": "uint256"
        }
      ],
      "stateMutability": "view",
      "type": "function"
    },
    {
      "inputs": [],
      "name": "name",
      "outputs": [
        {
          "internalType": "string",
          "name": "",
          "type": "string"
        }
      ],
      "stateMutability": "view",
      "type": "function"
    },
    {
      "inputs": [
        {
          "internalType": "uint256",
          "name": "",
          "type": "uint256"
        }
      ],
      "name": "nftMetadata",
      "outputs": [
        {
          "internalType": "address",
          "name": "beneficiary",
          "type": "address"
        },
        {
          "internalType": "uint256",
          "name": "donationAmount",
          "type": "uint256"
        },
        {
          "internalType": "uint256",
          "name": "timestamp",
          "type": "uint256"
        },
        {
          "internalType": "enum DonationPlatform.DonationCategory",
          "name": "category",
          "type": "uint8"
        }
      ],
      "stateMutability": "view",
      "type": "function"
    },
    {
      "inputs": [],
      "name": "owner",
      "outputs": [
        {
          "internalType": "address",
          "name": "",
          "type": "address"
        }
      ],
      "stateMutability": "view",
      "type": "function"
    },
    {
      "inputs": [
        {
          "internalType": "uint256",
          "name": "tokenId",
          "type": "uint256"
        }
      ],
      "name": "ownerOf",
      "outputs": [
        {
          "internalType": "address",
          "name": "",
          "type": "address"
        }
      ],
      "stateMutability": "view",
      "type": "function"
    },
    {
      "inputs": [],
      "name": "platformFee",
      "outputs": [
        {
          "internalType": "uint256",
          "name": "",
          "type": "uint256"
        }
      ],
      "stateMutability": "view",
      "type": "function"
    },
    {
      "inputs": [
        {
          "internalType": "address",
          "name": "from",
          "type": "address"
        },
        {
          "internalType": "address",
          "name": "to",
          "type": "address"
        },
        {
          "internalType": "uint256",
          "name": "tokenId",
          "type": "uint256"
        }
      ],
      "name": "safeTransferFrom",
      "outputs": [],
      "stateMutability": "nonpayable",
      "type": "function"
    },
    {
      "inputs": [
        {
          "internalType": "address",
          "name": "from",
          "type": "address"
        },
        {
          "internalType": "address",
          "name": "to",
          "type": "address"
        },
        {
          "internalType": "uint256",
          "name": "tokenId",
          "type": "uint256"
        },
        {
          "internalType": "bytes",
          "name": "data",
          "type": "bytes"
        }
      ],
      "name": "safeTransferFrom",
      "outputs": [],
      "stateMutability": "nonpayable",
      "type": "function"
    },
    {
      "inputs": [
        {
          "internalType": "address",
          "name": "operator",
          "type": "address"
        },
        {
          "internalType": "bool",
          "name": "approved",
          "type": "bool"
        }
      ],
      "name": "setApprovalForAll",
      "outputs": [],
      "stateMutability": "nonpayable",
      "type": "function"
    },
    {
      "inputs": [],
      "name": "symbol",
      "outputs": [
        {
          "internalType": "string",
          "name": "",
          "type": "string"
        }
      ],
      "stateMutability": "view",
      "type": "function"
    },
    {
      "inputs": [],
      "name": "totalDonations",
      "outputs": [
        {
          "internalType": "uint256",
          "name": "",
          "type": "uint256"
        }
      ],
      "stateMutability": "view",
      "type": "function"
    },
    {
      "inputs": [
        {
          "internalType": "address",
          "name": "from",
          "type": "address"
        },
        {
          "internalType": "address",
          "name": "to",
          "type": "address"
        },
        {
          "internalType": "uint256",
          "name": "tokenId",
          "type": "uint256"
        }
      ],
      "name": "transferFrom",
      "outputs": [],
      "stateMutability": "nonpayable",
      "type": "function"
    },
    {
      "inputs": [
        {
          "internalType": "address",
          "name": "_beneficiary",
          "type": "address"
        },
        {
          "internalType": "enum DonationPlatform.DonationCategory",
          "name": "_category",
          "type": "uint8"
        }
      ],
      "name": "donate",
      "outputs": [
        {
          "internalType": "bool",
          "name": "success",
          "type": "bool"
        },
        {
          "internalType": "uint256",
          "name": "nftTokenId",
          "type": "uint256"
        }
      ],
      "stateMutability": "payable",
      "type": "function"
    },
    {
      "inputs": [],
      "name": "withdraw",
      "outputs": [],
      "stateMutability": "nonpayable",
      "type": "function"
    },
    {
      "inputs": [],
      "name": "withdrawPlatformFees",
      "outputs": [],
      "stateMutability": "nonpayable",
      "type": "function"
    },
    {
      "inputs": [
        {
          "internalType": "uint256",
          "name": "_newFee",
          "type": "uint256"
        }
      ],
      "name": "setPlatformFee",
      "outputs": [],
      "stateMutability": "nonpayable",
      "type": "function"
    },
    {
      "inputs": [
        {
          "internalType": "address",
          "name": "_beneficiary",
          "type": "address"
        }
      ],
      "name": "getBeneficiaryBalance",
      "outputs": [
        {
          "internalType": "uint256",
          "name": "",
          "type": "uint256"
        }
      ],
      "stateMutability": "view",
      "type": "function"
    },
    {
      "inputs": [
        {
          "internalType": "address",
          "name": "_beneficiary",
          "type": "address"
        }
      ],
      "name": "getDonationCount",
      "outputs": [
        {
          "internalType": "uint256",
          "name": "",
          "type": "uint256"
        }
      ],
      "stateMutability": "view",
      "type": "function"
    },
    {
      "inputs": [
        {
          "internalType": "address",
          "name": "_beneficiary",
          "type": "address"
        },
        {
          "internalType": "uint256",
          "name": "_index",
          "type": "uint256"
        }
      ],
      "name": "getDonationDetails",
      "outputs": [
        {
          "internalType": "address",
          "name": "donor",
          "type": "address"
        },
        {
          "internalType": "uint256",
          "name": "amount",
          "type": "uint256"
        },
        {
          "internalType": "uint256",
          "name": "timestamp",
          "type": "uint256"
        }
      ],
      "stateMutability": "view",
      "type": "function"
    },
    {
      "inputs": [],
      "name": "getContractBalance",
      "outputs": [
        {
          "internalType": "uint256",
          "name": "",
          "type": "uint256"
        }
      ],
      "stateMutability": "view",
      "type": "function"
    },
    {
      "inputs": [
        {
          "internalType": "uint256",
          "name": "tokenId",
          "type": "uint256"
        }
      ],
      "name": "tokenURI",
      "outputs": [
        {
          "internalType": "string",
          "name": "",
          "type": "string"
        }
      ],
      "stateMutability": "view",
      "type": "function"
    },
    {
      "inputs": [
        {
          "internalType": "bytes4",
          "name": "interfaceId",
          "type": "bytes4"
        }
      ],
      "name": "supportsInterface",
      "outputs": [
        {
          "internalType": "bool",
          "name": "",
          "type": "bool"
        }
      ],
      "stateMutability": "view",
      "type": "function"
    }
  ],
  "bytecode": "0x608060405262989680600a55604051806060016040528060238152602001620066c460239139600b908162000035919062000c9c565b503480156200004357600080fd5b506040516200678938038062006789833981810160405281019062000069919062000db9565b6040518060400160405280601381526020017f446f6e6174696f6e4365727469666963617465000000000000000000000000008152506040518060400160405280600581526020017f44434552540000000000000000000000000000000000000000000000000000008152508160009081620000e6919062000c9c565b508060019081620000f8919062000c9c565b50505033600760006101000a81548173ffffffffffffffffffffffffffffffffffffffff021916908373ffffffffffffffffffffffffffffffffffffffff16021790555080600881905550620001536200015a60201b60201c565b5062000e1a565b6040518060c001604052806040518060400160405280600f81526020017fec9584eb8f99ecb2adec868ceb8584000000000000000000000000000000000081525081526020016040518060400160405280601f81526020017fec9584eb8f9920ebb3b4ed98b820ebb08f20ebb3b5eca78020ed96a5ec83810081525081526020016040518060400160405280600981526020017f656475636174696f6e000000000000000000000000000000000000000000000081525081526020016001151581526020016000815260200160008152506012600080600581111562000245576200024462000deb565b5b60058111156200025a576200025962000deb565b5b815260200190815260200160002060008201518160000190816200027f919062000c9c565b50602082015181600101908162000297919062000c9c565b506040820151816002019081620002af919062000c9c565b5060608201518160030160006101000a81548160ff0219169083151502179055506080820151816004015560a082015181600501559050506040518060c001604052806040518060400160405280600981526020017fec9ea5ec95a0ec9db800000000000000000000000000000000000000000000008152508152602001604051806060016040528060298152602001620067606029913981526020016040518060400160405280600781526020017f6d65646963616c0000000000000000000000000000000000000000000000000081525081526020016001151581526020016000815260200160008152506012600060046005811115620003b757620003b662000deb565b5b6005811115620003cc57620003cb62000deb565b5b81526020019081526020016000206000820151816000019081620003f1919062000c9c565b50602082015181600101908162000409919062000c9c565b50604082015181600201908162000421919062000c9c565b5060608201518160030160006101000a81548160ff0219169083151502179055506080820151816004015560a082015181600501559050506040518060c001604052806040518060400160405280600681526020017fed9998eab2bd000000000000000000000000000000000000000000000000000081525081526020016040518060600160405280602581526020016200670b6025913981526020016040518060400160405280600b81526020017f656e7669726f6e6d656e740000000000000000000000000000000000000000008152508152602001600115158152602001600081526020016000815250601260006002600581111562000529576200052862000deb565b5b60058111156200053e576200053d62000deb565b5b8152602001908152602001600020600082015181600001908162000563919062000c9c565b5060208201518160010190816200057b919062000c9c565b50604082015181600201908162000593919062000c9c565b5060608201518160030160006101000a81548160ff0219169083151502179055506080820151816004015560a082015181600501559050506040518060c001604052806040518060400160405280600681526020017fec82aced9a8c00000000000000000000000000000000000000000000000000008152508152602001604051806060016040528060308152602001620067306030913981526020016040518060400160405280600881526020017f64697361737465720000000000000000000000000000000000000000000000008152508152602001600115158152602001600081526020016000815250601260006005808111156200069a576200069962000deb565b5b6005811115620006af57620006ae62000deb565b5b81526020019081526020016000206000820151816000019081620006d4919062000c9c565b506020820151816001019081620006ec919062000c9c565b50604082015181600201908162000704919062000c9c565b5060608201518160030160006101000a81548160ff0219169083151502179055506080820151816004015560a082015181600501559050506040518060c001604052806040518060400160405280600c81526020017feb8f99ebacbcebb3b4ed98b800000000000000000000000000000000000000008152508152602001604051806060016040528060248152602001620066e76024913981526020016040518060400160405280600681526020017f616e696d616c0000000000000000000000000000000000000000000000000000815250815260200160011515815260200160008152602001600081525060126000600360058111156200080c576200080b62000deb565b5b600581111562000821576200082062000deb565b5b8152602001908152602001600020600082015181600001908162000846919062000c9c565b5060208201518160010190816200085e919062000c9c565b50604082015181600201908162000876919062000c9c565b5060608201518160030160006101000a81548160ff0219169083151502179055506080820151816004015560a082015181600501559050506040518060c001604052806040518060400160405280600c81526020017feb85b8ec9db8ebb3b5eca78000000000000000000000000000000000000000008152508152602001604051806060016040528060228152602001620066a26022913981526020016040518060400160405280600781526020017f656c6465726c7900000000000000000000000000000000000000000000000000815250815260200160011515815260200160008152602001600081525060126000600160058111156200097e576200097d62000deb565b5b600581111562000993576200099262000deb565b5b81526020019081526020016000206000820151816000019081620009b8919062000c9c565b506020820151816001019081620009d0919062000c9c565b506040820151816002019081620009e8919062000c9c565b5060608201518160030160006101000a81548160ff0219169083151502179055506080820151816004015560a08201518160050155905050565b600081519050919050565b7f4e487b7100000000000000000000000000000000000000000000000000000000600052604160045260246000fd5b7f4e487b7100000000000000000000000000000000000000000000000000000000600052602260045260246000fd5b6000600282049050600182168062000aa457607f821691505b60208210810362000aba5762000ab962000a5c565b5b50919050565b60008190508160005260206000209050919050565b60006020601f8301049050919050565b600082821b905092915050565b60006008830262000b247fffffffffffffffffffffffffffffffffffffffffffffffffffffffffffffffff8262000ae5565b62000b30868362000ae5565b95508019841693508086168417925050509392505050565b6000819050919050565b6000819050919050565b600062000b7d62000b7762000b718462000b48565b62000b52565b62000b48565b9050919050565b6000819050919050565b62000b998362000b5c565b62000bb162000ba88262000b84565b84845462000af2565b825550505050565b600090565b62000bc862000bb9565b62000bd581848462000b8e565b505050565b5b8181101562000bfd5762000bf160008262000bbe565b60018101905062000bdb565b5050565b601f82111562000c4c5762000c168162000ac0565b62000c218462000ad5565b8101602085101562000c31578190505b62000c4962000c408562000ad5565b83018262000bda565b50505b505050565b600082821c905092915050565b600062000c716000198460080262000c51565b1980831691505092915050565b600062000c8c838362000c5e565b9150826002028217905092915050565b62000ca78262000a22565b67ffffffffffffffff81111562000cc35762000cc262000a2d565b5b62000ccf825462000a8b565b62000cdc82828562000c01565b600060209050601f83116001811462000d14576000841562000cff578287015190505b62000d0b858262000c7e565b86555062000d7b565b601f19841662000d248662000ac0565b60005b8281101562000d4e5784890151825560018201915060208501945060208101905062000d27565b8683101562000d6e578489015162000d6a601f89168262000c5e565b8355505b6001600288020188555050505b505050505050565b600080fd5b62000d938162000b48565b811462000d9f57600080fd5b50565b60008151905062000db38162000d88565b92915050565b60006020828403121562000dd25762000dd162000d83565b5b600062000de28482850162000da2565b91505092915050565b7f4e487b7100000000000000000000000000000000000000000000000000000000600052602160045260246000fd5b6158788062000e2a6000396000f3fe6080604052600436106101ee5760003560e01c806370a082311161010d57806398472bcb116100a0578063c522bcab1161006f578063c522bcab14610785578063c87b56dd146107c2578063d0b7830b146107ff578063de2ed89314610816578063e985e9c514610841576101ee565b806398472bcb146106cb578063a22cb465146106f6578063aa41f4081461071f578063b88d4fde1461075c576101ee565b806387921fd3116100dc57806387921fd3146105f95780638da5cb5b146106365780638dd5685e1461066157806395d89b41146106a0576101ee565b806370a082311461051e57806374f82e301461055b5780637be6277b14610586578063859c0010146105c8576101ee565b80633ccfd60b116101855780635664865a116101545780635664865a1461043c57806357d27814146104795780636352211e146104b65780636f9fb98a146104f3576101ee565b80633ccfd60b1461037b57806342842e0e1461039257806349541015146103bb5780635626f9a2146103fb576101ee565b8063095ea7b3116101c1578063095ea7b3146102d557806312e8e2c3146102fe57806323b872dd1461032757806326232a2e14610350576101ee565b806301ffc9a7146101f357806306fdde031461023057806307bcb6ef1461025b578063081812fc14610298575b600080fd5b3480156101ff57600080fd5b5061021a600480360381019061021591906136a5565b61087e565b60405161022791906136ed565b60405180910390f35b34801561023c57600080fd5b50610245610890565b6040516102529190613798565b60405180910390f35b34801561026757600080fd5b50610282600480360381019061027d9190613818565b610922565b60405161028f919061385e565b60405180910390f35b3480156102a457600080fd5b506102bf60048036038101906102ba91906138a5565b61096b565b6040516102cc91906138e1565b60405180910390f35b3480156102e157600080fd5b506102fc60048036038101906102f791906138fc565b6109b1565b005b34801561030a57600080fd5b50610325600480360381019061032091906138a5565b610ac8565b005b34801561033357600080fd5b5061034e6004803603810190610349919061393c565b610ba7565b005b34801561035c57600080fd5b50610365610c07565b604051610372919061385e565b60405180910390f35b34801561038757600080fd5b50610390610c0d565b005b34801561039e57600080fd5b506103b960048036038101906103b4919061393c565b610d77565b005b3480156103c757600080fd5b506103e260048036038101906103dd91906138a5565b610d97565b6040516103f29493929190613a06565b60405180910390f35b34801561040757600080fd5b50610422600480360381019061041d91906138fc565b610df4565b604051610433959493929190613a4b565b60405180910390f35b34801561044857600080fd5b50610463600480360381019061045e9190613818565b610e74565b604051610470919061385e565b60405180910390f35b34801561048557600080fd5b506104a0600480360381019061049b9190613818565b610e8c565b6040516104ad919061385e565b60405180910390f35b3480156104c257600080fd5b506104dd60048036038101906104d891906138a5565b610ea4565b6040516104ea91906138e1565b60405180910390f35b3480156104ff57600080fd5b50610508610f2a565b604051610515919061385e565b60405180910390f35b34801561052a57600080fd5b5061054560048036038101906105409190613818565b610f32565b604051610552919061385e565b60405180910390f35b34801561056757600080fd5b50610570610fe9565b60405161057d9190613798565b60405180910390f35b34801561059257600080fd5b506105ad60048036038101906105a89190613ac3565b611077565b6040516105bf96959493929190613af0565b60405180910390f35b6105e260048036038101906105dd9190613b66565b611258565b6040516105f0929190613ba6565b60405180910390f35b34801561060557600080fd5b50610620600480360381019061061b91906138fc565b611702565b60405161062d919061385e565b60405180910390f35b34801561064257600080fd5b5061064b611733565b60405161065891906138e1565b60405180910390f35b34801561066d57600080fd5b50610688600480360381019061068391906138fc565b611759565b60405161069793929190613bcf565b60405180910390f35b3480156106ac57600080fd5b506106b561191c565b6040516106c29190613798565b60405180910390f35b3480156106d757600080fd5b506106e06119ae565b6040516106ed919061385e565b60405180910390f35b34801561070257600080fd5b5061071d60048036038101906107189190613c32565b6119b4565b005b34801561072b57600080fd5b5061074660048036038101906107419190613c72565b6119ca565b604051610753919061385e565b60405180910390f35b34801561076857600080fd5b50610783600480360381019061077e9190613de7565b6119fb565b005b34801561079157600080fd5b506107ac60048036038101906107a79190613818565b611a5d565b6040516107b9919061385e565b60405180910390f35b3480156107ce57600080fd5b506107e960048036038101906107e491906138a5565b611aa9565b6040516107f69190613798565b60405180910390f35b34801561080b57600080fd5b50610814611abb565b005b34801561082257600080fd5b5061082b611c81565b604051610838919061385e565b60405180910390f35b34801561084d57600080fd5b5061086860048036038101906108639190613e6a565b611c87565b60405161087591906136ed565b60405180910390f35b600061088982611d1b565b9050919050565b60606000805461089f90613ed9565b80601f01602080910402602001604051908101604052809291908181526020018280546108cb90613ed9565b80156109185780601f106108ed57610100808354040283529160200191610918565b820191906000526020600020905b8154815290600101906020018083116108fb57829003601f168201915b5050505050905090565b6000600d60008373ffffffffffffffffffffffffffffffffffffffff1673ffffffffffffffffffffffffffffffffffffffff168152602001908152602001600020549050919050565b600061097682611d7c565b6004600083815260200190815260200160002060009054906101000a900473ffffffffffffffffffffffffffffffffffffffff169050919050565b60006109bc82610ea4565b90508073ffffffffffffffffffffffffffffffffffffffff168373ffffffffffffffffffffffffffffffffffffffff1603610a2c576040517f08c379a0000000000000000000000000000000000000000000000000000000008152600401610a2390613f7c565b60405180910390fd5b8073ffffffffffffffffffffffffffffffffffffffff16610a4b611dc7565b73ffffffffffffffffffffffffffffffffffffffff161480610a7a5750610a7981610a74611dc7565b611c87565b5b610ab9576040517f08c379a0000000000000000000000000000000000000000000000000000000008152600401610ab09061400e565b60405180910390fd5b610ac38383611dcf565b505050565b600760009054906101000a900473ffffffffffffffffffffffffffffffffffffffff1673ffffffffffffffffffffffffffffffffffffffff163373ffffffffffffffffffffffffffffffffffffffff1614610b58576040517f08c379a0000000000000000000000000000000000000000000000000000000008152600401610b4f906140a0565b60405180910390fd5b6103e8811115610b9d576040517f08c379a0000000000000000000000000000000000000000000000000000000008152600401610b9490614132565b60405180910390fd5b8060088190555050565b610bb8610bb2611dc7565b82611e88565b610bf7576040517f08c379a0000000000000000000000000000000000000000000000000000000008152600401610bee906141c4565b60405180910390fd5b610c02838383611f1d565b505050565b60085481565b60003390506000600d60008373ffffffffffffffffffffffffffffffffffffffff1673ffffffffffffffffffffffffffffffffffffffff16815260200190815260200160002054905060008111610c99576040517f08c379a0000000000000000000000000000000000000000000000000000000008152600401610c9090614256565b60405180910390fd5b6000600d60008473ffffffffffffffffffffffffffffffffffffffff1673ffffffffffffffffffffffffffffffffffffffff168152602001908152602001600020819055508173ffffffffffffffffffffffffffffffffffffffff166108fc829081150290604051600060405180830381858888f19350505050158015610d24573d6000803e3d6000fd5b508173ffffffffffffffffffffffffffffffffffffffff167feaff4b37086828766ad3268786972c0cd24259d4c87a80f9d3963a3c3d999b0d82604051610d6b919061385e565b60405180910390a25050565b610d92838383604051806020016040528060008152506119fb565b505050565b600f6020528060005260406000206000915090508060000160009054906101000a900473ffffffffffffffffffffffffffffffffffffffff16908060010154908060020154908060030160009054906101000a900460ff16905084565b600e6020528160005260406000208181548110610e1057600080fd5b9060005260206000209060050201600091509150508060000160009054906101000a900473ffffffffffffffffffffffffffffffffffffffff16908060010154908060020154908060030154908060040160009054906101000a900460ff16905085565b600d6020528060005260406000206000915090505481565b60116020528060005260406000206000915090505481565b600080610eb083612216565b9050600073ffffffffffffffffffffffffffffffffffffffff168173ffffffffffffffffffffffffffffffffffffffff1603610f21576040517f08c379a0000000000000000000000000000000000000000000000000000000008152600401610f18906142c2565b60405180910390fd5b80915050919050565b600047905090565b60008073ffffffffffffffffffffffffffffffffffffffff168273ffffffffffffffffffffffffffffffffffffffff1603610fa2576040517f08c379a0000000000000000000000000000000000000000000000000000000008152600401610f9990614354565b60405180910390fd5b600360008373ffffffffffffffffffffffffffffffffffffffff1673ffffffffffffffffffffffffffffffffffffffff168152602001908152602001600020549050919050565b600b8054610ff690613ed9565b80601f016020809104026020016040519081016040528092919081815260200182805461102290613ed9565b801561106f5780601f106110445761010080835404028352916020019161106f565b820191906000526020600020905b81548152906001019060200180831161105257829003601f168201915b505050505081565b601260205280600052604060002060009150905080600001805461109a90613ed9565b80601f01602080910402602001604051908101604052809291908181526020018280546110c690613ed9565b80156111135780601f106110e857610100808354040283529160200191611113565b820191906000526020600020905b8154815290600101906020018083116110f657829003601f168201915b50505050509080600101805461112890613ed9565b80601f016020809104026020016040519081016040528092919081815260200182805461115490613ed9565b80156111a15780601f10611176576101008083540402835291602001916111a1565b820191906000526020600020905b81548152906001019060200180831161118457829003601f168201915b5050505050908060020180546111b690613ed9565b80601f01602080910402602001604051908101604052809291908181526020018280546111e290613ed9565b801561122f5780601f106112045761010080835404028352916020019161122f565b820191906000526020600020905b81548152906001019060200180831161121257829003601f168201915b5050505050908060030160009054906101000a900460ff16908060040154908060050154905086565b6000806000341161129e576040517f08c379a0000000000000000000000000000000000000000000000000000000008152600401611295906143e6565b60405180910390fd5b600073ffffffffffffffffffffffffffffffffffffffff168473ffffffffffffffffffffffffffffffffffffffff160361130d576040517f08c379a000000000000000000000000000000000000000000000000000000000815260040161130490614478565b60405180910390fd5b601260008460058111156113245761132361398f565b5b60058111156113365761133561398f565b5b815260200190815260200160002060030160009054906101000a900460ff16611394576040517f08c379a000000000000000000000000000000000000000000000000000000000815260040161138b9061450a565b60405180910390fd5b6000612710600854346113a79190614559565b6113b191906145ca565b9050600081346113c191906145fb565b905080600d60008873ffffffffffffffffffffffffffffffffffffffff1673ffffffffffffffffffffffffffffffffffffffff1681526020019081526020016000206000828254611412919061462f565b9250508190555034601160003373ffffffffffffffffffffffffffffffffffffffff1673ffffffffffffffffffffffffffffffffffffffff1681526020019081526020016000206000828254611468919061462f565b9250508190555034601260008760058111156114875761148661398f565b5b60058111156114995761149861398f565b5b815260200190815260200160002060040160008282546114b9919061462f565b92505081905550601260008660058111156114d7576114d661398f565b5b60058111156114e9576114e861398f565b5b8152602001908152602001600020600501600081548092919061150b90614663565b91905055506000600a54341061152a5761152733888489612253565b90505b600e60008873ffffffffffffffffffffffffffffffffffffffff1673ffffffffffffffffffffffffffffffffffffffff1681526020019081526020016000206040518060a001604052803373ffffffffffffffffffffffffffffffffffffffff1681526020018481526020014281526020018381526020018860058111156115b5576115b461398f565b5b815250908060018154018082558091505060019003906000526020600020906005020160009091909190915060008201518160000160006101000a81548173ffffffffffffffffffffffffffffffffffffffff021916908373ffffffffffffffffffffffffffffffffffffffff16021790555060208201518160010155604082015181600201556060820151816003015560808201518160040160006101000a81548160ff021916908360058111156116715761167061398f565b5b02179055505050346009600082825461168a919061462f565b925050819055508673ffffffffffffffffffffffffffffffffffffffff163373ffffffffffffffffffffffffffffffffffffffff167ff1aae0ff104ee815e2eeddd272989f2774ee0b5a3c7cff7b3fc732146427184284896040516116f09291906146ab565b60405180910390a35050509250929050565b6010602052816000526040600020818154811061171e57600080fd5b90600052602060002001600091509150505481565b600760009054906101000a900473ffffffffffffffffffffffffffffffffffffffff1681565b6000806000600e60008673ffffffffffffffffffffffffffffffffffffffff1673ffffffffffffffffffffffffffffffffffffffff1681526020019081526020016000208054905084106117e2576040517f08c379a00000000000000000000000000000000000000000000000000000000081526004016117d990614720565b60405180910390fd5b6000600e60008773ffffffffffffffffffffffffffffffffffffffff1673ffffffffffffffffffffffffffffffffffffffff168152602001908152602001600020858154811061183557611834614740565b5b90600052602060002090600502016040518060a00160405290816000820160009054906101000a900473ffffffffffffffffffffffffffffffffffffffff1673ffffffffffffffffffffffffffffffffffffffff1673ffffffffffffffffffffffffffffffffffffffff1681526020016001820154815260200160028201548152602001600382015481526020016004820160009054906101000a900460ff1660058111156118e7576118e661398f565b5b60058111156118f9576118f861398f565b5b815250509050806000015181602001518260400151935093509350509250925092565b60606001805461192b90613ed9565b80601f016020809104026020016040519081016040528092919081815260200182805461195790613ed9565b80156119a45780601f10611979576101008083540402835291602001916119a4565b820191906000526020600020905b81548152906001019060200180831161198757829003601f168201915b5050505050905090565b600a5481565b6119c66119bf611dc7565b83836124b3565b5050565b601360205281600052604060002081815481106119e657600080fd5b90600052602060002001600091509150505481565b611a0c611a06611dc7565b83611e88565b611a4b576040517f08c379a0000000000000000000000000000000000000000000000000000000008152600401611a42906141c4565b60405180910390fd5b611a578484848461261f565b50505050565b6000600e60008373ffffffffffffffffffffffffffffffffffffffff1673ffffffffffffffffffffffffffffffffffffffff168152602001908152602001600020805490509050919050565b6060611ab48261267b565b9050919050565b600760009054906101000a900473ffffffffffffffffffffffffffffffffffffffff1673ffffffffffffffffffffffffffffffffffffffff163373ffffffffffffffffffffffffffffffffffffffff1614611b4b576040517f08c379a0000000000000000000000000000000000000000000000000000000008152600401611b42906140a0565b60405180910390fd5b6000611b5561278d565b47611b6091906145fb565b905060008111611ba5576040517f08c379a0000000000000000000000000000000000000000000000000000000008152600401611b9c906147e1565b60405180910390fd5b600760009054906101000a900473ffffffffffffffffffffffffffffffffffffffff1673ffffffffffffffffffffffffffffffffffffffff166108fc829081150290604051600060405180830381858888f19350505050158015611c0d573d6000803e3d6000fd5b50600760009054906101000a900473ffffffffffffffffffffffffffffffffffffffff1673ffffffffffffffffffffffffffffffffffffffff167fd116803f8b8538a601b6096e8d1196e3ce3ef43dec6dbbe4cd4e5c69dd171d8b82604051611c76919061385e565b60405180910390a250565b60095481565b6000600560008473ffffffffffffffffffffffffffffffffffffffff1673ffffffffffffffffffffffffffffffffffffffff16815260200190815260200160002060008373ffffffffffffffffffffffffffffffffffffffff1673ffffffffffffffffffffffffffffffffffffffff16815260200190815260200160002060009054906101000a900460ff16905092915050565b6000634906490660e01b7bffffffffffffffffffffffffffffffffffffffffffffffffffffffff1916827bffffffffffffffffffffffffffffffffffffffffffffffffffffffff19161480611d755750611d74826127bc565b5b9050919050565b611d858161289e565b611dc4576040517f08c379a0000000000000000000000000000000000000000000000000000000008152600401611dbb906142c2565b60405180910390fd5b50565b600033905090565b816004600083815260200190815260200160002060006101000a81548173ffffffffffffffffffffffffffffffffffffffff021916908373ffffffffffffffffffffffffffffffffffffffff160217905550808273ffffffffffffffffffffffffffffffffffffffff16611e4283610ea4565b73ffffffffffffffffffffffffffffffffffffffff167f8c5be1e5ebec7d5bd14f71427d1e84f3dd0314c0f7b2291e5b200ac8c7c3b92560405160405180910390a45050565b600080611e9483610ea4565b90508073ffffffffffffffffffffffffffffffffffffffff168473ffffffffffffffffffffffffffffffffffffffff161480611ed65750611ed58185611c87565b5b80611f1457508373ffffffffffffffffffffffffffffffffffffffff16611efc8461096b565b73ffffffffffffffffffffffffffffffffffffffff16145b91505092915050565b8273ffffffffffffffffffffffffffffffffffffffff16611f3d82610ea4565b73ffffffffffffffffffffffffffffffffffffffff1614611f93576040517f08c379a0000000000000000000000000000000000000000000000000000000008152600401611f8a90614873565b60405180910390fd5b600073ffffffffffffffffffffffffffffffffffffffff168273ffffffffffffffffffffffffffffffffffffffff1603612002576040517f08c379a0000000000000000000000000000000000000000000000000000000008152600401611ff990614905565b60405180910390fd5b61200f83838360016128df565b8273ffffffffffffffffffffffffffffffffffffffff1661202f82610ea4565b73ffffffffffffffffffffffffffffffffffffffff1614612085576040517f08c379a000000000000000000000000000000000000000000000000000000000815260040161207c90614873565b60405180910390fd5b6004600082815260200190815260200160002060006101000a81549073ffffffffffffffffffffffffffffffffffffffff02191690556001600360008573ffffffffffffffffffffffffffffffffffffffff1673ffffffffffffffffffffffffffffffffffffffff168152602001908152602001600020600082825403925050819055506001600360008473ffffffffffffffffffffffffffffffffffffffff1673ffffffffffffffffffffffffffffffffffffffff16815260200190815260200160002060008282540192505081905550816002600083815260200190815260200160002060006101000a81548173ffffffffffffffffffffffffffffffffffffffff021916908373ffffffffffffffffffffffffffffffffffffffff160217905550808273ffffffffffffffffffffffffffffffffffffffff168473ffffffffffffffffffffffffffffffffffffffff167fddf252ad1be2c89b69c2b068fc378daa952ba7f163c4a11628f55a4df523b3ef60405160405180910390a461221183838360016128e5565b505050565b60006002600083815260200190815260200160002060009054906101000a900473ffffffffffffffffffffffffffffffffffffffff169050919050565b600080612260600c6128eb565b905061226c600c6128f9565b612276868261290f565b60405180608001604052808673ffffffffffffffffffffffffffffffffffffffff1681526020018581526020014281526020018460058111156122bc576122bb61398f565b5b815250600f600083815260200190815260200160002060008201518160000160006101000a81548173ffffffffffffffffffffffffffffffffffffffff021916908373ffffffffffffffffffffffffffffffffffffffff160217905550602082015181600101556040820151816002015560608201518160030160006101000a81548160ff021916908360058111156123585761235761398f565b5b0217905550905050600061236e8287878761292d565b905061237a8282612aca565b601060008873ffffffffffffffffffffffffffffffffffffffff1673ffffffffffffffffffffffffffffffffffffffff168152602001908152602001600020829080600181540180825580915050600190039060005260206000200160009091909190915055601360008560058111156123f7576123f661398f565b5b60058111156124095761240861398f565b5b81526020019081526020016000208290806001815401808255809150506001900390600052602060002001600090919091909150558573ffffffffffffffffffffffffffffffffffffffff168773ffffffffffffffffffffffffffffffffffffffff16837f384743d8ff97d22688c9f0e2a07795535d4a3b0fccbfde1b9a4edd7346d6c76b888860405161249e9291906146ab565b60405180910390a48192505050949350505050565b8173ffffffffffffffffffffffffffffffffffffffff168373ffffffffffffffffffffffffffffffffffffffff1603612521576040517f08c379a000000000000000000000000000000000000000000000000000000000815260040161251890614971565b60405180910390fd5b80600560008573ffffffffffffffffffffffffffffffffffffffff1673ffffffffffffffffffffffffffffffffffffffff16815260200190815260200160002060008473ffffffffffffffffffffffffffffffffffffffff1673ffffffffffffffffffffffffffffffffffffffff16815260200190815260200160002060006101000a81548160ff0219169083151502179055508173ffffffffffffffffffffffffffffffffffffffff168373ffffffffffffffffffffffffffffffffffffffff167f17307eab39ab6107e8899845ad3d59bd9653f200f220920489ca2b5937696c318360405161261291906136ed565b60405180910390a3505050565b61262a848484611f1d565b61263684848484612b6e565b612675576040517f08c379a000000000000000000000000000000000000000000000000000000000815260040161266c90614a03565b60405180910390fd5b50505050565b606061268682611d7c565b60006006600084815260200190815260200160002080546126a690613ed9565b80601f01602080910402602001604051908101604052809291908181526020018280546126d290613ed9565b801561271f5780601f106126f45761010080835404028352916020019161271f565b820191906000526020600020905b81548152906001019060200180831161270257829003601f168201915b505050505090506000612730612cf5565b90506000815103612745578192505050612788565b60008251111561277a578082604051602001612762929190614a5f565b60405160208183030381529060405292505050612788565b61278384612d0c565b925050505b919050565b60006127106008546009546127a29190614559565b6127ac91906145ca565b476127b791906145fb565b905090565b60007f80ac58cd000000000000000000000000000000000000000000000000000000007bffffffffffffffffffffffffffffffffffffffffffffffffffffffff1916827bffffffffffffffffffffffffffffffffffffffffffffffffffffffff1916148061288757507f5b5e139f000000000000000000000000000000000000000000000000000000007bffffffffffffffffffffffffffffffffffffffffffffffffffffffff1916827bffffffffffffffffffffffffffffffffffffffffffffffffffffffff1916145b80612897575061289682612d74565b5b9050919050565b60008073ffffffffffffffffffffffffffffffffffffffff166128c083612216565b73ffffffffffffffffffffffffffffffffffffffff1614159050919050565b50505050565b50505050565b600081600001549050919050565b6001816000016000828254019250508190555050565b612929828260405180602001604052806000815250612dde565b5050565b60606000600b6012600085600581111561294a5761294961398f565b5b600581111561295c5761295b61398f565b5b815260200190815260200160002060020160405160200161297e929190614bb3565b60405160208183030381529060405290506000601260008560058111156129a8576129a761398f565b5b60058111156129ba576129b961398f565b5b81526020019081526020016000206000016129d488612e39565b836129de8a612e39565b601260008960058111156129f5576129f461398f565b5b6005811115612a0757612a0661398f565b5b8152602001908152602001600020600001612a398b73ffffffffffffffffffffffffffffffffffffffff166014612f07565b612a55670de0b6b3a76400008c612a5091906145ca565b612e39565b612a5e8c612e39565b612a6742612e39565b604051602001612a7f999897969594939291906150f9565b60405160208183030381529060405290506000612a9b82613143565b905080604051602001612aae9190615295565b6040516020818303038152906040529350505050949350505050565b612ad38261289e565b612b12576040517f08c379a0000000000000000000000000000000000000000000000000000000008152600401612b0990615329565b60405180910390fd5b80600660008481526020019081526020016000209081612b3291906154e0565b507ff8e1a15aba9398e019f0b49df1a4fde98ee17ae345cb5f6b5e2c27f5033e8ce782604051612b62919061385e565b60405180910390a15050565b6000612b8f8473ffffffffffffffffffffffffffffffffffffffff166132a6565b15612ce8578373ffffffffffffffffffffffffffffffffffffffff1663150b7a02612bb8611dc7565b8786866040518563ffffffff1660e01b8152600401612bda9493929190615607565b6020604051808303816000875af1925050508015612c1657506040513d601f19601f82011682018060405250810190612c139190615668565b60015b612c98573d8060008114612c46576040519150601f19603f3d011682016040523d82523d6000602084013e612c4b565b606091505b506000815103612c90576040517f08c379a0000000000000000000000000000000000000000000000000000000008152600401612c8790614a03565b60405180910390fd5b805181602001fd5b63150b7a0260e01b7bffffffffffffffffffffffffffffffffffffffffffffffffffffffff1916817bffffffffffffffffffffffffffffffffffffffffffffffffffffffff191614915050612ced565b600190505b949350505050565b606060405180602001604052806000815250905090565b6060612d1782611d7c565b6000612d21612cf5565b90506000815111612d415760405180602001604052806000815250612d6c565b80612d4b84612e39565b604051602001612d5c929190614a5f565b6040516020818303038152906040525b915050919050565b60007f01ffc9a7000000000000000000000000000000000000000000000000000000007bffffffffffffffffffffffffffffffffffffffffffffffffffffffff1916827bffffffffffffffffffffffffffffffffffffffffffffffffffffffff1916149050919050565b612de883836132c9565b612df56000848484612b6e565b612e34576040517f08c379a0000000000000000000000000000000000000000000000000000000008152600401612e2b90614a03565b60405180910390fd5b505050565b606060006001612e48846134e6565b01905060008167ffffffffffffffff811115612e6757612e66613cbc565b5b6040519080825280601f01601f191660200182016040528015612e995781602001600182028036833780820191505090505b509050600082602001820190505b600115612efc578080600190039150507f3031323334353637383961626364656600000000000000000000000000000000600a86061a8153600a8581612ef057612eef61459b565b5b04945060008503612ea7575b819350505050919050565b606060006002836002612f1a9190614559565b612f24919061462f565b67ffffffffffffffff811115612f3d57612f3c613cbc565b5b6040519080825280601f01601f191660200182016040528015612f6f5781602001600182028036833780820191505090505b5090507f300000000000000000000000000000000000000000000000000000000000000081600081518110612fa757612fa6614740565b5b60200101907effffffffffffffffffffffffffffffffffffffffffffffffffffffffffffff1916908160001a9053507f78000000000000000000000000000000000000000000000000000000000000008160018151811061300b5761300a614740565b5b60200101907effffffffffffffffffffffffffffffffffffffffffffffffffffffffffffff1916908160001a9053506000600184600261304b9190614559565b613055919061462f565b90505b60018111156130f5577f3031323334353637383961626364656600000000000000000000000000000000600f86166010811061309757613096614740565b5b1a60f81b8282815181106130ae576130ad614740565b5b60200101907effffffffffffffffffffffffffffffffffffffffffffffffffffffffffffff1916908160001a905350600485901c9450806130ee90615695565b9050613058565b5060008414613139576040517f08c379a00000000000000000000000000000000000000000000000000000000081526004016131309061570a565b60405180910390fd5b8091505092915050565b60606000825103613165576040518060200160405280600081525090506132a1565b60006040518060600160405280604081526020016158036040913990506000600360028551613194919061462f565b61319e91906145ca565b60046131aa9190614559565b67ffffffffffffffff8111156131c3576131c2613cbc565b5b6040519080825280601f01601f1916602001820160405280156131f55781602001600182028036833780820191505090505b509050600182016020820185865187015b80821015613261576003820191508151603f8160121c168501518453600184019350603f81600c1c168501518453600184019350603f8160061c168501518453600184019350603f8116850151845360018401935050613206565b505060038651066001811461327d576002811461329057613298565b603d6001830353603d6002830353613298565b603d60018303535b50505080925050505b919050565b6000808273ffffffffffffffffffffffffffffffffffffffff163b119050919050565b600073ffffffffffffffffffffffffffffffffffffffff168273ffffffffffffffffffffffffffffffffffffffff1603613338576040517f08c379a000000000000000000000000000000000000000000000000000000000815260040161332f90615776565b60405180910390fd5b6133418161289e565b15613381576040517f08c379a0000000000000000000000000000000000000000000000000000000008152600401613378906157e2565b60405180910390fd5b61338f6000838360016128df565b6133988161289e565b156133d8576040517f08c379a00000000000000000000000000000000000000000000000000000000081526004016133cf906157e2565b60405180910390fd5b6001600360008473ffffffffffffffffffffffffffffffffffffffff1673ffffffffffffffffffffffffffffffffffffffff16815260200190815260200160002060008282540192505081905550816002600083815260200190815260200160002060006101000a81548173ffffffffffffffffffffffffffffffffffffffff021916908373ffffffffffffffffffffffffffffffffffffffff160217905550808273ffffffffffffffffffffffffffffffffffffffff16600073ffffffffffffffffffffffffffffffffffffffff167fddf252ad1be2c89b69c2b068fc378daa952ba7f163c4a11628f55a4df523b3ef60405160405180910390a46134e26000838360016128e5565b5050565b600080600090507a184f03e93ff9f4daa797ed6e38ed64bf6a1f0100000000000000008310613544577a184f03e93ff9f4daa797ed6e38ed64bf6a1f010000000000000000838161353a5761353961459b565b5b0492506040810190505b6d04ee2d6d415b85acef81000000008310613581576d04ee2d6d415b85acef810000000083816135775761357661459b565b5b0492506020810190505b662386f26fc1000083106135b057662386f26fc1000083816135a6576135a561459b565b5b0492506010810190505b6305f5e10083106135d9576305f5e10083816135cf576135ce61459b565b5b0492506008810190505b61271083106135fe5761271083816135f4576135f361459b565b5b0492506004810190505b6064831061362157606483816136175761361661459b565b5b0492506002810190505b600a8310613630576001810190505b80915050919050565b6000604051905090565b600080fd5b600080fd5b60007fffffffff0000000000000000000000000000000000000000000000000000000082169050919050565b6136828161364d565b811461368d57600080fd5b50565b60008135905061369f81613679565b92915050565b6000602082840312156136bb576136ba613643565b5b60006136c984828501613690565b91505092915050565b60008115159050919050565b6136e7816136d2565b82525050565b600060208201905061370260008301846136de565b92915050565b600081519050919050565b600082825260208201905092915050565b60005b83811015613742578082015181840152602081019050613727565b60008484015250505050565b6000601f19601f8301169050919050565b600061376a82613708565b6137748185613713565b9350613784818560208601613724565b61378d8161374e565b840191505092915050565b600060208201905081810360008301526137b2818461375f565b905092915050565b600073ffffffffffffffffffffffffffffffffffffffff82169050919050565b60006137e5826137ba565b9050919050565b6137f5816137da565b811461380057600080fd5b50565b600081359050613812816137ec565b92915050565b60006020828403121561382e5761382d613643565b5b600061383c84828501613803565b91505092915050565b6000819050919050565b61385881613845565b82525050565b6000602082019050613873600083018461384f565b92915050565b61388281613845565b811461388d57600080fd5b50565b60008135905061389f81613879565b92915050565b6000602082840312156138bb576138ba613643565b5b60006138c984828501613890565b91505092915050565b6138db816137da565b82525050565b60006020820190506138f660008301846138d2565b92915050565b6000806040838503121561391357613912613643565b5b600061392185828601613803565b925050602061393285828601613890565b9150509250929050565b60008060006060848603121561395557613954613643565b5b600061396386828701613803565b935050602061397486828701613803565b925050604061398586828701613890565b9150509250925092565b7f4e487b7100000000000000000000000000000000000000000000000000000000600052602160045260246000fd5b600681106139cf576139ce61398f565b5b50565b60008190506139e0826139be565b919050565b60006139f0826139d2565b9050919050565b613a00816139e5565b82525050565b6000608082019050613a1b60008301876138d2565b613a28602083018661384f565b613a35604083018561384f565b613a4260608301846139f7565b95945050505050565b600060a082019050613a6060008301886138d2565b613a6d602083018761384f565b613a7a604083018661384f565b613a87606083018561384f565b613a9460808301846139f7565b9695505050505050565b60068110613aab57600080fd5b50565b600081359050613abd81613a9e565b92915050565b600060208284031215613ad957613ad8613643565b5b6000613ae784828501613aae565b91505092915050565b600060c0820190508181036000830152613b0a818961375f565b90508181036020830152613b1e818861375f565b90508181036040830152613b32818761375f565b9050613b4160608301866136de565b613b4e608083018561384f565b613b5b60a083018461384f565b979650505050505050565b60008060408385031215613b7d57613b7c613643565b5b6000613b8b85828601613803565b9250506020613b9c85828601613aae565b9150509250929050565b6000604082019050613bbb60008301856136de565b613bc8602083018461384f565b9392505050565b6000606082019050613be460008301866138d2565b613bf1602083018561384f565b613bfe604083018461384f565b949350505050565b613c0f816136d2565b8114613c1a57600080fd5b50565b600081359050613c2c81613c06565b92915050565b60008060408385031215613c4957613c48613643565b5b6000613c5785828601613803565b9250506020613c6885828601613c1d565b9150509250929050565b60008060408385031215613c8957613c88613643565b5b6000613c9785828601613aae565b9250506020613ca885828601613890565b9150509250929050565b600080fd5b600080fd5b7f4e487b7100000000000000000000000000000000000000000000000000000000600052604160045260246000fd5b613cf48261374e565b810181811067ffffffffffffffff82111715613d1357613d12613cbc565b5b80604052505050565b6000613d26613639565b9050613d328282613ceb565b919050565b600067ffffffffffffffff821115613d5257613d51613cbc565b5b613d5b8261374e565b9050602081019050919050565b82818337600083830152505050565b6000613d8a613d8584613d37565b613d1c565b905082815260208101848484011115613da657613da5613cb7565b5b613db1848285613d68565b509392505050565b600082601f830112613dce57613dcd613cb2565b5b8135613dde848260208601613d77565b91505092915050565b60008060008060808587031215613e0157613e00613643565b5b6000613e0f87828801613803565b9450506020613e2087828801613803565b9350506040613e3187828801613890565b925050606085013567ffffffffffffffff811115613e5257613e51613648565b5b613e5e87828801613db9565b91505092959194509250565b60008060408385031215613e8157613e80613643565b5b6000613e8f85828601613803565b9250506020613ea085828601613803565b9150509250929050565b7f4e487b7100000000000000000000000000000000000000000000000000000000600052602260045260246000fd5b60006002820490506001821680613ef157607f821691505b602082108103613f0457613f03613eaa565b5b50919050565b7f4552433732313a20617070726f76616c20746f2063757272656e74206f776e6560008201527f7200000000000000000000000000000000000000000000000000000000000000602082015250565b6000613f66602183613713565b9150613f7182613f0a565b604082019050919050565b60006020820190508181036000830152613f9581613f59565b9050919050565b7f4552433732313a20617070726f76652063616c6c6572206973206e6f7420746f60008201527f6b656e206f776e6572206f7220617070726f76656420666f7220616c6c000000602082015250565b6000613ff8603d83613713565b915061400382613f9c565b604082019050919050565b6000602082019050818103600083015261402781613feb565b9050919050565b7f6f776e6572eba78c20ec9db420ed95a8ec889820ed98b8ecb69c20eab080eb8a60008201527fa5ed95a9eb8b88eb8ba400000000000000000000000000000000000000000000602082015250565b600061408a602a83613713565b91506140958261402e565b604082019050919050565b600060208201905081810360008301526140b98161407d565b9050919050565b7fec8898ec8898eba38ceb8a9420ecb59ceb8c80203525eab98ceca780eba78c2060008201527fec84a4eca09520eab080eb8aa5ed95a9eb8b88eb8ba42e000000000000000000602082015250565b600061411c603783613713565b9150614127826140c0565b604082019050919050565b6000602082019050818103600083015261414b8161410f565b9050919050565b7f4552433732313a2063616c6c6572206973206e6f7420746f6b656e206f776e6560008201527f72206f7220617070726f76656400000000000000000000000000000000000000602082015250565b60006141ae602d83613713565b91506141b982614152565b604082019050919050565b600060208201905081810360008301526141dd816141a1565b9050919050565b7fec9db8ecb69ced95a020eab8b0ebb680eab888ec9db420ec9786ec8ab5eb8b8860008201527feb8ba42e00000000000000000000000000000000000000000000000000000000602082015250565b6000614240602483613713565b915061424b826141e4565b604082019050919050565b6000602082019050818103600083015261426f81614233565b9050919050565b7f4552433732313a20696e76616c696420746f6b656e2049440000000000000000600082015250565b60006142ac601883613713565b91506142b782614276565b602082019050919050565b600060208201905081810360008301526142db8161429f565b9050919050565b7f4552433732313a2061646472657373207a65726f206973206e6f74206120766160008201527f6c6964206f776e65720000000000000000000000000000000000000000000000602082015250565b600061433e602983613713565b9150614349826142e2565b604082019050919050565b6000602082019050818103600083015261436d81614331565b9050919050565b7feab8b0ebb680eab888ec9d802030657468eba5bc20eb8498ec96b4ec95bc20ed60008201527f95a9eb8b88eb8ba42e0000000000000000000000000000000000000000000000602082015250565b60006143d0602983613713565b91506143db82614374565b604082019050919050565b600060208201905081810360008301526143ff816143c3565b9050919050565b7fec9ca0ed9aa8ed9598eca78020ec958aec9d8020eca3bcec868cec9e85eb8b8860008201527feb8ba42e00000000000000000000000000000000000000000000000000000000602082015250565b6000614462602483613713565b915061446d82614406565b604082019050919050565b6000602082019050818103600083015261449181614455565b9050919050565b7fed999cec84b1ed9994eb9098eca78020ec958aec9d8020ecb9b4ed858ceab3a060008201527feba6acec9e85eb8b88eb8ba42e00000000000000000000000000000000000000602082015250565b60006144f4602d83613713565b91506144ff82614498565b604082019050919050565b60006020820190508181036000830152614523816144e7565b9050919050565b7f4e487b7100000000000000000000000000000000000000000000000000000000600052601160045260246000fd5b600061456482613845565b915061456f83613845565b925082820261457d81613845565b915082820484148315176145945761459361452a565b5b5092915050565b7f4e487b7100000000000000000000000000000000000000000000000000000000600052601260045260246000fd5b60006145d582613845565b91506145e083613845565b9250826145f0576145ef61459b565b5b828204905092915050565b600061460682613845565b915061461183613845565b92508282039050818111156146295761462861452a565b5b92915050565b600061463a82613845565b915061464583613845565b925082820190508082111561465d5761465c61452a565b5b92915050565b600061466e82613845565b91507fffffffffffffffffffffffffffffffffffffffffffffffffffffffffffffffff82036146a05761469f61452a565b5b600182019050919050565b60006040820190506146c0600083018561384f565b6146cd60208301846139f7565b9392505050565b7f496e76616c696420646f6e6174696f6e20696e64657800000000000000000000600082015250565b600061470a601683613713565b9150614715826146d4565b602082019050919050565b60006020820190508181036000830152614739816146fd565b9050919050565b7f4e487b7100000000000000000000000000000000000000000000000000000000600052603260045260246000fd5b7fed948ceb9eabed8fbc20ec8898ec8898eba38ceab08020ec9786ec8ab5eb8b8860008201527feb8ba42e00000000000000000000000000000000000000000000000000000000602082015250565b60006147cb602483613713565b91506147d68261476f565b604082019050919050565b600060208201905081810360008301526147fa816147be565b9050919050565b7f4552433732313a207472616e736665722066726f6d20696e636f72726563742060008201527f6f776e6572000000000000000000000000000000000000000000000000000000602082015250565b600061485d602583613713565b915061486882614801565b604082019050919050565b6000602082019050818103600083015261488c81614850565b9050919050565b7f4552433732313a207472616e7366657220746f20746865207a65726f2061646460008201527f7265737300000000000000000000000000000000000000000000000000000000602082015250565b60006148ef602483613713565b91506148fa82614893565b604082019050919050565b6000602082019050818103600083015261491e816148e2565b9050919050565b7f4552433732313a20617070726f766520746f2063616c6c657200000000000000600082015250565b600061495b601983613713565b915061496682614925565b602082019050919050565b6000602082019050818103600083015261498a8161494e565b9050919050565b7f4552433732313a207472616e7366657220746f206e6f6e20455243373231526560008201527f63656976657220696d706c656d656e7465720000000000000000000000000000602082015250565b60006149ed603283613713565b91506149f882614991565b604082019050919050565b60006020820190508181036000830152614a1c816149e0565b9050919050565b600081905092915050565b6000614a3982613708565b614a438185614a23565b9350614a53818560208601613724565b80840191505092915050565b6000614a6b8285614a2e565b9150614a778284614a2e565b91508190509392505050565b60008190508160005260206000209050919050565b60008154614aa581613ed9565b614aaf8186614a23565b94506001821660008114614aca5760018114614adf57614b12565b60ff1983168652811515820286019350614b12565b614ae885614a83565b60005b83811015614b0a57815481890152600182019150602081019050614aeb565b838801955050505b50505092915050565b7f2f00000000000000000000000000000000000000000000000000000000000000600082015250565b6000614b51600183614a23565b9150614b5c82614b1b565b600182019050919050565b7f2e706e6700000000000000000000000000000000000000000000000000000000600082015250565b6000614b9d600483614a23565b9150614ba882614b67565b600482019050919050565b6000614bbf8285614a98565b9150614bcb8284614a98565b9150614bd682614b44565b9150614be182614b90565b91508190509392505050565b7f7b226e616d65223a202200000000000000000000000000000000000000000000600082015250565b6000614c23600a83614a23565b9150614c2e82614bed565b600a82019050919050565b7f20eab8b0ebb68020ec9db8eca69dec849c202300000000000000000000000000600082015250565b6000614c6f601383614a23565b9150614c7a82614c39565b601382019050919050565b7f222c000000000000000000000000000000000000000000000000000000000000600082015250565b6000614cbb600283614a23565b9150614cc682614c85565b600282019050919050565b7f22696d616765223a202200000000000000000000000000000000000000000000600082015250565b6000614d07600a83614a23565b9150614d1282614cd1565b600a82019050919050565b7f2265787465726e616c5f75726c223a202268747470733a2f2f796f75722d646f60008201527f6e6174696f6e2d706c6174666f726d2e636f6d2f6e66742f0000000000000000602082015250565b6000614d79603883614a23565b9150614d8482614d1d565b603882019050919050565b7f2261747472696275746573223a205b0000000000000000000000000000000000600082015250565b6000614dc5600f83614a23565b9150614dd082614d8f565b600f82019050919050565b7f7b2274726169745f74797065223a2022ecb9b4ed858ceab3a0eba6ac222c202260008201527f76616c7565223a20220000000000000000000000000000000000000000000000602082015250565b6000614e37602983614a23565b9150614e4282614ddb565b602982019050919050565b7f227d2c0000000000000000000000000000000000000000000000000000000000600082015250565b6000614e83600383614a23565b9150614e8e82614e4d565b600382019050919050565b7f7b2274726169745f74797065223a2022ec8898ed989cec9e90222c202276616c60008201527f7565223a20220000000000000000000000000000000000000000000000000000602082015250565b6000614ef5602683614a23565b9150614f0082614e99565b602682019050919050565b7f7b2274726169745f74797065223a2022eab8b0ebb680eab888ec95a12028455460008201527f4829222c202276616c7565223a20000000000000000000000000000000000000602082015250565b6000614f67602e83614a23565b9150614f7282614f0b565b602e82019050919050565b7f7d2c000000000000000000000000000000000000000000000000000000000000600082015250565b6000614fb3600283614a23565b9150614fbe82614f7d565b600282019050919050565b7f7b2274726169745f74797065223a2022eab8b0ebb680eab888ec95a12028576560008201527f6929222c202276616c7565223a20220000000000000000000000000000000000602082015250565b6000615025602f83614a23565b915061503082614fc9565b602f82019050919050565b7f7b2274726169745f74797065223a2022eab8b0ebb680ec9dbcec8b9c222c202260008201527f76616c7565223a20000000000000000000000000000000000000000000000000602082015250565b6000615097602883614a23565b91506150a28261503b565b602882019050919050565b7f5d7d000000000000000000000000000000000000000000000000000000000000600082015250565b60006150e3600283614a23565b91506150ee826150ad565b600282019050919050565b600061510482614c16565b9150615110828c614a98565b915061511b82614c62565b9150615127828b614a2e565b915061513282614cae565b915061513d82614cfa565b9150615149828a614a2e565b915061515482614cae565b915061515f82614d6c565b915061516b8289614a2e565b915061517682614cae565b915061518182614db8565b915061518c82614e2a565b91506151988288614a98565b91506151a382614e76565b91506151ae82614ee8565b91506151ba8287614a2e565b91506151c582614e76565b91506151d082614f5a565b91506151dc8286614a2e565b91506151e782614fa6565b91506151f282615018565b91506151fe8285614a2e565b915061520982614e76565b91506152148261508a565b91506152208284614a2e565b915061522b82614fa6565b9150615236826150d6565b91508190509a9950505050505050505050565b7f646174613a6170706c69636174696f6e2f6a736f6e3b6261736536342c000000600082015250565b600061527f601d83614a23565b915061528a82615249565b601d82019050919050565b60006152a082615272565b91506152ac8284614a2e565b915081905092915050565b7f45524337323155524953746f726167653a2055524920736574206f66206e6f6e60008201527f6578697374656e7420746f6b656e000000000000000000000000000000000000602082015250565b6000615313602e83613713565b915061531e826152b7565b604082019050919050565b6000602082019050818103600083015261534281615306565b9050919050565b60006020601f8301049050919050565b600082821b905092915050565b6000600883026153967fffffffffffffffffffffffffffffffffffffffffffffffffffffffffffffffff82615359565b6153a08683615359565b95508019841693508086168417925050509392505050565b6000819050919050565b60006153dd6153d86153d384613845565b6153b8565b613845565b9050919050565b6000819050919050565b6153f7836153c2565b61540b615403826153e4565b848454615366565b825550505050565b600090565b615420615413565b61542b8184846153ee565b505050565b5b8181101561544f57615444600082615418565b600181019050615431565b5050565b601f8211156154945761546581614a83565b61546e84615349565b8101602085101561547d578190505b61549161548985615349565b830182615430565b50505b505050565b600082821c905092915050565b60006154b760001984600802615499565b1980831691505092915050565b60006154d083836154a6565b9150826002028217905092915050565b6154e982613708565b67ffffffffffffffff81111561550257615501613cbc565b5b61550c8254613ed9565b615517828285615453565b600060209050601f83116001811461554a5760008415615538578287015190505b61554285826154c4565b8655506155aa565b601f19841661555886614a83565b60005b828110156155805784890151825560018201915060208501945060208101905061555b565b8683101561559d5784890151615599601f8916826154a6565b8355505b6001600288020188555050505b505050505050565b600081519050919050565b600082825260208201905092915050565b60006155d9826155b2565b6155e381856155bd565b93506155f3818560208601613724565b6155fc8161374e565b840191505092915050565b600060808201905061561c60008301876138d2565b61562960208301866138d2565b615636604083018561384f565b818103606083015261564881846155ce565b905095945050505050565b60008151905061566281613679565b92915050565b60006020828403121561567e5761567d613643565b5b600061568c84828501615653565b91505092915050565b60006156a082613845565b9150600082036156b3576156b261452a565b5b600182039050919050565b7f537472696e67733a20686578206c656e67746820696e73756666696369656e74600082015250565b60006156f4602083613713565b91506156ff826156be565b602082019050919050565b60006020820190508181036000830152615723816156e7565b9050919050565b7f4552433732313a206d696e7420746f20746865207a65726f2061646472657373600082015250565b6000615760602083613713565b915061576b8261572a565b602082019050919050565b6000602082019050818103600083015261578f81615753565b9050919050565b7f4552433732313a20746f6b656e20616c7265616479206d696e74656400000000600082015250565b60006157cc601c83613713565b91506157d782615796565b602082019050919050565b600060208201905081810360008301526157fb816157bf565b905091905056fe4142434445464748494a4b4c4d4e4f505152535455565758595a6162636465666768696a6b6c6d6e6f707172737475767778797a303132333435363738392b2fa2646970667358221220042622098bdcde0b40f2541eff48b00405e2188098793fec9bd4808064c35f9864736f6c63430008130033eb85b8ec9db820eb8f8cebb48420ebb08f20ebb3b5eca78020ec849cebb984ec8aa468747470733a2f2f796f75722d646f6d61696e2e636f6d2f6e66742d696d616765732fec9ca0eab8b0eb8f99ebacbc20ebb3b4ed98b820ebb08f20eb8f99ebacbcebb3b5eca780ed9998eab2bd20ebb3b4ed98b820ebb08f20eab8b0ed9b84ebb380ed999420eb8c80ec9d91ec9e90ec97b0ec9eaced95b420ed94bced95b420ebb3b5eab5ac20ebb08f20eab5aced98b820ebb08f20eab8b0ed8380ec9d98eba38cebb98420eca780ec9b9020ebb08f20ec9d98eba38c20ed9998eab2bd20eab09cec84a0",
  "immutableReferences": {},
  "source": "// SPDX-License-Identifier: MIT\r\npragma solidity ^0.8.19;\r\n\r\nimport \"@openzeppelin/contracts/token/ERC721/ERC721.sol\";\r\nimport \"@openzeppelin/contracts/token/ERC721/extensions/ERC721URIStorage.sol\";\r\nimport \"@openzeppelin/contracts/utils/Counters.sol\";\r\nimport \"@openzeppelin/contracts/utils/Strings.sol\";\r\nimport \"@openzeppelin/contracts/utils/Base64.sol\";\r\n\r\ncontract DonationPlatform is ERC721, ERC721URIStorage {\r\n    // \r\n    address public owner;\r\n    uint256 public platformFee; //  (100 1  ,100=1%)\r\n    uint256 public totalDonations;\r\n\r\n    // NFT  \r\n    uint256 public minDonationForNFT=0.00000000001 ether; //  .  \r\n    string public baseImageURI=\"https://your-domain.com/nft-images/\"; //NFT   URI\r\n\r\n    using Counters for Counters.Counter;\r\n    using Strings for uint256;\r\n\r\n    //\r\n    Counters.Counter private _tokenIdCounter;\r\n\r\n    //   \r\n    struct CategoryInfo{\r\n        string name; // \r\n        string description; // \r\n        string imageFolder; //  \r\n        bool isActive; //   \r\n        uint256 totalRaised; //    \r\n        uint256 donationCount; //    \r\n\r\n    }\r\n\r\n    //   \r\n    struct Donation{\r\n        address donor;\r\n        uint256 amount;\r\n        uint256 timestamp;\r\n        uint256 nftTokenId;\r\n        DonationCategory category;\r\n    }\r\n\r\n    enum DonationCategory {\r\n        CHILDREN, //\r\n        ELDERLY, //\r\n        ENVIRONMENT,//\r\n        ANIMAL, //\r\n        MEDICAL, //\r\n        SOCIETY // \r\n    }\r\n\r\n    struct NFTMetadata {\r\n        address beneficiary; // \r\n        uint256 donationAmount; //  \r\n        uint256 timestamp; //  \r\n        //string message; // \r\n        DonationCategory category; //  \r\n    }\r\n\r\n    //NFT ->  \r\n\r\n\r\n\r\n    //   \r\n    mapping(address=> uint256) public beneficiaryBalances;\r\n    //  \r\n    mapping(address=> Donation[]) public beneficiaryDonations;\r\n    //NFT  \r\n    mapping(uint256=> NFTMetadata) public nftMetadata;\r\n    mapping(address=> uint256[]) public donorNFTs;\r\n    //   \r\n    mapping(address => uint256) public donorTotalDonations;\r\n    //    -> ?\r\n    //mapping(address => mapping(DonationCategory => uint256)) public donorCategoryDonations; \r\n    //     \r\n    mapping(DonationCategory => CategoryInfo) public categories;\r\n    //  NFT \r\n    mapping(DonationCategory => uint256[]) public categoryNFTs; \r\n\r\n\r\n\r\n    //\r\n    event DonationReceived(address indexed donor, address indexed beneficiary,\r\n    uint256 amount,DonationCategory category);\r\n    event FundsWithdrawn(address indexed beneficiary, uint256 amount);\r\n    event PlatformFeeWithdrawn(address indexed owner,uint256 amount);\r\n    event NFTMinted(uint256 indexed tokenId, address indexed donor,address indexed beneficiary,\r\n     uint256 amount,DonationCategory category);\r\n    //event CategoryUpdated(DonationCategory category, string name, string description);\r\n\r\n    //\r\n       constructor(uint256 _initialFee) ERC721(\"DonationCertificate\", \"DCERT\") {\r\n        owner = msg.sender;\r\n        platformFee = _initialFee;\r\n        _initializeCategories(); //    \r\n    }\r\n\r\n    //   modifier\r\n    modifier onlyOwner(){\r\n        require(msg.sender==owner, unicode\"owner    \");\r\n        _;\r\n    }\r\n\r\n    //  \r\n    function _initializeCategories() internal {\r\n        categories[DonationCategory.CHILDREN] = CategoryInfo({\r\n            name: unicode\"\",\r\n            description: unicode\"    \",\r\n            imageFolder: \"education\",\r\n            isActive: true,\r\n            totalRaised: 0,\r\n            donationCount: 0\r\n        });\r\n        \r\n        categories[DonationCategory.MEDICAL] = CategoryInfo({\r\n            name: unicode\"\",\r\n            description: unicode\"     \",\r\n            imageFolder: \"medical\",\r\n            isActive: true,\r\n            totalRaised: 0,\r\n            donationCount: 0\r\n        });\r\n        \r\n        categories[DonationCategory.ENVIRONMENT] = CategoryInfo({\r\n            name: unicode\"\",\r\n            description: unicode\"    \",\r\n            imageFolder: \"environment\",\r\n            isActive: true,\r\n            totalRaised: 0,\r\n            donationCount: 0\r\n        });\r\n        \r\n        categories[DonationCategory.SOCIETY] = CategoryInfo({\r\n            name: unicode\"\",\r\n            description: unicode\"      \",\r\n            imageFolder: \"disaster\",\r\n            isActive: true,\r\n            totalRaised: 0,\r\n            donationCount: 0\r\n        });\r\n        \r\n        categories[DonationCategory.ANIMAL] = CategoryInfo({\r\n            name: unicode\"\",\r\n            description: unicode\"   \",\r\n            imageFolder: \"animal\",\r\n            isActive: true,\r\n            totalRaised: 0,\r\n            donationCount: 0\r\n        });\r\n  \r\n        \r\n        categories[DonationCategory.ELDERLY] = CategoryInfo({\r\n            name: unicode\"\",\r\n            description: unicode\"    \",\r\n            imageFolder: \"elderly\",\r\n            isActive: true,\r\n            totalRaised: 0,\r\n            donationCount: 0\r\n        });\r\n\r\n    }\r\n\r\n\r\n    // -    \r\n    function donate(address _beneficiary,\r\n                DonationCategory _category) public payable\r\n                 returns (bool success, uint256 nftTokenId){\r\n        require(msg.value>0,unicode\" 0eth  .\");\r\n        require(_beneficiary !=address(0),unicode\"  .\");\r\n        require(categories[_category].isActive,unicode\"  .\");\r\n\r\n        //  (100 1% )\r\n        uint256 fee=(msg.value * platformFee) /10000;\r\n        uint256 donationAmount = msg.value-fee; //    \r\n\r\n        //   \r\n        beneficiaryBalances[_beneficiary]+=donationAmount;\r\n\r\n        //       \r\n        donorTotalDonations[msg.sender] += msg.value;\r\n\r\n         //   \r\n        categories[_category].totalRaised += msg.value;\r\n        categories[_category].donationCount++;\r\n\r\n        uint256 tokenId=0;\r\n\r\n        // NFT   \r\n        if (msg.value >= minDonationForNFT) {\r\n            tokenId = _mintCategoryNFT(msg.sender, _beneficiary, donationAmount, _category);\r\n        }\r\n\r\n        //   \r\n        beneficiaryDonations[_beneficiary].push(\r\n            Donation({\r\n                donor: msg.sender,\r\n                amount: donationAmount,\r\n                timestamp: block.timestamp,\r\n                nftTokenId: tokenId,\r\n                category:_category\r\n            })\r\n        );\r\n\r\n        totalDonations+=msg.value;\r\n        emit DonationReceived(msg.sender,_beneficiary,donationAmount,_category);\r\n    }\r\n\r\n    // NFT \r\n    function _mintCategoryNFT( //msg.sender, _beneficiary, donationAmount, _category\r\n        address _donor,\r\n        address _beneficiary, \r\n        uint256 _amount,\r\n        DonationCategory _category\r\n    ) internal returns (uint256){ // NFT  ID \r\n        uint256 tokenId=_tokenIdCounter.current();\r\n        _tokenIdCounter.increment(); // NFT  ID . \r\n\r\n            /**\r\n            NFTTier tier = determineCategoryNFTTier(\r\n            amount,\r\n            donorTotalDonations[_donor],\r\n            donorCategoryDonations[_donor][_category]\r\n             ); */\r\n        \r\n        // NFT \r\n        //_safeMint OpenZeppelin  NFT,  NFT    \r\n        _safeMint(_donor,tokenId);\r\n\r\n         //   -> NFT      NFT  . \r\n        nftMetadata[tokenId] = NFTMetadata({\r\n            beneficiary: _beneficiary,\r\n            donationAmount: _amount,\r\n            timestamp: block.timestamp,\r\n            category: _category\r\n        });\r\n\r\n        //NFT  URI   \r\n        string memory MetaDataURI = _generateCategoryTokenURI(\r\n            tokenId, _beneficiary, _amount, _category);\r\n        _setTokenURI(tokenId, MetaDataURI);\r\n        \r\n         //  NFT   ->    NFF    \r\n        donorNFTs[_donor].push(tokenId);\r\n        \r\n        //  NFT  \r\n        categoryNFTs[_category].push(tokenId);\r\n\r\n        //NFT    ->   nft  \r\n        emit NFTMinted(tokenId, _donor, _beneficiary, _amount, _category);\r\n\r\n        return tokenId;\r\n    }\r\n\r\n\r\n    //   \r\n    function _generateCategoryTokenURI(\r\n        uint256 _tokenId,\r\n        address _beneficiary,\r\n        uint256 _amount,\r\n        DonationCategory _category\r\n    ) internal view returns (string memory) {\r\n        \r\n        //   URL \r\n        string memory imageUrl = string(abi.encodePacked(\r\n            baseImageURI,\r\n            categories[_category].imageFolder,\r\n            \"/\",\r\n            \".png\"\r\n        ));\r\n        \r\n        // JSON  \r\n        string memory json = string(abi.encodePacked(\r\n            '{\"name\": \"', categories[_category].name, unicode'   #', _tokenId.toString(), '\",',\r\n            '\"image\": \"', imageUrl, '\",',\r\n            '\"external_url\": \"https://your-donation-platform.com/nft/', _tokenId.toString(), '\",',\r\n            '\"attributes\": [',\r\n                unicode'{\"trait_type\": \"\", \"value\": \"', categories[_category].name, '\"},',\r\n                unicode'{\"trait_type\": \"\", \"value\": \"', Strings.toHexString(uint160(_beneficiary), 20), '\"},',\r\n                unicode'{\"trait_type\": \" (ETH)\", \"value\": ', (_amount / 1e18).toString(), '},',\r\n                unicode'{\"trait_type\": \" (Wei)\", \"value\": \"', _amount.toString(), '\"},',\r\n                unicode'{\"trait_type\": \"\", \"value\": ', block.timestamp.toString(), '},',\r\n              \r\n            ']}'\r\n        ));\r\n        \r\n        // Base64 \r\n        string memory base64Json = Base64.encode(bytes(json));\r\n        \r\n        return string(abi.encodePacked(\"data:application/json;base64,\", base64Json));\r\n    }\r\n\r\n\r\n    //   \r\n    function withdraw() public {\r\n        address beneficiary = msg.sender;\r\n        uint256 amount = beneficiaryBalances[beneficiary];\r\n        \r\n        require(amount > 0, unicode\"  .\");\r\n        \r\n        //   (  )\r\n        beneficiaryBalances[beneficiary] = 0;\r\n        \r\n        //  \r\n        payable(beneficiary).transfer(amount);\r\n        \r\n        emit FundsWithdrawn(beneficiary, amount);\r\n    }\r\n\r\n    //   \r\n    function withdrawPlatformFees() public onlyOwner {\r\n        uint256 platformBalance = address(this).balance - getTotalBeneficiaryBalances();\r\n        require(platformBalance > 0, unicode\"  .\");\r\n        \r\n        payable(owner).transfer(platformBalance);\r\n        \r\n        emit PlatformFeeWithdrawn(owner, platformBalance);\r\n    }\r\n\r\n    //  (onlyOwner)\r\n    function setPlatformFee(uint256 _newFee) public onlyOwner{\r\n        require(_newFee<=1000,unicode\"  5%  .\"); // 5%\r\n        platformFee=_newFee;\r\n    }\r\n\r\n    //     - \r\n    function getTotalBeneficiaryBalances() private view returns (uint256){\r\n        return address(this).balance-(totalDonations*platformFee/10000);\r\n\r\n    }\r\n\r\n    //    \r\n    function getBeneficiaryBalance(address _beneficiary) public view returns (uint256) {\r\n        return beneficiaryBalances[_beneficiary];\r\n    }\r\n\r\n    //     \r\n    function getDonationCount(address _beneficiary) public view returns (uint256){\r\n         return beneficiaryDonations[_beneficiary].length;\r\n    }\r\n\r\n    //      \r\n    function getDonationDetails(address _beneficiary, uint256 _index) public view returns (\r\n        address donor,\r\n        uint256 amount,\r\n        uint256 timestamp\r\n    ) {\r\n        //  \r\n        require(_index < beneficiaryDonations[_beneficiary].length, \"Invalid donation index\");\r\n        \r\n        //    \r\n        Donation memory donation = beneficiaryDonations[_beneficiary][_index];\r\n\r\n        // \r\n        return (donation.donor, donation.amount, donation.timestamp);\r\n    }\r\n\r\n\r\n    //    \r\n        function getContractBalance() public view returns (uint256) {\r\n            return address(this).balance;\r\n        }\r\n\r\n\r\n\r\n    //  \r\n    function _burn(uint256 tokenId) internal override(ERC721, ERC721URIStorage) {\r\n        super._burn(tokenId);\r\n    }\r\n    \r\n    function tokenURI(uint256 tokenId) public view override(ERC721, ERC721URIStorage) returns (string memory) {\r\n        return super.tokenURI(tokenId);\r\n    }\r\n    \r\n    function supportsInterface(bytes4 interfaceId) public view override(ERC721, ERC721URIStorage) returns (bool) {\r\n        return super.supportsInterface(interfaceId);\r\n    }\r\n\r\n}",
  "sourcePath": "C:\\Users\\tadyy\\Documents\\BlockChainProject\\contracts\\DonationPlatform.sol",
  "compiler": {
    "name": "solc",
    "version": "0.8.19+commit.7dd6d404.Emscripten.clang"
  },
  "schemaVersion": "3.4.4",
  "updatedAt": "2025-06-01T09:12:54.672Z",
  "devdoc": {
    "events": {
      "Approval(address,address,uint256)": {
        "details": "Emitted when `owner` enables `approved` to manage the `tokenId` token."
      },
      "ApprovalForAll(address,address,bool)": {
        "details": "Emitted when `owner` enables or disables (`approved`) `operator` to manage all of its assets."
      },
      "BatchMetadataUpdate(uint256,uint256)": {
        "details": "This event emits when the metadata of a range of tokens is changed. So that the third-party platforms such as NFT market could timely update the images and related attributes of the NFTs."
      },
      "MetadataUpdate(uint256)": {
        "details": "This event emits when the metadata of a token is changed. So that the third-party platforms such as NFT market could timely update the images and related attributes of the NFT."
      },
      "Transfer(address,address,uint256)": {
        "details": "Emitted when `tokenId` token is transferred from `from` to `to`."
      }
    },
    "kind": "dev",
    "methods": {
      "approve(address,uint256)": {
        "details": "See {IERC721-approve}."
      },
      "balanceOf(address)": {
        "details": "See {IERC721-balanceOf}."
      },
      "getApproved(uint256)": {
        "details": "See {IERC721-getApproved}."
      },
      "isApprovedForAll(address,address)": {
        "details": "See {IERC721-isApprovedForAll}."
      },
      "name()": {
        "details": "See {IERC721Metadata-name}."
      },
      "ownerOf(uint256)": {
        "details": "See {IERC721-ownerOf}."
      },
      "safeTransferFrom(address,address,uint256)": {
        "details": "See {IERC721-safeTransferFrom}."
      },
      "safeTransferFrom(address,address,uint256,bytes)": {
        "details": "See {IERC721-safeTransferFrom}."
      },
      "setApprovalForAll(address,bool)": {
        "details": "See {IERC721-setApprovalForAll}."
      },
      "symbol()": {
        "details": "See {IERC721Metadata-symbol}."
      },
      "transferFrom(address,address,uint256)": {
        "details": "See {IERC721-transferFrom}."
      }
    },
    "version": 1
  },
  "userdoc": {
    "kind": "user",
    "methods": {},
    "version": 1
  }
}